:10000000C8190020350B00003D460000210B000000
:10001000210B0000210B0000210B0000210B000030
:10002000000000000000000000000000A10C000023
:10003000210B000000000000390C0000210B000023
:100040000D0E00000D0E00000D0E00000D0E000044
:100050000D0E00000D0E00000D0E00000D0E000034
:100060000D0E00000D0E00000D0E00000D0E000024
:100070000D0E00000D0E00000D0E00000D0E000014
:100080000D0E00000D0E00000D0E00000D0E000004
:100090000D0E00000D0E00000D0E00000D0E0000F4
:1000A0000D0E00000D0E00000D0E00000D0E0000E4
:1000B0000D0E00000D0E00000D0E00000D0E0000D4
:1000C0000D0E00000D0E00000D0E00000D0E0000C4
:1000D0000D0E00000D0E00000D0E00000D0E0000B4
:1000E0000D0E00000D0E00000D0E00000D0E0000A4
:1000F0000D0E00000D0E00000D0E00000D0E000094
:100100000D0E00000D0E00000D0E00000D0E000083
:100110000D0E00000D0E00000D0E00000D0E000073
:100120000D0E00000D0E00000D0E00000D0E000063
:100130000D0E00000D0E00000D0E00000D0E000053
:100140000D0E00000D0E00000D0E00000D0E000043
:100150000D0E000008B5054C204604F081F9002181
:100160004FF4004005F07BF9F6E700BFBC5B0000F0
:10017000014B1B68184700BF00000020014B1860AE
:10018000704700BF0000002030B585B004460D4622
:1001900010220021684605F0D9F902238DF80230BB
:1001A000044B2A4621466846019303F01BFE05B026
:1001B00030BD00BF7101000080B505460E461746F0
:1001C000984603F0FDF9034605F03AFA0446DFF8D5
:1001D0001890424649F8003039463046A84754F84E
:1001E000090000F013FD00BF080000002DE9F047F2
:1001F000058B04462807904611D4022905F007050F
:1002000040F0CC80204604F038F978B10138218BD9
:10021000042811D8DFE800F0C2106D85950001298F
:100220000CBF45F0100545F02005258388F31188A3
:10023000BFF36F8FBDE8F08701F0070AAA4500F011
:10024000A5800027B9463E46A368002B00F0BC807D
:1002500041F00801218388F31188BFF36F8FA168F3
:10026000002900F0BA800D68002900F0B6803346FE
:1002700052462046D1F80480C047002D76D02B6826
:1002800029461D46F0E701F007035A1F012A1BD833
:10029000002221F00701062B276889B2C4E9002259
:1002A00009D13B4603E0628B013262831B68002B5D
:1002B000F9D141F002012046218304F0DEF8002844
:1002C0007AD041F0200176E0042B0AD121F0070119
:1002D00089B22046218304F0D0F810B141F020010A
:1002E0002183218B01F0070AAA454FD00027B94688
:1002F000AAE7236921F0070141F00601062DD3F892
:10030000009021832DD1B9F1000F3FD041F00801B9
:10031000218388F31188BFF36F8F20463949C8477E
:1003200029E021F00701236941F0040189B2042D7D
:10033000D3F804902183E6D000274FF0040A3E460C
:1003400082E721F00701236941F0050189B2052DFB
:10035000D3F808902183D6D000274FF0050A3E46F7
:1003600072E700274FF0060A3E466DE72B4687E707
:10037000B9F1000FD1D1EFF31188202383F3128854
:10038000BFF36F8F238B23F008032383258BEA06AB
:100390002ED525F01003238305F007056669218B10
:1003A000002EBFF670AF00232768C4E9003321F0A8
:1003B000070141F001012183218B4FF0000901F079
:1003C000070AAA457FF440AF002F9CD041F00801F6
:1003D000218388F31188BFF36F8F002FC8D03D6849
:1003E000394633465246204604F073F82F46F4E768
:1003F000AB067FF51BAF25F02003238305F007052F
:1004000000E700BFFF440000014B0360002070477D
:10041000E859000008B5044804F022F8BDE8084097
:10042000024804F01DB800BFCA5B0000FF5B00007B
:10043000014803F095BB00BFE859000038B50446F9
:1004400018B90F4B0F485B6898476168B1F5683F72
:1004500010D0B1F5680F0DD00B4DA9420AD011F4A0
:100460006861206807D00146084804F036FF002381
:100470002360656038BD142205F068F8F9E700BF15
:10048000DC0000202D5C00002C5F5CA9E808002047
:1004900008B560B34368B3F5683F0ED0B3F5680F95
:1004A00018D0144A934220D000684FF0FF324FF02A
:1004B000FF3302F065FC58B115E001220368D3E870
:1004C000EF1F002903D1C3E8E02F0028F7D10AD19C
:1004D000002008BD0368084A1B7803F5807352F8B2
:1004E0002330002BF4D00548F3E70548F1E76FF41B
:1004F000E040EEE72C5F5CA900000350E98FFFFFAE
:10050000EA8FFFFF08B520B34368B3F5683F09D011
:10051000B3F5680F13D0114A93421DD0006802F062
:10052000A7FC14E000220368D3E8EF1F012903D1E0
:10053000C3E8E02F0028F7D109D0094808BD002101
:100540000368084A1B7803F5807342F823100020E3
:10055000F4E76FF4E040F1E70348EFE72C5F5CA9B4
:10056000E98FFFFF00000350EA8FFFFF10B504463C
:1005700018B91D4B1D485B6898476368B3F5683F21
:100580002FD0B3F5680F2CD0194A934219D12368A4
:1005900003BB4FF0FF324FF0FF332146154802F006
:1005A000C1FB08B923681BB90F4B13485B68984718
:1005B00014220021206804F0C9FF4FF468636360CF
:1005C00008E0B3F5683F0DD83A2B03D040F6BA6285
:1005D0009342DED1206804F0CBFE636843F03A0317
:1005E000636010BD054AF3E7DC0000202D5C0000CD
:1005F0002C5F5CA9E8080020535C00003A00003A38
:1006000008B5064940231422054804F058FEBDE809
:1006100008400449044803F015BB00BFE80300206C
:10062000E8080020F0590000045A000008B503480B
:10063000034A0021121A03F0F9FF08BD98010020B7
:10064000880C0020074808B5074A0849121A03F029
:10065000EFFFBDE808400648064A0749121A03F0B2
:10066000E7BF00BF00000020940100203C610000B3
:1006700000000020000000203C61000038B5054665
:100680000C4699B1D1E901230F48096803F0E8FE4F
:10069000D4E90423E1680D4803F0E2FEE1690C4867
:1006A00003F0DEFEA1690B4803F0DAFE012D05D14F
:1006B000EFF305810848103903F0D2FE21462846A1
:1006C000BDE8384002F0EAB9805C0000B05C000090
:1006D000E05C0000F05C00001F5D000030BFFFF731
:1006E000FDBF00BF2DE9F04105460B4EDFF82C8021
:1006F000324606EB0807CC1B2046094904F019FFD7
:10070000A01942460021083C04F020FFC5F8A4408F
:1007100007F10800BDE8F0810000000004000000BF
:10072000DC590000054B5A699B689A421FBF044A76
:10073000536843F080535360704700BF780A00202D
:1007400000ED00E010B5204C204803F089FEA36ABC
:10075000990137D51E4803F083FE1E20A36ADA01F3
:1007600003D51C4803F07CFE1F20174CA36ADB0254
:1007700003D5194803F074FE0220A36A1C0303D5B5
:10078000164803F06DFE21200F4CA36A590303D5D0
:10079000134803F065FE2220A36A9A0303D511488B
:1007A00003F05EFE2320084CA36ADB0303D50E484A
:1007B00003F056FE2420A36A6FEA03436FEA134353
:1007C000A36210BD1D20C9E700ED00E0335D00000D
:1007D0004C5D0000605D00007B5D0000A65D0000D8
:1007E000C55D0000EB5D0000065E000070B5244CA6
:1007F000064624480D4603F033FEA36AD90435D5D6
:10080000214803F02DFE1720A36A1A0503D51F48BF
:1008100003F026FE18201A4CA36A9B050FD51C482E
:1008200003F01EFEA16BA36A180407D5194803F054
:1008300017FE1EB1A36A23F40043A3621920104CD3
:10084000A36A590503D5144803F00AFE1A20A36AC7
:10085000DA050DD5114803F003FE1B20084A936A00
:1008600043F47F43936200232B7070BD1620CBE7C7
:10087000A36A9B04F2D50A4803F0F2FD1C20EDE7C1
:1008800000ED00E0325E0000495E00005B5E0000AB
:100890006F5E0000895E00009F5E0000BB5E00008E
:1008A000D45E000070B5264C064626480D4603F07F
:1008B000D7FDA36AD80640D5234803F0D1FD112007
:1008C000A36A190703D5214803F0CAFD12201C4C66
:1008D000A36A9A070FD51E4803F0C2FD616BA36A95
:1008E0001B0607D51B4803F0BBFD1EB1A36A23F00E
:1008F0008003A3621320124CA36ADE0703D51648B7
:1009000003F0AEFD1420A36A9C0603D5134803F040
:10091000A7FD15200A4B9A6AD10658BF9A6A9A6AAF
:10092000920642BF5A6A22F400525A629A6A42F010
:10093000FF029A6200232B7070BD1020C0E700BF39
:1009400000ED00E0045F00001B5F00005B5E000044
:100950004F5F0000685F00007F5F0000D45E000012
:100960002DE9F0415B4B04465F6800258AB0C7F370
:10097000080685F31188BFF36F8F02F07F43B3F150
:100980007F4F06D102F00C03082B13D1524803F01D
:1009900067FD00252C464FF00008F31E8DF80780F8
:1009A000092B00F28580DFE803F00A797D758383E7
:1009B0008383838110074CBF0C460125EBE7474832
:1009C000444E03F04DFD8DF80780F36A9A0704D575
:1009D000434803F045FD00232FE0F36A002B01DAC2
:1009E0004048F6E7F36A5B00F5D53F4803F038FD71
:1009F0007369A26943F480737361BFF34F8FBFF3D0
:100A00006F8F736932F8022C23F480737361BFF324
:100A10004F8FBFF36F8F4DF602739A4208D0B36ABF
:100A2000DBB24BB301200DF10701FFF73BFF33E0D1
:100A300021682E4803F014FD23689DF80720C2B9F1
:100A400002AE04F12007324620686168083403C210
:100A5000BC421646F7D1099AB5B3C2F3080121B9D1
:100A60006FEA52226FEA42220992184602A9FFF762
:100A700005FE0AB0BDE8F081B36A13F47F4F05D0DC
:100A800001200DF10701FFF7B1FE05E0B36AB3F5F0
:100A9000803FA0D3FFF756FE0346CEE700200DF1BE
:100AA0000701C2E700200DF10701ECE7104890E7CD
:100AB000104B17F4F87F1049104818BF1946A6F1DB
:100AC000100203F0CDFC86E722F4FF7222F001024F
:100AD000CAE700BF00ED00E0CD5F0000F95F000055
:100AE000116000003360000042600000626000009E
:100AF0007F600000B45F00009F5F0000A460000002
:100B0000064B5A6942F010025A615A6942F48062F7
:100B10005A615A6922F008025A61704700ED00E0FC
:100B2000EFF30880EFF3098101B57246FFF718FF74
:100B300001BD00BF002080F31488BFF36F8F002039
:100B400080F30A8880F30B88104880F3088800201F
:100B50000F49087001F03CFB00200E490860BFF30C
:100B60004F8F00F02DF8202080F311880A484FF4B1
:100B70000061401880F30988EFF3148002210843D4
:100B800080F31488BFF36F8F00F0DCF8C8190020E1
:100B9000850C002094ED00E0880C0020002318460E
:100BA0000649D1F89020C2F30722934200DB704738
:100BB000C1F89830C1F8A0000133F6E700ED00E07D
:100BC00010B572B6002484F31388FFF7E7FF2346BD
:100BD0004FF0FF300C4A03F120010133102B42F893
:100BE0002100F8D100234FF0FF30074A03F16001E4
:100BF0000133102B42F82100F8D162B6BFF34F8FBA
:100C0000BFF36F8F10BD00BF00E100E0084B9B6891
:100C100083420BD1EFF3058343B1064B5A6842F090
:100C200080525A605A6A22F400425A6202F0CEBCE4
:100C3000780A002000ED00E016498A684FF0300085
:100C40001044EFF3098C80E8F01F202080F3128815
:100C5000BFF36F8F104F4FF000664A698A603E60A5
:100C6000D2F8A4000D4C2060D2F8A8000023C2F8EE
:100C7000A83080F3118802F1300090E8F01F8CF367
:100C8000098802F1000004B503F0E3FCBDE804406C
:100C900070470000780A002004ED00E004090020FD
:100CA0001EF0040F0CBFEFF30880EFF30980816999
:100CB00011F8021C0229FFD001B5724603F0BAFCFC
:100CC00001BD00BF40B2002807DB01234109034AF0
:100CD00000F01F00834042F82130704700E100E03F
:100CE000054B420953F82220012300F01F0003FAAC
:100CF00000F01040704700BF00E100E040B2002863
:100D000001F10101ACBF00F16040064B4FEA411117
:100D1000C9B2ABBF00F5614000F00F0080F80013CE
:100D20001954704714ED00E0044B054A23F07F038B
:100D30009360BFF34F8FBFF36F8F704700000000C9
:100D400000ED00E008B5FFF7EFFF074AD2F8883062
:100D500023F47003C2F88830FFF768FCFFF772FCD9
:100D600000F048F801F064FF00ED00E042F8203C9C
:100D7000009B0B4942F81C3C019B21F0010142F809
:100D8000183C029B42F8081C42F8143C4FF0807358
:100D900042F8043C0023203A0265C0F8A8307047AE
:100DA000B901000000B50E4B15469860D0F8A4209C
:100DB0000C4B0E461A60D0F8943083F30B882C4607
:100DC00086F309880020044B984720460021002222
:100DD0000023024C2047000063460000B9010000D8
:100DE000780A0020040900201022014B1A61704784
:100DF00000ED00E0002320210348C2180133452BF9
:100E000082F80013F9D1704700E100E008B5EFF374
:100E10000583064A103B02EBC30152F833004968D0
:100E20008847BDE80840FFF77DBC00BF245700009D
:100E30001FB5094C094A23460121094800F0FAF878
:100E400000230393074B0121E41A01A801930294A4
:100E500000F0FAF804B010BD0000072000000020E8
:100E6000145A00009801002010B50C7A0B6804F0A9
:100E70001F0223F01F031A43CB68640923F01F03EA
:100E8000054943EA440343F00103C1F89800C1F85F
:100E90009C20C1F8A03010BD00ED00E010B5074B5C
:100EA000D3F89030C3F30723013B984202D8FFF7F1
:100EB000DBFF10BD6FF01500FBE700BF00ED00E0A9
:100EC0002DE9F04F0F46144606464FF000084D4DF1
:100ED00085B0B84580F29280D6F80490B9F1000F41
:100EE00036D0B9F11F0F40F2878019F01F0F40F084
:100EF0008380D6F800A01AF01F0F7DD1504603F072
:100F0000ECFB834609EB0A00013803F0E6FB83455E
:100F100072D11BF1160F6FD05C456DDDC5F898B02E
:100F2000D5F89C10C5F898B0D5F8A03021F01F0175
:100F300043F01F0AD6E900321A44994202F1FF3900
:100F40001ED1CA4508D131465FFA8BF003F0CEFBC3
:100F500008F101080C36BCE73146C5F898B0D5F861
:100F60009C3022F01F0203F01F031343C5F89C308E
:100F7000E0B203F0BBFB10F1160F3DD0441CE7E7D5
:100F8000C5F898B0D5F8A020013B23F01F0302F06C
:100F90001F021343CA453146E0B2C5F8A030E8D07D
:100FA00003F0A4FB10F1160F26D0C5F898B0D5F8C1
:100FB0009C209DF808300AF1FF3A62F304038DF893
:100FC0000830D5F8A0309DF808205B0863F347127D
:100FD0008DF80820D6E900321344009323F01F0354
:100FE0005344A3EB0903013023F01F036946C0B249
:100FF0000393FFF753FFBEE76FF01504204605B0DB
:10100000BDE8F08F00ED00E00522044BC3F894200A
:10101000BFF34F8FBFF36F8F704700BF00ED00E04D
:10102000BFF35F8F0022024BC3F89420704700BFCC
:1010300000ED00E010B5034C2278FFF741FF20706F
:1010400010BD00BF800C00202DE9F74F294D8A46C6
:1010500006464FF00008AB46274FD0451BDAD6F8BE
:101060000490B9F1000F3FD031680846019103F0B8
:1010700034FB0199044609EB0100013803F02DFB14
:1010800084424FF014021D4B08D002FB08F36FF0AE
:1010900015024BF8032003B0BDE8F08F14F1160FD2
:1010A0002C60F8D01978A142F5DD02FB08B0C7F832
:1010B0009840C7F89840D7F89C4000F10801007BA1
:1010C00064F304000871D7F8A0000C79400860F3BD
:1010D00047140C71D7F89C1021F01F016960D7F8F4
:1010E000A01021F01F01296108F1010814350C3608
:1010F000B3E700BF0809002000ED00E0800C0020ED
:10110000F0B54149414CD1F890302568C3F307232D
:101110009D4287B075D80020FFF782FF3C4BC1F895
:10112000C030854216D13B4C01A82570FFF76CF901
:1011300000250646384FAE4213D1002023783249AD
:10114000D1F89020C2F30722934254DBFFF75CFFF3
:1011500000202FE0616801EB0011FFF785FE0130F0
:10116000DFE70199280101EB0513DA683A40B2F58F
:10117000001F21D0B2F5800F2BD0B2F5801F38D1DF
:101180005A689B680958013B22F01F000344012064
:10119000844623F01F0340EA4C10CDE902218DF86C
:1011A000100002A920780593FFF778FE00281DDAC9
:1011B0006FF0150007B0F0BD5A689B680958013BF5
:1011C00022F01F0003444FF0020C012023F01F0304
:1011D000E1E75A689B680958013B22F01F0003446D
:1011E0004FF0000C062023F01F03D4E723780133CF
:1011F000237001359FE7C1F89830C1F8A000013392
:101200009EE74FF0FF30D5E700ED00E0205A0000E8
:10121000AAFF4400800C00200000F0FF08B5024B3C
:101220001B689847002008BD1C090020034B044A96
:101230001860937843F00203937070471C090020F4
:101240002400002008B50649064821F00701C1F135
:10125000005202F5E02203F0A9F8002008BD00BF0B
:10126000CF19002020090020054B03EB8000D0F8A7
:10127000003223F0E04343F04053C0F8003270479F
:1012800000258450052370B5144D154E2C7801347B
:10129000B4FBF3F303EB8303E41A03F021FC114ADC
:1012A000137823B156F82430C01A072814D94FF008
:1012B0005023D3F8141141B10021C3F81411D3F80D
:1012C00014312C700CB9012313702C7803F008FC36
:1012D00046F82400012070BD0020FCE7820C0020AD
:1012E0002C090020810C0020012208B50B4B0C4971
:1012F000C3F8002502230020C1F8D036FFF7B4FF61
:101300001046FFF7B1FFC1F80427C1F80429C1F85E
:10131000002BBDE8084000F099B800BF0010005055
:101320000040005007B54FF480620B4B0B49C3F8E7
:10133000B8254FF400620A48C3F83C250DF10702B6
:1013400003F015FC002803DB9DF8070001F036F8D8
:1013500003B05DF804FB00BF00A002502CA00250B7
:1013600028A1025048B1054B054A1B68B3FBF2F3B4
:101370005843044B43F0010318477047C400002052
:1013800040420F00E0590000002170B5104C114D93
:10139000114E000714F8013B03F01F025B090FD048
:1013A000012B0FD1334603EB8203D3F80022013126
:1013B00022F0E04202430429C3F80022EAD170BDC2
:1013C0002B46F0E70023803253F82230FFDE00BFC7
:1013D000CB60000000258450002884502DE9F041A6
:1013E000064601200D46FFF7CFFF4FF47F03D3F8E9
:1013F0003021D3F83431072A20D1023B032B02D805
:10140000114AD35CD3B14FF050244FF001080027AC
:101410000520C4F81886C4F8147603F073FB404620
:10142000C4F8148603F06EFBC4F81476C4F818767A
:1014300030462B46BDE8F041002118474FF05023BD
:101440000022C3F81426F3E7C760000001490248F0
:1014500003F062B8485A00004009002008B54FF078
:10146000FF323F230348C0E9002300F093FF002030
:1014700008BD00BF5C090020084B70B5C31A0D46BB
:1014800007499B10044659434022064803F066F979
:101490002B4601462046BDE87040184778090020D9
:1014A000B76DDBB6A4560000402373B50B4C009318
:1014B000041B0B460D460A49A41061430646094A1F
:1014C000094803F077F9011E05DA30462B4602B0D1
:1014D000BDE87040184702B070BD00BF7809002019
:1014E000B76DDBB61F480000A45600002DE9F04799
:1014F0000022012107460520FFF700FC124800F0FA
:101500007DFF0446D0B900F0ADFF25464FF01C0A20
:101510004FF00C08DFF834903E6949460AFB05603D
:1015200002F0FAFF031E0CDB012308FB05661D44D5
:10153000042DB367F0D12046BDE8F0876FF00404B6
:10154000F9E71C46F7E700BF7D160000545A00007B
:101550001FB500220123CDE902236B46084ACDF8CE
:1015600000D0CDF804D003F053F9002805DB4FF488
:1015700080420023684601F0FFFC05B05DF804FBE3
:101580004948000010B5EFF31184202383F312883B
:10159000BFF36F8F074A136823F00201DB07116066
:1015A00002D4012003F006FB84F31188BFF36F8F90
:1015B00010BD00BF180A00200C22104B014602FB90
:1015C0000033002030B4D3E91C521867EFF31180C8
:1015D000202484F31288BFF36F8F9C6F04F0C00443
:1015E00044F002049C6780F31188BFF36F8F1DB134
:1015F0002B4630BC0248184730BC704778090020A1
:10160000A456000010B4EFF31182202383F3128854
:10161000BFF36F8F1748016841F002040460C807E8
:1016200007D482F31188BFF36F8F012010BC03F041
:10163000B2BA4FF05021D1F80C04D1F80C14C907FC
:10164000EFD5EFF3118083F31288BFF36F8F0A4950
:101650008B6F03F0C00343F002038B6780F31188A4
:10166000BFF36F8F82F31188BFF36F8F002010BC20
:10167000FFF7A2BF180A002078090020092813D814
:10168000DFE800F005101212121212120E0C074BB6
:10169000986F10F0070007D1FFF78EBF0220FBE71D
:1016A0000320F9E70120F7E7704700BF7809002021
:1016B0002DE9F041012207463649D1E8EF3FC1E864
:1016C000E02F0028F9D133B9334934484B60CB605F
:1016D0008A6002F034FF7B1E012B2BD8012F07D12B
:1016E0004FF05023D3F81C3403F00303022B21D016
:1016F00003F045FE0546F8B9294B1B78E3B14FF0DE
:10170000502302220646C3F808234FF05024DFF886
:101710009480D4F81824D4F81834D20315D503F0E3
:101720000303022B01D0012F0FD16DB386F3118873
:10173000BFF36F8FBDE8F081EFF31186202383F3B1
:101740001288BFF36F8F0125DFE7C5B1304602F085
:10175000A8FFD4F81835DBB2012BDAD1D4F8042174
:10176000002AD6D00022C4F80421D4F80421022291
:10177000C4F818252022C8F88021A360C9E70021F9
:10178000212003F06CFEE4E74FF050230222C3F85F
:101790000423CFE774090020640900209409002085
:1017A000850C002000E100E008B5074803F057FD74
:1017B00038B10648FFF73AFD0448FEF7DFFC002089
:1017C00008BD6FF01200FBE704570000D1170000BE
:1017D0000A2838B50446074D04D1AB680D212846C8
:1017E0005B689847AB6803485B68E1B2984720465E
:1017F00038BD00BF04570000F0B545681646A8681C
:101800002A7C01F01F0487B044EA4214002868D003
:10181000B6F5001F04D1214603F003FD002051E07E
:101820000020B6F5800F01AA0190506037D1B3F1C6
:10183000007F14BF052304238DF804300023CDE975
:1018400004230393EB680DF1030723FA01F111F070
:10185000010139D1B6F1A07F36D104F01F0362092E
:1018600003F1800326D0012A3ED1214A52F82330C9
:10187000DB0729D43A462146A86803F065FC1630F8
:101880001AD002972146A86803AA03F029FB002872
:1018900018DB01222146A86803F071FCBEE7B3F112
:1018A000C06F05D0B3F1007F14BF01230223C3E74B
:1018B0000323C1E70F4AD9E73946A86800F0F8FFCB
:1018C0000028DEDA07B0F0BD3A462146A86803F0EA
:1018D0003BFC0028D6D19DF80310A86800F0DEFF7D
:1018E000D0E76FF08500EDE751F82330FFDE00BF51
:1018F00000288450002584504209034670B502D068
:10190000012A17D070BD0D4E326951680029F9D0F7
:10191000012503F01F030C689D400029F2D08A685E
:101920002A4002D030464B6898472CB123682146A4
:101930001C46F2E7024EE7E72346F8E7E4560000CC
:10194000C456000038B54568A86890B103F00FFC94
:10195000014670B9A86800F06FFF044658B9024606
:101960000649A86803F0EDFB224605210D20FFF78C
:10197000C5F9002038BD6FF00400FBE7F91800003E
:101980002DE9F04340F206364768D00648BF4FF0D5
:10199000030C3B7C02EA060658BFC2F3401C87B02A
:1019A00001F01F05B6F5837F144645EA43158DF80F
:1019B00003C044D00DD8062E16D005D8A6B1022EED
:1019C0003FD06FF0150037E0B6F5807FF9D10126E2
:1019D0000AE040F20222964235D0B6F5407F34D07C
:1019E000B6F5007FEDD102260123220303FA01F1AF
:1019F0002DD57B689960B86880BB05F01F036D0921
:101A00002AD0012D73D13C4A02EB830284F4803347
:101A1000D2F80012C3F30043C4F3404444EA430441
:101A200021F4706144EA8C0421F00F0144EA06239A
:101A30000B43C2F80032002007B0BDE8F083072650
:101A4000D2E70426D0E70526CEE70326CCE76303DA
:101A500044BF7B68D960CEE7284AD5E729460DF117
:101A6000020203F071FB14F4403F80460CD129467A
:101A7000B86803F082FBB8F1000FDCD19DF80210CA
:101A8000B86800F00BFFD6E74FF0000901ABCDE9D5
:101A90000199CDE90439CDF80C902946B86803AA1C
:101AA00003F01EFA4845C6DB14F4003314D09DF849
:101AB000033084F48034C4F300448DF80E308DF884
:101AC0000C608DF80D404B462946B86803AA03F018
:101AD000BFFA0028CFDAAEE7CDE904330DF10303F6
:101AE00003932946B86803AA03F0FAF9F1E78033B3
:101AF00050F82330FFDE00BF0028845000258450BA
:101B0000036803F01F025B09026004D0012B034845
:101B100018BF002070470248704700BF002884505B
:101B2000002584502DE9F04F1546824640F2FF19FA
:101B3000DFF8B0B185B000EB8108D04503D10020BB
:101B400005B0BDE8F08FDAF80030C3F3C3210829EF
:101B5000C3F3080400F2C080634A4C45515C4FEA6D
:101B6000136311D0222B1DD94E2B40F0B880C5F83D
:101B70001445012603A80394FFF7C2FF039B06FA4E
:101B800003F38360374654E0222B09D94E2B40F0F3
:101B9000A6804FF0FF33C5F814350AF1040ACCE7EC
:101BA0004FF0FF34222B00F29A80DFE803F0121787
:101BB0001E3621273698989898396398989898985F
:101BC000989898986B76797C9898987F86898C8F6E
:101BD0009200C5F80C45631CCBD1DEE7C5F814456F
:101BE000631CDAD00026002723E0C5F80845F2E799
:101BF000601CC5F80845D0D0002604E0621CC5F87A
:101C00000C45CAD00126012703A80394FFF778FFEB
:101C1000039B07FA03F3C3600BE0C5F81045DFE749
:101C2000C5F808450029DBD1671CB6D0002606217F
:101C30003746DAF80030039403F40040002803A884
:101C40001CBF012600270193FFF75AFF039C019B4D
:101C500000EB8400D0F80042C3F3412C0B0243EAAE
:101C60008C033B4304EA0B04234343EA4603C0F8D6
:101C7000003292E7C5F80C450029D5D0661C8CD0FF
:101C800000267FE7C5F86045601CDAF8003084D094
:101C9000C3F30043002BB5D06BE7C5F86445F3E709
:101CA000C5F86845F0E7C5F86C45EDE7C5F824458B
:101CB000621C3FF472AF012695E7C5F828458AE714
:101CC000C5F83045F4E7C5F83445F1E7C5F83845BF
:101CD000EEE7C5F83C457EE76FF0150030E76FF0A2
:101CE00085002DE7F0F0FCFFF26000002DE9F041E7
:101CF00004460D46476803F042FB4FF0200888B9C0
:101D0000264B1B7873B16426606802F020FEF0B9A0
:101D1000012002F0F7FE013EF6D10021212003F060
:101D20009EFBF0E7EFF31186314688F31288BFF38C
:101D30006F8F606802F00BFEA8B986F31188BFF3BD
:101D40006F8FEFE786F31188BFF36F8FE5E7EFF34F
:101D50001186314688F31288BFF36F8F606802F0F6
:101D6000F6FD0028EED0FB6900201D706368FA695B
:101D70001B68C3F844250122C3F84825C3F8200195
:101D8000D3F82041C3F85801D3F858019A6081F381
:101D90001188BFF36F8FBDE8F08100BF850C002074
:101DA0000123834070B5DC430B4AD2E8EF1F01EA00
:101DB0000405C2E8E65F002EF7D14FF4803282407E
:101DC0000648C0F80823BFF35F8FBFF36F8F0B4245
:101DD00014BF0120002070BD440A002000500150B3
:101DE00070B40E4922F07F46D1E90034D01AC318EE
:101DF00044F10004C1E90034A6F50013B3F5400F27
:101E000009D2074B1B681A0A1B069C19054B42F1A5
:101E10000005C3E9004570BC01F0DCBDA80100204D
:101E2000480A0020B0010020D9B101230D4A8340A7
:101E3000D2E8EFCF4CEA030CC2E8E1CF0029F7D19A
:101E40004FF48033084A8340C2F80433074BD3E889
:101E5000AF3FC340DB0742BF4FF40012044BC3F84F
:101E600000217047440A002000500150400A002021
:101E700000E100E00D4B1868010A0006BFF35F8F18
:101E80000B4BD3F80435181841F10001B3F5801F4E
:101E90000AD2084BD3E90023904271EB030303D22B
:101EA00010F1807041F10001704700BF480A002026
:101EB00000500150B00100202DE9F04F85B01646CA
:101EC0001F4604469DF840A0FFF76AFF0190FFF708
:101ED000D1FFB04271EB070352D23B4B301A67EB94
:101EE0000101984271F100014DD2384B03EB04130C
:101EF000D3E902239F4208BF964258D04FF480385E
:101F0000334908FA04F8204626F07F4BC1F848838D
:101F100002F0DAFD4FF00309584604F15005AD0018
:101F2000ADB205F1502504F5A87305F5803502938F
:101F3000029A20F07F4341F82230C1F84483D1F85F
:101F40000435244AC01A033820F07F4090422ED92D
:101F5000286868B1D1F80435A3EB0B0020F07F406E
:101F6000B0F5000F039322D9204602F0ADFD039B8C
:101F7000BAF1000F07D109EB030009F10109D7E716
:101F8000BAF1000F09D06FF0150520460199FFF74F
:101F90004BFF284605B0BDE8F08F01230E4AA34051
:101FA000D2E8EF0F1843C2E8E10F0029F8D1074942
:101FB0000E982301C8500F9B01EB04120025C2E9C3
:101FC00002675360E1E700BF010080009801002034
:101FD00000500150FDFF7F00400A00207FB5002522
:101FE0004FF0FF304FF0FF31194C1A4B0226C4F866
:101FF0000833C4F84833184BC4F80855C3E9020144
:102000004FF480334FF40012C4F80433134B012112
:10201000C4F804631520C3F880212A46FEF76EFE3B
:102020001520FEF74FFE01230D4AA36023601360C5
:102030000C4B0D4A009328460023CDE90155FFF7CC
:102040003BFF3046FFF734FB284604B070BD00BFAD
:102050000050015003000F009801002000E100E053
:10206000440A0020E11D0000FFFF7F002DE9F74337
:102070002E4BD3F8042390070BD5D3F8042142B19B
:102080000022C3F804212A4AD3F80431136801332B
:102090001360264AD2F80433D90326D5254BD3E85A
:1020A000EF1F21F00100C3E8E40F002CF7D1CB07AC
:1020B00002D4D2F84031C3B100251C4CC4F84051C1
:1020C000D4F84031FFF7D6FEEFF31182202383F3DB
:1020D0001288BFF36F8F184BD3E90267B042B94142
:1020E00006D282F31188BFF36F8F03B0BDE8F0838F
:1020F0004FF0FF38D3E900104FF0FF391D60C3E9FE
:1021000002894FF48033C4F84833C4F84051D4F8FE
:10211000403182F31188BFF36F8F0029E5D0009022
:1021200032463B4628468847DFE700BF0050015053
:10213000480A0020400A00209801002030B5431CC6
:10214000124C85B005D08442A8BF0446012CB8BF0C
:102150000124FFF78FFE0E4B0C4DD3E90013401AFC
:10216000B0F5000F0FD22218AA4228BF2A4600203D
:1021700052180849CDE90100009143F10003FFF72F
:102180009BFE05B030BD2A46F1E700BFFFFF7F0090
:10219000A8010020E11D000008B5FFF76BFE024B0F
:1021A0001B68C01A08BD00BFA80100204FF47F03C0
:1021B000D3F83021D3F83431072A05D1023B032B61
:1021C00002D8024AD05C7047002070470D610000C1
:1021D00008B5FFF7EBFF58B1644BD3F8202A3AB9A2
:1021E0000D21C3F8201A0121C3F81C19C3F81C29BA
:1021F0000022D30003F57F03D3F80013013107D089
:10220000D3F800130132D3F80433202A0B60F0D145
:10221000FFF7CCFF002840F0A080FFF7C7FF40B1D8
:10222000534B544AC3F830254FF050230122C3F8D2
:1022300058254FF47F03D3F83021D3F83431072ADF
:1022400009D1023B032B06D84B4AD35C1BB10022B9
:102250004A4BC3F84C25FFF7A9FF50B14FF050236C
:10226000D3F80024D10742BF0022C3F81421C3F8D9
:1022700018214FF47F03D3F83021D3F83431072AE3
:1022800009D14FF05023D3F80024D20744BF6FF098
:102290000102C3F80024FFF789FF18B16522334B10
:1022A000C3F80C274FF47F03D3F83021D3F834312F
:1022B000072A16D1314BD3F82034002B11DA4FF016
:1022C00050230322C3F8182501229A60D3F8042171
:1022D000002AFBD00022C3F804210122DA60C3F8EF
:1022E00018254FF47F03D3F83021D3F83431072A6F
:1022F00023D1023B032B02D8214AD35CEBB17E22CF
:102300001A4B1B49C3F80C27C3F83C297F231D4AED
:10231000C2F818310023C1F8043EC1F8083E01F5A7
:102320004821C1F81031C2F82431C2F82C3102F52D
:10233000FF1202F58052C2F8A032134AD2F88C3054
:1023400043F44063C2F88C30104A114B1168C3F853
:102350004415D269C3F84C2508BD2922034BC3F8A4
:102360000C270322C3F83C2757E700BF004000506A
:10237000009003504400EFBE0961000000200350AC
:10238000056100000020005000ED00E00080FF002B
:1023900000600050014B1860704700BF4C0A0020DD
:1023A00010B5054B1446186802F0AEFB0028A4BF18
:1023B0002070002010BD00BF4C0A00200123024AFB
:1023C0008340C2F80435704700700150014B002073
:1023D0001B681847500A0020014B1B68184700BFB4
:1023E000500A0020014B09201B681847500A0020A2
:1023F000014B08201B681847500A002010B5144CE8
:10240000237913BB01232371124B0028206018BFCE
:10241000184600F037F8D0B923680F48002B08BFE2
:10242000184600F0B9F890B923680C48002B08BF93
:10243000184600F0F9F850B923680948002B08BF86
:102440001846BDE8104000F063B86FF0770010BD8B
:10245000500A0020CD230000E5230000D92300000E
:10246000F123000008B5064B1B6843B10520FEF7B9
:1024700037FC20B9BDE808400520FEF723BC08BDA5
:10248000500A0020074B0246187938B91A60012219
:102490001A714FF05023C3F8142570476FF077007E
:1024A000704700BF580A00204FF050230022C3F8A5
:1024B0000021D3F80021012208491A60096811B1EE
:1024C000C3F804237047D3F80021002AFBD0002270
:1024D000C3F80021D3F80031704700BF580A00202C
:1024E0004FF05023D3F80423D2070DD5D3F80021A1
:1024F00052B10022C3F80021D3F800210122C3F811
:102500000823024B1B681847704700BF580A002079
:10251000054B0246187918B91A6001221A717047E2
:102520006FF07700704700BF600A00204FF0502323
:102530000022C3F82021D3F8202101229A61094A00
:10254000126822B14FF48072C3F804237047D3F8A5
:102550002021002AFBD00022C3F82021D3F820310B
:10256000704700BF600A00204FF05023D3F80423C7
:10257000D2050ED5D3F820215AB10022C3F820216C
:10258000D3F820214FF48072C3F80823014B1B6855
:1025900018477047600A0020074B0246187938B97F
:1025A0001A6001221A714FF05023C3F8802570473A
:1025B0006FF07700704700BF680A00204FF050238B
:1025C0000022C3F82421D3F8242101221A62094AE7
:1025D000126822B14FF40072C3F804237047D3F895
:1025E0002421002AFBD00022C3F82421D3F824316F
:1025F000704700BF680A00204FF05023D3F804232F
:1026000092050ED5D3F824215AB10022C3F8242113
:10261000D3F824214FF40072C3F80823014B1B6840
:1026200018477047680A0020074B0246187938B9E6
:102630001A6001221A714FF05023C3F81825704711
:102640006FF07700704700BF700A00204FF05023F2
:1026500010B5D3F818141E4C11F4803FD3F8182489
:102660001AD002F00302022A04D0012A01D002F09B
:1026700011FB01224FF05023C3F818250022C3F8A4
:102680000421D3F8042101229A6022688AB9D3F880
:102690000421002AFBD014E0D3F81424D207E8D593
:1026A000D3F81C2402F00302013A012ADFD8226881
:1026B0001AB10222C3F8042310BDD3F80421002A62
:1026C000FBD00022C3F80421D3F80431F4E700BFA3
:1026D000700A0020F8B54FF0502301250026D3F8EA
:1026E0000443184F04F0820404B9F8BDB4FA84F02E
:1026F000C0F11F00830003F580739BB203F15023E8
:10270000196805FA00F224EA02040029ECD01E60E0
:102710001B684FF050230128C3F808230ED1D3F8CB
:102720001824D3F8182402F00302012A06D102214A
:10273000C3F81815C3F804139A60D5E73B68C0B214
:102740009847D1E7700A0020036803F01F025B0975
:10275000026004D0012B034818BF002070470248D4
:10276000704700BF0028845000258450034A430965
:10277000D35C00F01F001844C0B270471161000024
:10278000034611F0010010B5CCB20BD1A207C4F37F
:1027900040000DD5074A106A58601062003818BF13
:1027A000012005E004490A6A1A600A62002AEDD095
:1027B00010BD00BF0028845000258450F7B50446A2
:1027C0000846FFF7D3FF06B204EB4606B38A0D4670
:1027D000DB072BD5204602F060FB2946204602F09D
:1027E000CCFA58B1204602F0DEFA0022276800B287
:1027F00007EB8003C3F81025C3F8102529462046AF
:1028000002F0FAFA002101A8B1820195FFF79CFFBE
:10281000019B00EB8300D0F80022064B134043F0ED
:102820000203C0F80032084603B0F0BD6FF0150097
:10283000FAE700BFF0F0FCFF70B590F88C40054659
:1028400090F88D6024BB21466022143002F07EFE99
:102850002146114B286853F836608E420ED1002471
:10286000C0F87C41D0F87C3140F30730FEF72AFAFB
:102870000123204685F88C30AB6770BDCBB29B003E
:1028800003F580727C2B04BF845083580131E4E748
:102890006FF07700F1E700BF085B000090F88D0053
:1028A000024B03EB800002F049B900BFC8000020D2
:1028B00010B5064B90F88D000C4603EB800002F03B
:1028C00023F90028A4BF2070002010BDC8000020FC
:1028D0002DE9F04F814659F804BB90F88D40DBF8A4
:1028E00004136B4BC9B2804653F8342058468BB062
:1028F00041F0004102F0AAFA051E36DA0023CDE9C4
:102900000833634B08A803EBC4035B6819460193C3
:10291000FFF736FF042303EBC40303935D4B0DF174
:10292000200A02930023029A009312F8013B5849AF
:102930000292039A02EBD3028A5C03F0070322FAA5
:1029400003F3DA0719D4009B0AF1040A9BB14FF094
:1029500000410022584602F079FA019908A8FFF7D1
:102960000FFF0028DAD125F000450124002D78D191
:102970000BB0BDE8F08F0123D5E7009B464A134416
:102980000493DAF800100029DDD091FAA1F1B1FA30
:1029900081F1049B1C7841EA44142046FFF7E6FECF
:1029A00008EB4000878AC808BB08059301231AF882
:1029B000002001F0070103FA01F122EA01020AF8FE
:1029C000002007A80794FFF7BFFE079A059B8032F7
:1029D00050F82220C7F382065B073746C2F3014254
:1029E00023D54846D6B221463A4602F0E6F907A872
:1029F0000794FFF7A9FE079B803350F82330C3F3F9
:102A000001439E4207D10021204602F0A7F931463A
:102A1000204602F0A3F907A80794FFF795FE0122CC
:102A2000079B02FA03F30362ABE7022A0DD10321ED
:102A3000204602F093F906F00503012BEBD13A464C
:102A40002146484602F0B9F9E5E702212046059201
:102A500002F084F9032EF2D0059A032ADBD1022E6C
:102A6000ECE795FAA5F3B3FA83F304FA03F225EA47
:102A7000020503F5A2725BF8222008EB43034846E7
:102A8000B3F87C10C2F3014202F097F96EE700BF81
:102A9000085B0000216100002161000038B5EFF300
:102AA0001185202383F31288BFF36F8F064B9C6838
:102AB00002F0E8FB85F31188BFF36F8F2046BDE875
:102AC0003840FEF7A3B800BF780A002038B50A4B9B
:102AD00053F82040013053F82050A54200D838BDAB
:102AE000606830B1037FDB0701D402F0A0FB08343B
:102AF000F3E723689847FAE7185B0000012270B5F6
:102B00002A4B032086B01A70FFF7E0FFFEF70AFC9D
:102B1000FDF780FC0420FFF7D9FF254C254D264604
:102B2000AE4204F1300410D300F056FC204C224E8B
:102B3000AC4226D300F064FCFDF70CFB1F4A137B6C
:102B400023F00103137306B070BD54F80C3C0593D9
:102B500054F8103C049354F8143C039354F8183C74
:102B6000029354F81C3C019354F8203C009354E920
:102B70000A2354E90C0100F025FA54F8303C5E6554
:102B8000CDE7D4E90A23B3F1FF3F08BFB2F1FF3F1D
:102B900005D052EA0301206803D100F0EDFC303487
:102BA000C6E73146183000F085FEF8E7850C0020B6
:102BB0004C5900004C590000575400006802002096
:102BC000B02370B5144E86B003FB0066134B012290
:102BD00005930F23CDE903320023CDE901331423FC
:102BE0004FF4A0720E4D0F4903FB0055044602FB43
:102BF00000110D4B3046009500F0E4F9737B2C7406
:102C000023F004037373094B013403EBC423EE6018
:102C10006B6006B070BD00BFB801002023610000EA
:102C2000780A0020881400204B530000880C0020F4
:102C3000BFB50020FFF74AFF294B03F5006282F37E
:102C4000088883F30A880024E023264D264F85F860
:102C50002230EC772C766C76AC7685F820406B6A67
:102C600043F4E0236B6285F82340FDF749FFFEF74C
:102C7000BBF84FF0FF33AB62EB62FEF741FAFEF7B1
:102C8000D7F81A4800F004FAFEF72EFB0120FFF7F0
:102C90001DFF0220164DFFF719FF00F0E5FB154B55
:102CA00015495D61154B4FF4806205930123284659
:102CB000CDE90343CDE901443B46009400F082F99D
:102CC00006466A7B284622F004026A7302F097FBEC
:102CD0002046FFF775FF3A4631462846FEF762F870
:102CE000880C002000ED00E0FD2A00001803002001
:102CF00068020020780A0020C81500202861000022
:102D0000002038B5054C064DAC4200D338BD2046F6
:102D100002F0BBFA0028F9DB1C34F5E7440100207F
:102D20004401002073B50C46EFF31181202585F393
:102D30001288BFF36F8FC5685DB125602B68C360D3
:102D4000836901338361002081F31188BFF36F8FA2
:102D500011E052EA030603D16FF00B002560F3E7A0
:102D6000CDE900230246083000F07CFA18B9034B85
:102D70009B681B69236002B070BD00BF780A002009
:102D80002DE9F341044617461E46EFF31188202330
:102D900083F31288BFF36F8FC368334A7BB18068B7
:102DA0009168884219D057EA060318D188F3118830
:102DB000BFF36F8F6FF00F0002B0BDE8F081916834
:102DC00091F90E100133E36093682161A36088F3E9
:102DD0001188BFF36F8F0020EEE72169F2E791F9C8
:102DE0000E1090F90E306FF07E029942A8BF19467E
:102DF0009142B8BF11468B422DDD02F0B1FA054673
:102E000022464146CDE90076184800F02BFA00280A
:102E1000E1D0EFF31186202383F31288BFF36F8F85
:102E2000A068D0B1236821699C420AD04BB193F9C4
:102E30000E309942A8BF19466FF07E039942B8BF81
:102E4000194602F08DFA40B13146084800F09EFA6A
:102E50006FF00A00B0E70025D2E7002DF4D186F329
:102E60001188BFF36F8FF3E7780A0020860C0020EB
:102E7000F8B583680546002B40D0234A92689342F8
:102E80003FD1C368012B03D9013BC3600020F8BDCB
:102E9000EFF31187202383F31288BFF36F8F01694B
:102EA000806802F05DFA2C68A54207D10023C5E9CD
:102EB000023387F31188BFF36F8FE7E7002CF5D05B
:102EC000D4E90032002613605A60637BC4E90066CF
:102ED00023F002036373A66004F1180002F0FDFA08
:102EE000AC6094F90E3020462B61C4F8AC6002F05F
:102EF00086FA3946054800F049FAC7E76FF0150031
:102F0000C5E74FF0FF30C2E7780A0020860C0020AA
:102F100070B5EFF31186202383F31288BFF36F8F10
:102F20000468A0421BD0D4B1D4E90032002513605C
:102F30005A60637BC4E9005523F002036373A56004
:102F400004F1180002F0C9FA2046C4F8AC5002F0AF
:102F500056FA3146BDE87040064800F017BAD0E98D
:102F600002329A4218BF0133836086F31188BFF39F
:102F70006F8F70BD860C002013B5EFF311812024F4
:102F800084F31288BFF36F8F846844B1013C84607E
:102F900081F31188BFF36F8F002002B010BD52EA99
:102FA000030406D181F31188BFF36F8F6FF00F0018
:102FB000F3E7CDE900230246014800F053F9ECE7BE
:102FC000860C00202DE9F04F984685B000F158039B
:102FD000C0E91633129B002503730423D61D26F087
:102FE00007064373119B01EB060A0F46C0E906551D
:102FF000514685608373C5730446DDF838B0DDF84B
:103000004C90FDF76FFB109B073020F00700C4E9E0
:103010002576C4F89C0002930F9BAAEB0006CDE92D
:1030200000B33246434639462046FDF79FFE0F9BCC
:10303000C4E9188BA366109B6565E366EFF3118303
:10304000202282F31288BFF36F8F104F3A6A3C62DE
:10305000226783F31188BFF36F8FB9F1000F11D08E
:103060001F22494604F1740002F078FA84F8935064
:10307000BB680BB1D3F8A0303046C4F8A03005B01F
:10308000BDE8F08F84F87490F2E700BF780A002062
:1030900040F2011383810023C0E92533C0F8A0303A
:1030A000014B9860704700BF780A00206FF00A015A
:1030B000094A9368C3F8AC100849C3F8A8004B68E4
:1030C00043F080534B60002383F31188BFF36F8F6D
:1030D0009368D3F8AC007047780A002000ED00E058
:1030E00070B590F90D20437B002A36DBD90634D128
:1030F0001B4C63F07F032246437352F8183FE1698B
:10310000934207D1C0E900210860E06111E09942D3
:10311000F8D01B68002BF5D090F90E5093F90E6093
:10312000B542F4D0AE42F2DD5968C0E90031086022
:103130005860A569954200D005B9E568A3685A7B37
:10314000D20604D1DA897F2A01D9AA6932B1AB4209
:1031500002D0284600F00AFB656170BD6361FCE7A0
:10316000780A002038B590F90D200146002A437BEB
:1031700004DA03F07F03437302F007F90D4D2A468A
:1031800052F8184FAB68944200D004B9EC688B42F7
:1031900007D05A7BD20604D1DA897F2A01D9A269E5
:1031A0002AB1A34202D0204600F0E0FA23466B6128
:1031B00038BD00BF780A0020B3F1FF3F08BFB2F16D
:1031C000FF3F03D00249183000F074BB704700BFC6
:1031D0005754000070B590F90D200146002A437B3A
:1031E00004DA03F07F03437302F0CFF81C4C4B7BEF
:1031F000224663F07F034B7352F8183FE069934215
:1032000007D1C1E900200160E16111E09842F8D0E6
:103210001B68002BF5D091F90E5093F90E60B54262
:10322000F4D0AE42F2DD5868C1E900300160596067
:10323000A569A368954200D005B9E5688B4207D01F
:103240005A7BD20604D1DA897F2A01D9AA692AB128
:10325000AB4202D0284600F089FA2B46636170BD6C
:10326000780A0020F8B5DDE906670D4B0C46986832
:1032700011460C4A1060EFF31182202282F312886B
:10328000BFF36F8F9D68284602F091F828463246BA
:103290003B46FFF791FF2046BDE8F840FFF706BF29
:1032A000780A00209C0A0020F8B50446EFF3118745
:1032B000202383F31288BFF36F8F437B49B203F05F
:1032C0001F02002A0CBF0126002639D103F07F031C
:1032D0002D4D437302F059F82A46437B817363F006
:1032E0007F03437352F8183F934227D1E869C4E93A
:1032F00000200460EC610FE09842F8D01B68002BBE
:10330000F5D093F90EC06145F6D08C45F4DD5968CF
:10331000C4E900310C605C60AC69944200D004B92F
:10332000EC68AB689C4202D0204600F01FFA6C614A
:1033300087F31188BFF36F8F3046F8BDE869DEE789
:103340009B071ED5856802F020F881732B689D428B
:1033500009D16B68C4E900531C606C60E8E76A68D7
:103360009342F6D01B68002BF3D093F90E209142C4
:10337000F5D08A42F3DD5A68C4E9003214605C601B
:10338000D6E78173D4E700BF780A002049B9EFF38C
:10339000058030B9054B5A699B689A4201D0FFF706
:1033A00085BE81F31188BFF36F8F7047780A0020C4
:1033B000034648B9EFF3058232B9064A516992686B
:1033C000914201D0FFF772BE83F31188BFF36F8F74
:1033D000704700BF780A0020EFF31181202383F3A8
:1033E0001288BFF36F8F054B9A68D37B013BD37371
:1033F00081F31188BFF36F8F704700BF780A0020F8
:1034000070B5EFF31186202383F31288BFF36F8F1B
:10341000144DAB68DA7B0132DA732A4652F8184F42
:10342000944200D004B9EC685A7BD20604D1DA8900
:103430007F2A01D9A2692AB1A34202D0204600F016
:1034400095F923466B6186F31188BFF36F8FEFF315
:103450001180202383F31288BFF36F8FBDE8704083
:10346000FFF7A6BF780A0020024B03F11802C3E958
:1034700006227047780A002070B5EFF311862023EA
:1034800083F31288BFF36F8F1B4CA168E0690B6850
:10349000814214BF1A46002249680B605960A36834
:1034A000E1692AB9154AC3E900210B60E3610CE028
:1034B00093F90E0092F90E50A84218D0854216DDFD
:1034C0005168C3E900210B605360A5690B4B9D4215
:1034D00000D005B9E568A3689D4202D0284600F0F7
:1034E00045F965613046BDE87040FFF7DFBD8A42AF
:1034F000D8D01268D5E700BF780A0020900A0020D3
:10350000F8B550EA010306460C4603D1FFF7B4FFB5
:103510000020F8BDEFF31187202383F31288BFF357
:103520006F8F124D124BA8681860FFF71BFEA8683A
:10353000234632460F49183000F0BCF9AA68044609
:10354000537B384643F004035373FFF7AFFDAB687A
:10355000D3E90A23B3F1004F08BF002AD8D101F004
:10356000E4FF201A20EAE070D3E700BF780A0020C9
:103570009C0A00205754000038B50446EFF311852B
:10358000202383F31288BFF36F8F437B5B070FD534
:10359000183001F0A2FF637B204623F0040363731D
:1035A000FFF79EFD2946BDE838400448FFF7EEBE10
:1035B00085F31188BFF36F8F38BD00BF860C0020E4
:1035C000014B9868704700BF780A00202DE9F84346
:1035D0000446077BEFF31185202383F31288BFF3A2
:1035E0006F8F437B190705D585F31188BFF36F8F64
:1035F000BDE8F883D90943F0080260D14273A3689B
:1036000013B1204601F0C9FE04F1180001F065FF76
:10361000A66D04F15808B04511D04FF0000976B1FD
:10362000304601F0BAFE06F1180001F056FF3046B0
:10363000C6F8AC90FFF754FDA66DB045EFD1DFF8AA
:10364000C480D8F808309C4241D1EFF30589B9F124
:10365000000918BF4FF00109D8F818602A4A9642AD
:1036600000D00EB9D8F80C60B34202D0304600F05A
:103670007DF82046C8F8146000F0F0FF204600F006
:10368000CDF8B9F1000F02D02048FFF701FDD8F8BE
:1036900008309C4231D1EFF3058373BB227BD20704
:1036A00018D42846FFF702FDFB07A1D5002383F3BA
:1036B0001188BFF36F8F0423184602DF98E703F0E9
:1036C0007F0343F00803437301F05FFE97E74FF079
:1036D0000009C1E785F31188BFF36F8F83F3118869
:1036E000BFF36F8F0423184602DFEFF3118020230E
:1036F00083F31288BFF36F8FD4E785F31188BFF38C
:103700006F8FD1E7780A0020900A0020180300206C
:103710000122044BC01A044BC0105843034B1A54E7
:10372000704700BFC8030020ABAAAAAA860C0020DD
:10373000C3897F2B12D80A4B1B6863B1094B90F9E0
:103740000E201B689A4209DB437BDB0606D1064B41
:10375000C31A18BF012303F0010070470023FAE7E2
:10376000D0000020A00A0020B801002070B50E4B48
:103770000E4C1E7C054606EB460304EBC3042046B4
:1037800001F0ABFE00220A4B28469A55FFF7D0FF06
:1037900048B1084B2046BDE870401A680649013A16
:1037A000D31700F087B870BD780A0020C803002046
:1037B000860C0020D00000201137000038B5EFF350
:1037C0001185202383F31288BFF36F8F104B114AAA
:1037D0009C681068A04206D1FFF7C8FF85F31188E6
:1037E000BFF36F8F38BD00211B7C11600A4AD35C88
:1037F000002BF3D02046FFF79BFF0028EED0637B21
:10380000DB0602D12046FFF7E5FC2046E4E700BFD7
:10381000780A00209C0A0020860C0020EFF311811A
:10382000202383F31288BFF36F8F0A4A136A8342FF
:1038300007D11B6F136281F31188BFF36F8F70473D
:103840001346002BF7D01A6F8242F9D1026F1A6724
:10385000F1E700BF780A0020024B1868984208BFC1
:1038600000207047D4000020034B1B680BB9FEF703
:1038700093BC0020704700BFA40A002030B570B18F
:103880000B4B5B6898420AD0036843B1D3E904212B
:10389000D0E90445121941EB0501C3E90421D0E93F
:1038A000003213605A600023C0E9003330BD00BF0E
:1038B000D4000020B3F1FF3F08BFB2F1FF3F2DE974
:1038C000F84F0446994615461F467AD08160EFF3BB
:1038D0001188202383F31288BFF36F8FB9F1000F93
:1038E000DFF8E4A020DBFFF7BFFFDAE900270135AE
:1038F00049F100092D1849EBE07306464FF0010924
:10390000C4E90453AD1843EB0707FFF7A5FF0346CF
:10391000DFF8B8E0DEF804A0EBB9C4E900EACAF8C1
:103920000040CEF8044028E06FF00103DAE900120D
:103930005B1A4FF0FF3161EB02025B1B62EB090285
:10394000012B72F10001BCBF012300224FF00009DE
:10395000C0E90432D9E7D3E9041CD4E904208A423F
:1039600070EB0C0B24DA891A5A686CEB0000C3E97F
:103970000410C4E9003214605C60FFF76DFF8442FC
:103980000ED1134B1B685BB9B9F1000F02D1FFF7E1
:103990006BFF0646304601F089FD0021FEF7CEFBA5
:1039A00088F31188BFF36F8F28463946BDE8F88F3A
:1039B000521A60EB0C009A45C4E90420ADD01B6894
:1039C000AAE700252F46EFE7E0030020D4000020FF
:1039D000A40A00202DE9F047EFF31185202383F39B
:1039E0001288BFF36F8FDFF8A0900026C9F800009F
:1039F0000027FFF731FFDFF89480D9F80030D8E9CD
:103A000000ECD91750B1D0E90442A34271EB020A8D
:103A10001BDAE41A62EB0102C0E90442002413EB52
:103A20000E034CEB01012046C8E90031C9F8004003
:103A300001F03CFD2146FEF781FB85F31188BFF3C1
:103A40006F8FBDE8F047FFF7B9BE14EB0E024CEBE9
:103A5000E473C0E90467C8E90023FFF70FFF85F3AB
:103A60001188BFF36F8F83689847EFF31185202388
:103A700083F31288BFF36F8FD9F800301B1BC9F88E
:103A80000030FFF7E9FEB8E7A40A0020E0030020B9
:103A900010B5EFF31184202383F31288BFF36F8FE7
:103AA000FFF7E2FE0346054AD2E90001181841EB90
:103AB000E37184F31188BFF36F8F10BDE003002022
:103AC00010B50A4C23681BB101232360002010BDF0
:103AD00000F0F4F80028F7D00138072803D8044B89
:103AE00053F8200010BD034810BD00BFA80A0020F5
:103AF000305B0000FE8FFFFFBFF34F8F0549064B81
:103B0000CA6802F4E0621343CB60BFF34F8F00BF7B
:103B1000FDE700BF00ED00E00400FA0530B44FF00F
:103B2000FE3200250B4B0C4C0C494968C3F80024AD
:103B3000C3F80424C3F80824C3F80C24C3F81024E1
:103B4000C3F81424C3F81824C3F81C24C4F800557F
:103B500030BC08470050845000408450DC000020F6
:103B6000024BD0E90012C3E900127047DC000020CC
:103B700010B5044650B1636813F0685F05D0064A7B
:103B8000934202D000236260236010BD034B0448BF
:103B90005B689847EFE700BF2C5F5CA9DC00002062
:103BA000505B0000C8B143680D4A934213D013F034
:103BB000685F0ED0012350E8002F194640E8001C32
:103BC0009CF0000FF7D1012AF5D0BFF35F8F0020E2
:103BD000704704487047044870476FF4E0407047EE
:103BE0002C5F5CA9E98FFFFFEA8FFFFF034680B1DE
:103BF000426809498A420AD012F0685F05D0BFF3D3
:103C00005F8F002210461A607047044870470448CE
:103C100070476FF4E04070472C5F5CA9E98FFFFFAD
:103C2000EA8FFFFF10B5044620B10023034A23604A
:103C3000626010BD0248FFF771FFF6E73A00003AF4
:103C4000785B000070B5194CD0F804C00668C4F861
:103C500004C0D0F808C0C068C4F808C0E06026609E
:103C60000868134B134D18604868D5F81821586040
:103C7000886812F0685F9860C8680969D86019613F
:103C800012D000230C4A05F58A70C5F81431C5F826
:103C9000B831C5F81821C5F8BC21B047236805F52F
:103CA000DC70BDE87040184770BD00BFF800002010
:103CB000E4000020C00A00202C5F5CA908B500F0D9
:103CC00011F830B900F010F838B9054AC2F80C0AFA
:103CD00008BD00F037F8032008BD042008BD00BF70
:103CE000005084500020704710B5114800F048F88B
:103CF00000B110BD0F4800F043F80028F9D10E4C78
:103D0000204600F03DF80028F3D10C4B0C481C6015
:103D100000F036F801460028EBD100F02DF80446FB
:103D200008B1204610BD00F03FF82046FAE700BF7A
:103D3000380100203401002030010020280100203B
:103D40002C01002008B5084800F024F8074800F0CE
:103D500021F8074800F01EF8064800F01BF8BDE8FF
:103D6000084000F00BB800BF3801002034010020EB
:103D7000300100202C01002000207047704700BF58
:103D800008B5034B02681B6810689847002008BDFF
:103D9000F800002008B5034B02685B68106898477C
:103DA000002008BDF800002070B5094C094D2069BD
:103DB000AB68984718B1084B08485B6898470021E2
:103DC000074AEB6811602069BDE87040184700BFE2
:103DD000E4000020F8000020DC0000209C5B0000D4
:103DE000BC0A00202DE9F04F43688DB0154680468F
:103DF000029383789A0740F10D8100240E78002EFB
:103E000000F00A81252E0BD04B1C03930134414650
:103E10003046029B98470028C0F2F6800399EDE7F0
:103E20004E788B1C252E0393F0D00027B946BB4655
:103E3000BBF11F0F38D8A6F12003102B0AD8DFE8FA
:103E400003F02A0909300909092109090928092D5E
:103E500009091F00A6F13003092B33D92A2E37D1C7
:103E60001BF0400F55F8043B40F08280002BA7BFA9
:103E70004BF0200B9946C3F100094BF0280B01E0F1
:103E80004BF0010B039B13F8016B0393002ECFD172
:103E900030E04BF0020B4BF0040BF3E74BF0080B58
:103EA000F0E74BF0100BEDE7BBF17F0F19D8A6F14F
:103EB0003003092BD2D81BF0400F03D00A2101FB9D
:103EC0000737DFE70A214BF0200B01FB0939D9E75F
:103ED0002E2E06D11BF0400F40F09E804BF0400B81
:103EE000D0E76C2E31D02BD8682E36D06A2E3CD03D
:103EF0004C2E3AD0002F46F02003B8BF2BF04002E2
:103F0000A3F16501BCBF00271FFA82FB022901D97A
:103F1000612B2FD107350727DFF8ACA225F0070565
:103F200008351BF0080F66D00AEB070B56465E45B6
:103F300063D1A4EB0A0AA9EB070906EB0A026FE1B9
:103F4000742E9FD07A2E9DD0D4E71BF0800F18BF1F
:103F50004BF4007B4BF0800B94E71BF4807F18BF81
:103F60004BF4007B4BF4807B8CE74BF4207B89E7A0
:103F70001F4687E7A6F16301122900F2F080DFE80F
:103F800011F013004F00EE00EE00EE00EE004F00C7
:103F9000EE00EE00EE00EE00EE00FE00E900EE00A6
:103FA000EE001B00EE00AF0055F8043B01270DF1B9
:103FB000180A8DF81830B4E755F804AB834BBAF102
:103FC000000F08BF9A461BF0400F504614BF3946F9
:103FD0004FF0FF3101F0D2FA0746A2E74146202018
:103FE000029B984700280FDB013EB742F6D34C44B2
:103FF000B146A41B98E74E46F7E7414616F8010B79
:10400000029B9847002892DA98F8023043F00403A4
:1040100088F802304FF0FF3420460DB0BDE8F08F35
:104020001BF0800F34D01BF4007F2CD0073525F017
:104030000705AA4669685AF8080B2BF010050029F5
:10404000ADB237DA404245F4806561EB41010DF1D4
:10405000180B0A235A4601F09DFAA0EB0B030193BB
:104060006B0662D5019B25F001019F4289B240F3A6
:10407000A180002E00F0998015F0100240F09C8085
:10408000BB460D4623E0AA465AF8040BC117D4E7F5
:10409000AA461BF4807F5AF8041B01D10846F5E7B5
:1040A0001BF4007F19BF48B241F3C01108B241F3BD
:1040B000C031C2E750EA0103C9D11BF0400FC6D09E
:1040C000002FC4D12BF01102BB46019795B240F2EC
:1040D000064115EA01021CBF0BF1010B00222CE086
:1040E0002BF010020A231FFA82FB1BF0800C49D030
:1040F0001BF4007115BF0735AA4625F007055AF8CD
:10410000040B1EBFAA4669685AF8080B50EA01055D
:1041100045D12BF016051BF0400FADB242D0002F59
:1041200040D12BF01702019795B215F0100248D03C
:10413000019B002E42D103F1010B29075AD4EB0752
:1041400006D5D9456FDDA9EB0B030199CB465F1866
:104150005B4649E04BF0100B10237826C5E7782B1F
:1041600004D1C6F1780343F01003BEE74146252091
:10417000029B98470028FFF647AF023447E6082322
:104180000026B2E7AA461BF480715AF8040BBDD092
:104190001BF400711ABFC0B2614680B2B6E72BF0C3
:1041A000060295B20DF1180B54E725F01105BB4638
:1041B000ADB28CE70D46B8E73B460D4603F1020B66
:1041C000BBE7DDF804B082E7346100002D61000038
:1041D000CDE9043241462020029B98470028FFF693
:1041E00013AF049B059A01339945F1DCA4EB0B0155
:1041F0009B46CC180AB341463020029B98470028C2
:10420000FFF602AF8EB901342744391B019B994256
:1042100024DC1D4655BB019AA9EB0B0955462244E7
:104220001446914433E0019F92E702344146304600
:10423000029B98470028E7DAE6E640F206410D4285
:10424000E2D015F0020F04F10104414614BF2B2007
:10425000202015F4806F18BF2D20E9E7414630205B
:10426000029B013498470028CFDACDE606AB013D2A
:104270004146585D029B98470028CBDAC4E6414688
:104280002020029B013498470028FFF6BDAEA9EB21
:104290000403002BF3DCC1E57047836800EBC10128
:1042A000B3F5004F2CBF51F8220031F812007047CF
:1042B00000EBC1018068B0F5004F2CBF41F82230FF
:1042C00021F812307047012208B5FFF7E6FFD04011
:1042D00008BD836800EBC101B3F5004F08D34B68FC
:1042E0001AB143F001034B60704723F00103FAE772
:1042F0004B881AB143F001034B80704723F0010350
:10430000FAE753000122FFF7D3BF8368481CB3F5D7
:10431000004F34BF042308230833A0EBD300B0FAC6
:1043200080F0C0F11F0070472DE9F0410D4686680E
:104330000446FFF7C8FFB6F5004F014601D3012838
:1043400032D02046FFF7E1FF04EB80010E6996B9F9
:104350000122E36882401343E36002220D612B4691
:1043600029462046FFF7A4FF032229462046BDE840
:10437000F041FFF79DBF022231462046FFF78DFF37
:104380000746034629462046FFF792FF032233469D
:1043900029462046FFF78CFF39462B462046FFF77B
:1043A00087FF02223146E1E7BDE8F081B2F5802FB8
:1043B0002CBF082304232DE9F0410026D21A8C18C3
:1043C000CD1D25F0070524F00704641BE4080560F3
:1043D00021462846AC60EE60FFF797FF421D920031
:1043E000013002F107074FEAD7073146A2F1100268
:1043F00005F11000B8BF324601F0A8F83A46314640
:104400002846FFF77EFF3346324631462846FFF7FF
:104410004FFFA4EB0708284631460122FFF759FF5A
:1044200042463946FFF76DFF3B463246394628463D
:10443000FFF73EFF21462846FFF763FF434632461B
:1044400021462846FFF734FF214628460122FFF780
:1044500040FF3946BDE8F041FFF766BF00207047D6
:104460000FB407B504A951F8040B0191FBF78CFEBA
:1044700003B05DF804EB04B07047038B13F007033F
:1044800005D10368002B0CBF002003207047022BCE
:1044900005D1408BB0FA80F0400980007047012BB5
:1044A00005D10368002B0CBF0020052070470020B9
:1044B000704710B50C4600B111B96FF0150010BD72
:1044C000081D00F093F80028F9D1A368032BF6D952
:1044D000F3E72DE9F0410D4607461946281D9046A1
:1044E0001E4600F094F8044638B133464246294649
:1044F0003846A446BDE8F0416047BDE8F08110B4FD
:10450000EFF31182202484F31288BFF36F8F41618F
:1045100010BC0121FBF76ABE38B50C46054658B100
:1045200051B10B6843B14B6833B11C22002101F03B
:104530000DF800202C6138BD6FF01500FBE770B559
:1045400005460E46FFF7B5FF041E14DBEFF311829C
:10455000202383F31288BFF36F8F4FF6FF716B8BAD
:104560002C8B8B4204F0070407D182F31188BFF330
:104570006F8F6FF00A04204670BD022C0CD10133FE
:104580006B8382F31188BFF36F8F0023224631467D
:104590002846FFF79EFFEEE7062C14D8DFE804F06C
:1045A00004131313041A0400002333606B683BB92F
:1045B000C5E90066ACB902212846FBF717FEDAE729
:1045C0001E606E60F6E782F31188BFF36F8F6FF0A5
:1045D0000404D0E782F31188BFF36F8F6FF0850476
:1045E000C9E782F31188BFF36F8FC4E7034658B160
:1045F000426802F00302012A03D0032A04D10268B0
:1046000012B10020986070476FF015007047426843
:10461000034602F00302032A4FF00002816014BF38
:10462000104600685A6070477047FEE700F08EBF82
:1046300000F07FBF01460068FCF720B808B5FCF722
:104640004DF8BDE80840FCF76DB800210120FCF7EB
:1046500015B8D0F8943083F30B8870476FF085005D
:10466000704761B662B680F31188BFF36F8F7047F1
:1046700008B572B6002383F31188BFF36F8FFCF780
:1046800001FE50B1BFF34F8F30BF00BF00BF00BF6E
:1046900000BF00BF00BF00BF00BF62B6BFF36F8F97
:1046A00008BD10B5044672B6002383F31188BFF32A
:1046B0006F8FFCF7E7FD50B1BFF34F8F20BF00BFF6
:1046C00000BF00BF00BF00BF00BF00BF00BF84F33A
:1046D0001188BFF36F8F62B610BD40E800F313F48A
:1046E000803FD8B208BF6FF01500704730B50C6836
:1046F0004B6885B00A894D890094013B24F01F0462
:10470000234402F01F0242EA451223F01F036946C8
:104710008DF808200393FCF7C1FB05B030BD08B548
:10472000FCF77CFD002008BD4FF05023012270B53E
:104730000C460546C3F814260020FCF725FE284643
:104740002346BDE87040002118470C220369C9B216
:1047500001FB0233986F00F00700704770B5C9B2D3
:104760000369EFF31185202484F31288BFF36F8F60
:104770000C2606FB0134A46F14F0C00408D0A2423A
:1047800006D085F31188BFF36F8F4FF0FF3070BDF7
:10479000012206FB01339A6785F31188BFF36F8FFF
:1047A000436803EBC1035B6898470020EFE7802272
:1047B000FFF7D4BFF8B5069F0469C9B2EFF31186BD
:1047C000202585F31288BFF36F8F0C2505FB01446C
:1047D000A56F05F0070CBCF1010F0CD1A76786F39C
:1047E0001188BFF36F8FC4E91C23436853F831303D
:1047F00098470020F8BD05F0C005AF4286F3118848
:10480000BFF36F8F0CBF6FF077004FF0FF30F1E711
:1048100013B580240094FFF7CDFF02B010BD10B493
:104820001C240069CBB203FB0400002110BC10471C
:10483000032000F0B0B9022000F0ADB9032000F071
:10484000B9B9022000F0B6B91046FEF761BB00F01E
:104850003ABAFDF7FBBE436800205B681B690B603A
:104860007047436802EA01005B6821EA0201986030
:104870000020D9607047436800205B6899607047EA
:10488000436800205B68D960704743685A68536882
:1048900021EA03000B4090600020D360704710B500
:1048A00003695868F8B1884219D19C680868A14228
:1048B000586000D19860002008602AB15A680A60E8
:1048C0009A68596002B99960002010E0814206D1CF
:1048D0000868206098688142EDD19C60EBE704464F
:1048E00000680028F2D1002AE8D16FF0150010BD51
:1048F000FDF7EEBF30B543681360057A446804EBFA
:10490000C504A34202D36FF0010030BD5C798C4234
:1049100001D00833F0E70020F7E743681B68D3F8BD
:104920008004C3F88004704742681368D3F810010C
:1049300050B10020126A12780A70C3F81001D3F83F
:10494000102101221A6070474FF0FF307047026853
:104950000346D2F8580140B95B68DB0706D4D2F8A9
:104960002001003818BF01207047012070474368BC
:104970001B68D3F80423D20517D5D3F82021A2B1A0
:10498000EFF31182202181F31288BFF36F8FD3F8E8
:10499000201131B10021C3F82011D3F820110121D9
:1049A000D96082F31188BFF36F8FD3F85831704705
:1049B00013B501AA0446FFF79DFF002805DB019B04
:1049C000226819791868FDF7ADF802B010BD6FF0D4
:1049D00085007047F8B50546002201210820FCF744
:1049E0008DF90820FCF76EF96C680121E068FFF78B
:1049F000DFFF6B6819682369C1F82435A27D637DE8
:104A0000207D1343228B02431343C1F86C356E683B
:104A1000D6E9004313F001033CD02F6904F10C01E7
:104A200007F1080204F5907000F0A1F8002830DBCF
:104A3000387AFDF7C3FC0823C4F80035F369C4F8DD
:104A400044350023C4F848350123A360D4F8583115
:104A5000002BFBD00026C4F800656B683146D8688F
:104A6000FFF7A6FF6D683146E8682C68FFF7A0FFE6
:104A70000823C4F800352A7A52B92B6AC4F83435B1
:104A80000123C4F83835C4F81021D4F8102123606C
:104A90000020F8BD0822C4F80025F269C4F84425B6
:104AA000C4F848350123A360D4F82031002BFBD093
:104AB0000023C4F82031D4F820310123E3604FF4FF
:104AC0008073C4F80433C1E7002200F150039B0057
:104AD0009BB203F1502303F580331A601B687047C3
:104AE00008B5FDF7C7F908BDFEF7EABF08B5FBF743
:104AF0009FFCFBF785FDBDE80840FEF7E1BF0346DC
:104B00000020184700F08FBB024610B5116891B124
:104B1000B1FA81F3C3F11F000123834021EA0303AB
:104B2000D2E8EF4F8C4204D1C2E8EC3FBCF1000F59
:104B3000F6D1EBD110BD6FF00B00FBE710B50368A9
:104B4000CB40DB0710D401238B40026843EA02010B
:104B5000D0E8EF4F944204D1C0E8EC1FBCF1000F45
:104B6000F6D1F2D1002010BD6FF01500FBE770B553
:104B70000D460021064608461446FDF711FC48B9CB
:104B8000237843F00043C6F88030237843F0004395
:104B9000C5F8803070BD03280BD8DFE800F00204B0
:104BA0000608FDF753BDFDF77FBCFDF707BDFDF718
:104BB000BDBC704703280BD8DFE800F004020608EC
:104BC00000F02EB800F07FB800F062B800F044B8F2
:104BD000704708B5FDF784FCFDF77CFDFDF70CFD83
:104BE000BDE80840FDF7C0BC38B54FF050240123A4
:104BF000C4F808336360002342F21075C4F8003132
:104C0000D4F80031D4F80C24D4F80C34D20306D5EF
:104C1000DB0704D50120FFF775FF013DF2D138BD58
:104C2000FFF7E2BF38B54FF050244FF48073C4F85B
:104C300008330123E361002342F21075C4F82031E8
:104C4000D4F82031D4F85434DB0304D50120FFF725
:104C500059FF013DF6D138BDFFF7E4BF38B54FF03D
:104C600050244FF40073C4F8083301236362002317
:104C700042F21075C4F82431D4F82431D4F85C34ED
:104C8000DB0304D50120FFF73DFF013DF6D138BD20
:104C9000FFF7E4BF38B54FF050240223C4F80833BF
:104CA0000123E360002342F21075C4F80431D4F804
:104CB0000431D4F81834DB0304D50120FFF722FFB8
:104CC000013DF6D138BDFFF7E5BFF7B51646DDE982
:104CD0000847019001A81D46FDF736FD019BB6F17E
:104CE000000C18BF4FF0010C00EB83000B1E18BF27
:104CF0000123002D43EA4C0314BF4FF00C0C4FF07E
:104D0000000C002C43EA0C0314BF4FF4706C4FF0FE
:104D1000000C002F43EA0C0314BF4FF4403C4FF04B
:104D2000000CD0F8002243EA0C0322EA030301B18D
:104D300009780EB13678760019430DB12D78AD00A3
:104D400031430CB12478240229430FB13F783F044A
:104D50000C433C43C0F8004203B0F0BD1FB50DF159
:104D60000F03019300238DF80F101A461946009384
:104D7000FFF7ABFF05B05DF804FB10B5044608462D
:104D8000FDF7F4FC04EB4004A08AC0F3401010BD12
:104D900010B504460846FDF7E9FC04EB4004A08A80
:104DA000C0F3400010BD10B504460846FDF7DEFC18
:104DB00004EB4004A08A400B10BD70B504460846C1
:104DC0001646FDF7D3FC083034F810300D46DA05EE
:104DD00009D5C3F3432304EBC3023146284654F8F4
:104DE000333052689847A3682BB131462846E268B1
:104DF000BDE87040184770BD10B504460846FDF781
:104E0000B5FC00B204EB4000838ADA051DD5C3F37C
:104E1000432123F4F853838204F1120204F1720057
:104E200032F8023F13F4807F03D0C3F34323994247
:104E30000BD08242F4D1002204EBC1035A6004F18A
:104E40007800BDE81040FFF779BE10BDF0B504460C
:104E5000002001270546844695420AD1D4F87C31CA
:104E600033B10023C4F87C31D4F87C3140F00040E9
:104E7000F0BDEBB29B0003F580769B0807FA03F3C5
:104E8000194208D054F806E0BEF1000F03D044F8F0
:104E900006C0A65918430135DEE738B504460D466D
:104EA000FFF76BFFB0B12046FFF772FF90B92046C5
:104EB000FFF779FF012322688340C2F80833236893
:104EC00000B203EB8003D3F8102522F00302C3F8ED
:104ED000102538BD2846BDE838400021FFF73EBF09
:104EE0002DE9F0431746044685B00846FDF73EFC21
:104EF000D7F800800E460546B8F1000F1FD02046B7
:104F0000FFF746FF18B12046FFF737FF30BB0023FD
:104F10000DF10F02CDE900338DF80E308DF80F3012
:104F2000304643460DF10E01FFF7CFFE2AB204EBE7
:104F30004202938A23F0020343F0010393827B68C9
:104F4000002B34D03146204693F80080D3F80490EB
:104F5000FFF71EFF28B1B9F1000F1FD06FF0150049
:104F600028E028B204EB4000838A23F4604323F056
:104F700020038382B9F1000F10D0B8F1030FEDD8F0
:104F80007B6821685B6893F800C001EB8C01B8F185
:104F9000000F12D1C1F81085C1F810852AB204EBB8
:104FA0004202938A23F01C0343EA88039382BB687E
:104FB0004BBB002005B0BDE8F083D1F8102522F0EE
:104FC0000302C1F81025226802EB8C03D3F81025E8
:104FD00022F44F3222F44072C3F810253202D3F883
:104FE000101502F47C5242EA08420A43C3F8102525
:104FF00004EB4C03A3F87C60838A43EA4C3343F010
:1050000020038382CAE73146D3E900782046FFF7C0
:10501000F3FE002FCDD063689F4206D004F17800E4
:10502000FFF772FD002804DAC4E7A3689845F5D1BC
:10503000002004EBC003C3E901782DB204EB450561
:10504000AB8AC0B243EA402343F48073AB82B0E73B
:105050002DE9F043054685B0084617461E46FDF784
:1050600085FB0C46804637B32846FFF791FE18B9FA
:105070002846FFF782FE28BB0FFA88F905EB49099D
:10508000B9F8143013F01C0F02D07B78012B19D023
:1050900001238DF80F3000232046CDE900737A1CE0
:1050A000BB1C0DF10F01FFF710FEB9F8143043F0EF
:1050B0000303A9F81430002E41D021462846FFF7FB
:1050C00067FE20B96FF0150005B0BDE8F08300223F
:1050D00037782B684FEA870C03EB8703C3F810255A
:1050E000C3F810250FFA88F205EB4202938A23F4E5
:1050F000604323F020039382707800B32968B67868
:105100006144D1F81035000423F4991323F4F853C3
:10511000C1F81035230200F4403003F47C530343FC
:105120003005D1F8105500F4801003432B43C1F82B
:105130001035938A43EA473343F0200393820020DB
:10514000C2E7C0E90312704770B504461546FFF781
:1051500014FE48B10846FDF709FB04EB40040020AB
:10516000A38A5B0B2B7070BD6FF01500FBE790F806
:105170008C00003818BF01207047FDF71FBB2DE9D8
:10518000F34104461746FFF7F8FD0D46266800B3C5
:105190002046FFF7FDFD8046D8B92046FFF703FE05
:1051A00005B2AD0005F5807246F802802168B2585C
:1051B0002944D1F8102542F00102C1F810252FB181
:1051C0000122216802FA00F3C1F8043302B0BDE8FD
:1051D000F081D6F804332846002BA4BF4FF00043DB
:1051E000C6F80433FDF7C2FA04EB4004A38AC3F304
:1051F0008203042B11D0052B11D001A80195FDF7D6
:10520000A3FA019B0169D94001F00101023128464E
:1052100002B0BDE8F041FFF7A1BD0321F7E702218D
:10522000F5E7FFF73ABE08B1FCF79CB8704710B538
:10523000436904463BB90020E2684042537843F09A
:105240000103537010BD98470028F4D00028B8BF60
:105250004042FF28A8BFFF20E3681870ECE740B188
:10526000C368587810F001001EBF1878B0FA80F0BB
:1052700040097047EFF31183202383F31288BFF3B3
:105280006F8FFEE708B5FFF7F5FF4169826842EAD4
:10529000010313F003030FD1C3600369013B03FB58
:1052A0000122002B01DA00207047C168013B116028
:1052B0004169C260521AF4E76FF01500704710B5EB
:1052C000C0E904320023816083610446FFF7DDFFFB
:1052D0000028A8BFC4E9004410BD2DE9F0410546EF
:1052E0000F46EFF31188202383F31288BFF36F8FEB
:1052F000C668FEB90468A0421CD0DCB1D4E9003213
:1053000013605A60637BC4E9006623F00203637391
:10531000A66004F1180000F0E0F82046C4F8AC6084
:10532000276100F06CF8414605F10800BDE8F04146
:10533000FEF72CB83E60AB69EF60013BAB6188F3D0
:105340001188BFF36F8FBDE8F081202408B5EFF31B
:10535000118384F31288BFF36F8FFFF789F9F6E7A3
:1053600090F90E308B4201D0FDF79EBF00207047B0
:1053700003460020C3E90033C3E902007047EFF39E
:105380000580003818BF01207047D0E90032136053
:105390005A600023C0E90033704708B5FFF7F5FFF6
:1053A000437B23F0020343730023836008BD38B5B9
:1053B00004460D46FDF7D6FE637B43F0020363739C
:1053C000E5B1A5602B689D4209D16B68C4E9005323
:1053D0001C606C6012E06A689A42F6D01B68002B71
:1053E000F3D094F90E2093F90E108A42F3D0914233
:1053F000F1DD5A68C4E9003214605C6038BD10B554
:10540000EFF31184202383F31288BFF36F8FFDF72E
:1054100067FE84F31188BFF36F8F10BD014610B58E
:10542000EFF31184202383F31288BFF36F8F437B44
:1054300013F0280F0AD183680BB1FFF7AEFF4B7B47
:10544000084623F004034B73FDF74AFE84F31188EA
:10545000BFF36F8F10BD01211838FFF7DFBF38B5DC
:1054600004460D46FEF74CF8B5F1FF3F08BFB4F116
:10547000FF3F0246204618D000204FF47A7447F6CA
:10548000FF730146C2FB0431B3F5004F71F1000216
:105490000BD36FF400429A4243F6FF728A4132BF47
:1054A0006FF00040D80B40EA414038BD08B50246D5
:1054B000FEF7D2F970B1D0E904319B1A61EBE272C8
:1054C000B3F1004F72F1000104DA002AACBF1846B4
:1054D000002008BD6FF00040FBE7024638B5EFF34F
:1054E0001185202383F31288BFF36F8F0368CBB13C
:1054F000FEF7B2F904461046FEF7C0F900224FF05D
:1055000000438442C0E9042306D1FEF7ADF9FFF75A
:10551000CDFF0021FCF712FE002085F31188BFF3B8
:105520006F8F38BD6FF01500F7E708B5FEF7B0FADA
:1055300008BD0A44431E914200D1704710B511F8CE
:10554000014B914203F8014FF9D110BD02440346CB
:10555000934200D1704703F8011BF9E710B50139F8
:10556000044632B111F8013F013A00F8013B002B2B
:10557000F7D10021FFF7EAFF204610BD02460144A3
:1055800010B58A42134603D01C780132002CF8D1A2
:10559000181A10BDF0B5C3F13707044603F01F0316
:1055A0001046FFB2082BE6B232D0102B3DD0650872
:1055B000A40845EAC17544EA81748A082D1942EBB2
:1055C0005102290941EA02716D1842EB1212290AAF
:1055D00041EA02616D1842EB1222290C41EA0241B4
:1055E0006D1842EB1242AD1842F10002EC0844EA99
:1055F0004274D10804EB8402A6EB4205EDB2092DFA
:105600000CD90134A5F10A0541F10001EDB212E017
:10561000E40806F0070544EA4174C908303554EA45
:10562000010200F8015BBDD1F0BD240906F00F05B1
:1056300044EA01740909092D84BFED19EDB2EDE7C3
:105640000148006870470000040900205D14000054
:105650000000000000000000A4560000012D000022
:105660000000000000000000E45600000000000000
:10567000C4560000E94A00000000000000000000DD
:1056800004570000A917000000000000DD1F000003
:10569000000000004512000000000000ED4A00007C
:1056A00000000000CF600000605A00007059000048
:1056B0003C01002078090020ED14000000000000EB
:1056C00000000000DA600000805A00004C59000021
:1056D0003E0100201C0A00204519000000000000C7
:1056E00000000000E6600000945A00004C590000E1
:1056F00040010020280A0020451900000000000099
:1057000000000000FB600000A85A00008C59000057
:1057100042010020340A0020D5490000CF49000092
:1057200000000000000000004B46000000000000E8
:105730004B460000000000004B4600000000000047
:105740004B460000000000004B460000D34B000019
:10575000FF4A0000000000004B460000000000006F
:105760004B460000045700006F4900000000000095
:105770004B460000000000004B4600000000000007
:105780004B460000000000004B46000034000020A3
:10579000F1480000000000004B460000000000003F
:1057A0004B460000000000004B46000000000000D7
:1057B0004B460000000000004B46000000000000C7
:1057C0004B460000000000004B46000000000000B7
:1057D0006D200000000000004B46000000000000AB
:1057E0004B460000000000004B4600000000000097
:1057F0004B460000000000004B4600000000000087
:105800004B460000000000004B4600000000000076
:105810004B460000000000004B4600000000000066
:105820004B460000000000004B4600000000000056
:105830004B460000000000004B4600000000000046
:105840004B460000000000004B4600000000000036
:105850004B460000000000004B4600000000000026
:105860004B460000000000004B4600000000000016
:105870004B460000000000004B4600000000000006
:105880004B460000000000004B46000000000000F6
:105890004B460000000000004B46000000000000E6
:1058A0004B460000000000004B46000000000000D6
:1058B0004B460000000000004B46000000000000C6
:1058C0004B460000000000004B46000000000000B6
:1058D0004B460000000000004B46000000000000A6
:1058E0004B460000000000004B4600000000000096
:1058F0004B460000000000004B4600000000000086
:105900004B460000000000004B4600000000000075
:105910004B460000000000004B4600000000000065
:105920004B460000000000004B4600000000000055
:105930004B460000000000004B4600000000000045
:105940004B460000000000004B460000811900009B
:105950005748000063480000774800008148000075
:105960008B480000F91700009F480000000000006D
:1059700051150000AF470000114800000000000072
:105980004B47000000000000000000002949000013
:10599000ED1C00001B490000040000000F00000087
:1059A000010000000800000020000000600000006E
:1059B000700000000D0000000C0000000E00000050
:1059C0005000000074000000A8000000FFFFFFFF6F
:0C59D000FFFFFFFFFFFFFFFFFFFFFFFFD7
:1059E0000338FDD870470000000000002B4600007F
:1059F0001C000020140000200C000020000000000B
:105A0000040000206D0500003D040000910400002A
:105A10000505000000000020000000000600010055
:105A200002000000285A000000000000B8600000DA
:105A300006000000E0FF0F0000000020C060000032
:105A400021000000E0FF0620DD13000029470000D0
:105A500000000000A91400007914000000000000FC
:105A60000516000085150000534800004F4800004F
:105A70003748000043480000314800003D4800001E
:105A8000FFFF0000002884503400002000000000C8
:105A900001000000FFFFFFFF0025845034000020BC
:105AA0000000000000000000008000500100000025
:105AB00000000000CC5A00000000D60100000000E9
:105AC00000000000840C0020830C002000800050A7
:105AD000D85A000002000000F85A0000040000003C
