:10000000D8190020590D0000714A0000450D00006C
:10001000450D0000450D0000450D0000450D000098
:10002000000000000000000000000000C50E0000FD
:10003000450D0000000000005D0E0000450D0000B1
:1000400031100000311000003110000031100000AC
:10005000311000003110000031100000311000009C
:10006000311000003110000031100000311000008C
:10007000311000003110000031100000311000007C
:10008000311000003110000031100000311000006C
:10009000311000003110000031100000311000005C
:1000A000311000003110000031100000311000004C
:1000B000311000003110000031100000311000003C
:1000C000311000003110000031100000311000002C
:1000D000311000003110000031100000311000001C
:1000E000311000003110000031100000311000000C
:1000F00031100000311000003110000031100000FC
:1001000031100000311000003110000031100000EB
:1001100031100000311000003110000031100000DB
:1001200031100000311000003110000031100000CB
:1001300031100000311000003110000031100000BB
:1001400031100000311000003110000031100000AB
:100150003110000070B501250A224921074804F03A
:1001600071FC2C46064E654322462B4649213046FB
:10017000013404F067FC0B2CF5D170BD705F0000FA
:10018000A45F00007FB56A461546334B03F10806AD
:10019000144618685968083303C4B3422246F7D19D
:1001A00018681B792060237149212C4804F04AFC0F
:1001B000032249212A4804F045FC4421294804F03F
:1001C00041FC5721284804F03DFC4521274804F014
:1001D00039FC4921264A274804F034FC0D222946DF
:1001E000032000F09FF9244C204605F0D6F978B39F
:1001F0004FF4D011214804F03EFA002828DB4FF4D8
:1002000080311F4804F037FA002821DBA568AE6969
:100210006EB123694FF0A0721B68172113F4000F11
:1002200014BF4FF000734FF080632046B04715496C
:10023000154B4B604FF400038B60EB6913B1012247
:100240000D48984700214FF0967005F0A5FAF9E7A0
:100250004FF0FF3004B070BD505D0000C45F00007F
:10026000E65F0000F75F0000196000003E600000DC
:10027000616000006E600000205A0000685D0000B0
:10028000705D0000E803002055010000014B1B6871
:10029000184700BF00000020014B1860704700BFE6
:1002A0000000002030B585B004460D461022002124
:1002B000684605F0E8FA02238DF80230044B2A461E
:1002C00021466846019303F07BFF05B030BD00BFB7
:1002D0008D02000080B505460E461746984603F08D
:1002E0005DFB034605F04AFB0446DFF818904246E2
:1002F00049F8003039463046A84754F8090000F064
:1003000097FD00BF080000002DE9F047058B04466B
:100310002807904611D4022905F0070540F0CC804B
:10032000204604F0B7FA78B10138218B042811D89F
:10033000DFE800F0C2106D85950001290CBF45F083
:10034000100545F02005258388F31188BFF36F8FD2
:10035000BDE8F08701F0070AAA4500F0A580002754
:10036000B9463E46A368002B00F0BC8041F008016E
:10037000218388F31188BFF36F8FA168002900F0F3
:10038000BA800D68002900F0B680334652462046F8
:10039000D1F80480C047002D76D02B6829461D4631
:1003A000F0E701F007035A1F012A1BD8002221F0B1
:1003B0000701062B276889B2C4E9002209D13B4610
:1003C00003E0628B013262831B68002BF9D141F09C
:1003D00002012046218304F05DFA00287AD041F022
:1003E000200176E0042B0AD121F0070189B22046D2
:1003F000218304F04FFA10B141F020012183218BB9
:1004000001F0070AAA454FD00027B946AAE7236999
:1004100021F0070141F00601062DD3F80090218359
:100420002DD1B9F1000F3FD041F00801218388F3AD
:100430001188BFF36F8F20463949C84729E021F062
:100440000701236941F0040189B2042DD3F8049017
:100450002183E6D000274FF0040A3E4682E721F0D0
:100460000701236941F0050189B2052DD3F80890F1
:100470002183D6D000274FF0050A3E4672E70027B9
:100480004FF0060A3E466DE72B4687E7B9F1000FAD
:10049000D1D1EFF31188202383F31288BFF36F8F3C
:1004A000238B23F008032383258BEA062ED525F022
:1004B0001003238305F007056669218B002EBFF624
:1004C00070AF00232768C4E9003321F0070141F031
:1004D00001012183218B4FF0000901F0070AAA4591
:1004E0007FF440AF002F9CD041F00801218388F3B6
:1004F0001188BFF36F8F002FC8D03D68394633464F
:100500005246204604F0F2F92F46F4E7AB067FF599
:100510001BAF25F02003238305F0070500E700BF8C
:10052000194900002DE9F84F80460F46164614463B
:10053000DFF88C90BD192D1B0CB9BDE8F88F08F1C0
:10054000FF33032B8CBF3F2119F803101D4804F023
:1005500094F94FF0000BDFF870A05C4528D95046A5
:1005600015F80B1004F089F90BF1010BBBF1080F22
:10057000F3D1164804F081F94FF0000ADFF850B0CB
:10058000544519D915F80A105846A1F120025F2ADE
:1005900028BF2E2104F071F90AF1010ABAF1080FFF
:1005A000EED10C4804F069F9072CC6D9083CC1E724
:1005B000094804F062F9D7E7084804F05EF9EBE770
:1005C000A76000009360000098600000A260000037
:1005D000A4600000ED6700009E600000A0600000C5
:1005E000014B036000207047785D000008B50448A7
:1005F00004F043F9BDE80840024804F03EB900BFEA
:10060000AB600000E0600000014803F097BC00BF51
:10061000785D000038B5044618B90F4B0F485B6889
:1006200098476168B1F5683F10D0B1F5680F0DD0FB
:100630000B4DA9420AD011F46861206807D0014629
:10064000084804F0E5FF00232360656038BD1422EC
:1006500005F019F9F9E700BFDC0000200E61000089
:100660002C5F5CA9F408002008B560B34368B3F5BB
:10067000683F0ED0B3F5680F18D0144A934220D0CB
:1006800000684FF0FF324FF0FF3302F067FD58B1C2
:1006900015E001220368D3E8EF1F002903D1C3E866
:1006A000E02F0028F7D10AD1002008BD0368084ACE
:1006B0001B7803F5807352F82330002BF4D00548E3
:1006C000F3E70548F1E76FF4E040EEE72C5F5CA943
:1006D00000000350E98FFFFFEA8FFFFF08B520B34A
:1006E0004368B3F5683F09D0B3F5680F13D0114ADA
:1006F00093421DD0006802F0A9FD14E000220368B7
:10070000D3E8EF1F012903D1C3E8E02F0028F7D178
:1007100009D0094808BD00210368084A1B7803F581
:10072000807342F823100020F4E76FF4E040F1E713
:100730000348EFE72C5F5CA9E98FFFFF000003503F
:10074000EA8FFFFF10B5044618B91D4B1D485B68C2
:1007500098476368B3F5683F2FD0B3F5680F2CD086
:10076000194A934219D1236803BB4FF0FF324FF06F
:10077000FF332146154802F0C3FC08B923681BB9B2
:100780000F4B13485B68984714220021206805F03E
:100790007AF84FF46863636008E0B3F5683F0DD8FA
:1007A0003A2B03D040F6BA629342DED1206804F0BF
:1007B0007AFF636843F03A03636010BD054AF3E7CC
:1007C000DC0000200E6100002C5F5CA9F408002012
:1007D000346100003A00003A08B50649402314226B
:1007E000054804F007FFBDE808400449044803F049
:1007F00017BC00BFF4030020F4080020805D000057
:10080000945D000008B50348034A0021121A04F061
:1008100027F908BD98010020940C0020074808B56E
:10082000074A0849121A04F01DF9BDE808400648B5
:10083000064A0749121A04F015B900BF000000204B
:1008400094010020746800000000002000000020D7
:100850007468000037B505460C46C9B18B6814486A
:100860000093D1E90023452104F0ECF863694521A8
:100870000093D4E903230F4804F0E4F84521E2692A
:100880000D4804F0DFF84521A2690C4804F0DAF8BD
:10089000012D06D1EFF3058245210948103A04F0F5
:1008A000D1F82146284603B0BDE8304002F0AEBA88
:1008B0006161000095610000C9610000DD61000018
:1008C0001062000030BFFFF7FDBF00BF2DE9F0410F
:1008D00005460B4EDFF82C80324606EB0807CC1B92
:1008E0002046094904F0C2FFA01942460021083CF5
:1008F00004F0C9FFC5F8A44007F10800BDE8F08185
:100900000000000004000000505D0000054B5A6923
:100910009B689A421FBF044A536843F08053536058
:10092000704700BF840A002000ED00E010B5244CA1
:100930004521244804F086F8A36A99013ED522484F
:10094000452104F07FF81E20A36ADA0104D51F4870
:10095000452104F077F81F20194CA36ADB0204D567
:100960001B48452104F06EF80220A36A1C0304D53D
:100970001848452104F066F82120114CA36A590358
:1009800004D51548452104F05DF82220A36A9A0396
:1009900004D51248452104F055F82320084CA36AD9
:1009A000DB0304D50E48452104F04CF82420A36A4B
:1009B0006FEA03436FEA1343A36210BD1D20C3E730
:1009C00000ED00E028620000456200005D6200006A
:1009D0007C620000AB620000CE620000F8620000A2
:1009E0001763000070B5284C06460D462748452180
:1009F00004F028F8A36AD9043BD52548452104F022
:100A000021F81720A36A1A0504D52248452104F0CD
:100A100019F818201C4CA36A9B0511D51E484521C6
:100A200004F010F8A26BA36A180408D545211B48EE
:100A300004F008F81EB1A36A23F40043A36219204E
:100A4000114CA36A590504D51548452103F0FAFF56
:100A50001A20A36ADA050ED51248452103F0F2FFE9
:100A60001B20094A936A43F47F43936200232B704F
:100A700070BD1620C6E7A36A9B04F2D50A4845213B
:100A800003F0E0FF1C20ECE700ED00E0476300000E
:100A9000626300007863000090630000AE630000B2
:100AA000C8630000E86300000564000070B5294CCD
:100AB00006460D462848452103F0C4FFA36AD80620
:100AC00046D52648452103F0BDFF1120A36A19072A
:100AD00004D52348452103F0B5FF12201D4CA36A1D
:100AE0009A0711D545211F4803F0ACFF626BA36A3A
:100AF0001B0608D545211C4803F0A4FF1EB1A36ABC
:100B000023F08003A3621320124CA36ADE0704D5EE
:100B10001648452103F096FF1420A36A9C0604D5CD
:100B20001348452103F08EFF15200A4B9A6AD1061F
:100B300058BF9A6A9A6A920642BF5A6A22F40052D1
:100B40005A629A6A42F0FF029A6200232B7070BDCB
:100B50001020BBE700ED00E03964000054640000A1
:100B6000786300008C640000A9640000C464000085
:100B7000056400002DE9F0415F4B04465F680025E5
:100B80008AB0C7F3080685F31188BFF36F8F02F0B0
:100B90007F43B3F17F4F07D102F00C03082B14D130
:100BA0004521564803F04EFF00252C464FF0000823
:100BB000F31E8DF80780092B00F28C80DFE803F02C
:100BC0000A7F837B8A8A8A8A8A8710074CBF0C46F1
:100BD0000125EBE745214A48474E03F033FF8DF8E6
:100BE0000780F36A9A0705D54521464803F02AFF96
:100BF000002332E0F36A002B02DA45214248F5E790
:100C0000F36A5B00F4D54521404803F01BFF73698C
:100C1000A26943F480737361BFF34F8FBFF36F8F8B
:100C2000736932F8022C23F480737361BFF34F8F22
:100C3000BFF36F8F4DF602739A4208D0B36ADBB2EE
:100C40005BB301200DF10701FFF730FF35E04521CF
:100C500022682F4803F0F6FE23689DF80720CAB9E2
:100C600002AE04F12007324620686168083403C2EE
:100C7000BC421646F7D1099A002D38D0C2F30801BC
:100C800021B96FEA52226FEA42220992184602A95C
:100C9000FFF7E0FD0AB0BDE8F081B36A13F47F4FBF
:100CA00005D001200DF10701FFF79CFE05E0B36AB6
:100CB000B3F5803F9CD3FFF739FE0346CDE7002014
:100CC0000DF10701C0E700200DF10701ECE7452118
:100CD00010488BE7104917F4F87F104A104808BFF6
:100CE0000A46A6F11003452103F0ACFE80E722F48A
:100CF000FF7222F00102C8E700ED00E01665000077
:100D00004665000062650000886500009B65000084
:100D1000BF650000E0650000E8640000FD640000BD
:100D200009660000064B5A6942F010025A615A697E
:100D300042F480625A615A6922F008025A6170478F
:100D400000ED00E0EFF30880EFF3098101B5724692
:100D5000FFF710FF01BD00BF002080F31488BFF330
:100D60006F8F002080F30A8880F30B88104880F38F
:100D7000088800200F49087001F0D6FB00200E49BA
:100D80000860BFF34F8F00F02DF8202080F311880A
:100D90000A484FF40061401880F30988EFF314808B
:100DA0000221084380F31488BFF36F8F00F0DCF852
:100DB000D8190020910C002094ED00E0980C002040
:100DC000002318460649D1F89020C2F30722934227
:100DD00000DB7047C1F89830C1F8A0000133F6E796
:100DE00000ED00E010B572B6002484F31388FFF71D
:100DF000E7FF23464FF0FF300C4A03F12001013397
:100E0000102B42F82100F8D100234FF0FF30074AA1
:100E100003F160010133102B42F82100F8D162B6D2
:100E2000BFF34F8FBFF36F8F10BD00BF00E100E035
:100E3000084B9B6883420BD1EFF3058343B1064B0C
:100E40005A6842F080525A605A6A22F400425A624A
:100E500002F0AABD840A002000ED00E016498A686D
:100E60004FF030001044EFF3098C80E8F01F202091
:100E700080F31288BFF36F8F104F4FF000664A69FE
:100E80008A603E60D2F8A4000D4C2060D2F8A80021
:100E90000023C2F8A83080F3118802F1300090E8F6
:100EA000F01F8CF3098802F1000004B503F0EBFD9C
:100EB000BDE8044070470000840A002004ED00E013
:100EC000100900201EF0040F0CBFEFF30880EFF3B1
:100ED0000980816911F8021C0229FFD001B5724610
:100EE00003F0C2FD01BD00BF40B2002807DB0123B3
:100EF0004109034A00F01F00834042F82130704747
:100F000000E100E0054B420953F82220012300F0E4
:100F10001F0003FA00F01040704700BF00E100E03E
:100F200040B2002801F10101ACBF00F16040064B66
:100F30004FEA4111C9B2ABBF00F5614000F00F00AC
:100F400080F800131954704714ED00E0044B054A73
:100F500023F07F039360BFF34F8FBFF36F8F704712
:100F60000000000000ED00E008B5FFF7EFFF074AC2
:100F7000D2F8883023F47003C2F88830FFF742FCBF
:100F8000FFF74CFC00F048F802F040F800ED00E0FC
:100F900042F8203C009B0B4942F81C3C019B21F08D
:100FA000010142F8183C029B42F8081C42F8143C2C
:100FB0004FF0807342F8043C0023203A0265C0F8E9
:100FC000A8307047D502000000B50E4B154698605A
:100FD000D0F8A4200C4B0E461A60D0F8943083F35E
:100FE0000B882C4686F309880020044B984720463E
:100FF000002100220023024C20470000974A0000F5
:10100000D5020000840A0020100900201022014BA4
:101010001A61704700ED00E0002320210348C21848
:101020000133452B82F80013F9D1704700E100E04D
:1010300008B5EFF30583064A103B02EBC30152F8F3
:10104000330049688847BDE80840FFF75FBC00BF30
:10105000605A00001FB5094C094A2346012109487E
:1010600000F00EF900230393074B0121E41A01A8B5
:101070000193029400F00EF904B010BD00000720A7
:1010800000000020A45D00009801002010B50C7A3B
:101090000B6804F01F0223F01F031A43CB68640996
:1010A00023F01F03054943EA440343F00103C1F859
:1010B0009800C1F89C20C1F8A03010BD00ED00E000
:1010C00010B50A4B0446D3F89030C3F30723013B15
:1010D000984208D902464521054803F0B3FC6FF059
:1010E0001504204610BDFFF7D1FFFAE700ED00E040
:1010F000256600002DE9F04F8946144606464FF05C
:101100000008514D85B0C84527DAD6F804A0BAF1D9
:10111000000F44D0BAF11F0F18D91AF01F0F15D1C4
:10112000D6F800B01BF01F0F10D1584603F0EFFCAB
:1011300007460AEB0B00013803F0E9FC874210D0A8
:101140006FF015073A464521404802E042464521E6
:101150003F4803F077FC6FF01504204605B0BDE86A
:10116000F08F17F1160FEDD0BC42EBDDC5F898708B
:10117000D5F89C10C5F89870D5F8A03021F01F0163
:1011800043F01F0BD6E900321A44994202F1FF3AAC
:101190001DD1D34507D13146F8B203F0C1FC08F1A7
:1011A00001080C36AFE73146C5F89870D5F89C3089
:1011B00022F01F0203F01F031343C5F89C30E0B276
:1011C00003F0AEFC10F1160FC5D0441CE7E7C5F8DC
:1011D0009870D5F8A020013B23F01F0302F01F02F6
:1011E0001343D3453146E0B2C5F8A030E8D003F050
:1011F00097FC10F1160FAED0C5F89870D5F89C206A
:101200009DF808300BF1FF3B62F304038DF80830C2
:10121000D5F8A0309DF808205B0863F347128DF8DD
:101220000820D6E900321344009323F01F035B44E7
:10123000A3EB0A03013023F01F036946C0B20393F6
:10124000FFF73EFFBEE700BF00ED00E0786600005C
:10125000506600000522044BC3F89420BFF34F8F63
:10126000BFF36F8F704700BF00ED00E0BFF35F8FEB
:101270000022024BC3F89420704700BF00ED00E04D
:1012800010B5034C2278FFF735FF207010BD00BF6A
:101290008C0C00202DE9F74F294D8A4606464FF069
:1012A0000008AB46274FD0451BDAD6F80490B9F1B9
:1012B000000F3FD031680846019103F028FC0199E6
:1012C000044609EB0100013803F021FC84424FF091
:1012D00014021D4B08D002FB08F36FF015024BF807
:1012E000032003B0BDE8F08F14F1160F2C60F8D086
:1012F0001978A142F5DD02FB08B0C7F89840C7F89D
:101300009840D7F89C4000F10801007B64F304008A
:101310000871D7F8A0000C79400860F347140C71ED
:10132000D7F89C1021F01F016960D7F8A01021F0B8
:101330001F01296108F1010814350C36B3E700BF1D
:101340001409002000ED00E08C0C0020F0B54149AC
:10135000414CD1F890302568C3F307239D4287B0F4
:1013600075D80020FFF782FF3C4BC1F8C0308542A2
:1013700016D13B4C01A82570FFF732F9002506462F
:10138000384FAE4213D1002023783249D1F8902053
:10139000C2F30722934254DBFFF75CFF00202FE0EB
:1013A000616801EB0011FFF771FE0130DFE7019981
:1013B000280101EB0513DA683A40B2F5001F21D08D
:1013C000B2F5800F2BD0B2F5801F38D15A689B68D8
:1013D0000958013B22F01F0003440120844623F0FA
:1013E0001F0340EA4C10CDE902218DF8100002A93C
:1013F00020780593FFF764FE00281DDA6FF01500D2
:1014000007B0F0BD5A689B680958013B22F01F00E5
:1014100003444FF0020C012023F01F03E1E75A6858
:101420009B680958013B22F01F0003444FF0000C59
:10143000062023F01F03D4E72378013323700135FE
:101440009FE7C1F89830C1F8A00001339EE74FF044
:10145000FF30D5E700ED00E0B05D0000AAFF4400DA
:101460008C0C00200000F0FF08B5024B1B68984769
:10147000002008BD28090020034B044A1860937817
:1014800043F00203937070472809002024000020D5
:1014900008B50649064821F00701C1F1005202F5DE
:1014A000E02203F090F9002008BD00BFDF19002002
:1014B0002C090020054B03EB8000D0F8003223F00C
:1014C000E04343F04053C0F8003270470025845099
:1014D000052370B5144D154E2C780134B4FBF3F38D
:1014E00003EB8303E41A03F099FC114A137823B148
:1014F00056F82430C01A072814D94FF05023D3F8D7
:10150000141141B10021C3F81411D3F814312C7017
:101510000CB9012313702C7803F080FC46F82400EA
:10152000012070BD0020FCE78E0C0020380900204F
:101530008D0C0020012208B50B4B0C49C3F8002587
:1015400002230020C1F8D036FFF7B4FF1046FFF7A2
:10155000B1FFC1F80427C1F80429C1F8002BBDE888
:10156000084000F099B800BF001000500040005043
:1015700007B54FF480620B4B0B49C3F8B8254FF405
:1015800000620A48C3F83C250DF1070203F08DFC08
:10159000002803DB9DF8070001F0BCF803B05DF8FC
:1015A00004FB00BF00A002502CA0025028A1025052
:1015B00048B1054B054A1B68B3FBF2F35843044B93
:1015C00043F0010318477047C400002040420F0059
:1015D000605D0000002170B5104C114D114E0007E8
:1015E00014F8013B03F01F025B090FD0012B0FD150
:1015F000334603EB8203D3F80022013122F0E042AC
:1016000002430429C3F80022EAD170BD2B46F0E75B
:101610000023803253F82230FFDE00BFB76600009F
:1016200000258450002884502DE9F0410646012011
:101630000D46FFF7CFFF4FF47F03D3F83021D3F8E7
:101640003431072A20D1023B032B02D8114AD35C44
:10165000D3B14FF050244FF0010800270520C4F803
:101660001886C4F8147603F0EBFB4046C4F81486E1
:1016700003F0E6FBC4F81476C4F8187630462B461F
:10168000BDE8F041002118474FF050230022C3F875
:101690001426F3E7B36600000149024803F049B994
:1016A000D85D00004C09002008B54FF0FF323F2301
:1016B0000348C0E9002301F019F8002008BD00BF6D
:1016C00068090020084B70B5C31A0D4607499B10E6
:1016D000044659434022064803F05AFA2B46014675
:1016E0002046BDE87040184784090020B76DDBB67E
:1016F000E0590000402373B50B4C0093041B0B46CC
:101700000D460A49A41061430646094A094803F0F8
:101710006AFA011E05DA30462B4602B0BDE8704079
:10172000184702B070BD00BF84090020B76DDBB65A
:101730004F4C0000E05900002DE9F0470022012144
:1017400007460520FFF7ECFB124801F003F80446BA
:10175000D0B901F033F825464FF01C0A4FF00C08C1
:10176000DFF834903E6949460AFB056003F0E1F872
:10177000031E0CDB012308FB05661D44042DB36723
:10178000F0D12046BDE8F0876FF00404F9E71C466D
:10179000F7E700BFC9180000E45D00001FB5002294
:1017A0000123CDE902236B46084ACDF800D0CDF8DD
:1017B00004D003F045FA002805DB4FF480420023F3
:1017C000684601F0C7FD05B05DF804FB794C0000E8
:1017D00010B5EFF31184202383F31288BFF36F8FCA
:1017E000074A136823F00201DB07116002D40120CD
:1017F00003F07EFB84F31188BFF36F8F10BD00BF31
:10180000240A00200C22104B014602FB003300206A
:1018100030B4D3E91C521867EFF31180202484F30D
:101820001288BFF36F8F9C6F04F0C00444F0020471
:101830009C6780F31188BFF36F8F1DB12B4630BCBE
:101840000248184730BC704784090020E059000066
:1018500010B4EFF31182202383F31288BFF36F8F4C
:101860001748016841F002040460C80707D482F3F6
:101870001188BFF36F8F012010BC03F02ABB4FF01B
:101880005021D1F80C04D1F80C14C907EFD5EFF3AF
:10189000118083F31288BFF36F8F0A498B6F03F0B7
:1018A000C00343F002038B6780F31188BFF36F8F8F
:1018B00082F31188BFF36F8F002010BCFFF7A2BF27
:1018C000240A002084090020092813D8DFE800F04A
:1018D00005101212121212120E0C074B986F10F014
:1018E000070007D1FFF78EBF0220FBE70320F9E7CF
:1018F0000120F7E7704700BF840900202DE9F0417F
:10190000012207463649D1E8EF3FC1E8E02F002821
:10191000F9D133B9334934484B60CB608A6003F066
:101920001BF87B1E012B2BD8012F07D14FF0502322
:10193000D3F81C3403F00303022B21D003F0BAFECA
:101940000546F8B9294B1B78E3B14FF0502302222A
:101950000646C3F808234FF05024DFF89480D4F8EB
:101960001824D4F81834D20315D503F00303022B3E
:1019700001D0012F0FD16DB386F31188BFF36F8FA4
:10198000BDE8F081EFF31186202383F31288BFF3C3
:101990006F8F0125DFE7C5B1304603F09CF8D4F81E
:1019A0001835DBB2012BDAD1D4F80421002AD6D0C5
:1019B0000022C4F80421D4F804210222C4F8182516
:1019C0002022C8F88021A360C9E70021212003F06C
:1019D000E3FEE4E74FF050230222C3F80423CFE7ED
:1019E0008009002070090020A0090020910C00202F
:1019F00000E100E008B5074803F0CFFD38B1064824
:101A0000FFF73AFD0448FEF747FC002008BD6FF0E1
:101A10001200FBE7405A00001D1A00000A2838B5E2
:101A20000446074D04D1AB680D2128465B689847F2
:101A3000AB6803485B68E1B29847204638BD00BFF9
:101A4000405A0000F0B545681646A8682A7C01F0A7
:101A50001F0487B044EA4214002868D0B6F5001F7E
:101A600004D1214603F07BFD002051E00020B6F5B3
:101A7000800F01AA0190506037D1B3F1007F14BFED
:101A8000052304238DF804300023CDE904230393B8
:101A9000EB680DF1030723FA01F111F0010139D1CF
:101AA000B6F1A07F36D104F01F03620903F1800371
:101AB00026D0012A3ED1214A52F82330DB0729D40F
:101AC0003A462146A86803F0DDFC16301AD002978A
:101AD0002146A86803AA03F0A1FB002818DB012215
:101AE0002146A86803F0E9FCBEE7B3F1C06F05D05A
:101AF000B3F1007F14BF01230223C3E70323C1E72F
:101B00000F4AD9E73946A86801F07EF80028DEDAE6
:101B100007B0F0BD3A462146A86803F0B3FC0028A0
:101B2000D6D19DF80310A86801F064F8D0E76FF0F3
:101B30008500EDE751F82330FFDE00BF0028845018
:101B4000002584504209034670B502D0012A17D0FF
:101B500070BD0D4E326951680029F9D0012503F09E
:101B60001F030C689D400029F2D08A682A4002D0E9
:101B700030464B6898472CB1236821461C46F2E753
:101B8000024EE7E72346F8E7205A0000005A00001B
:101B900038B54568A86890B103F087FC014670B974
:101BA000A86800F0F5FF044658B902460649A8683F
:101BB00003F065FC224605210D20FFF7B1F9002056
:101BC00038BD6FF00400FBE7451B00002DE9F04332
:101BD00040F206364768D00648BF4FF0030C3B7C06
:101BE00002EA060658BFC2F3401C87B001F01F0589
:101BF000B6F5837F144645EA43158DF803C044D0FB
:101C00000DD8062E16D005D8A6B1022E3FD06FF003
:101C1000150037E0B6F5807FF9D101260AE040F2E1
:101C20000222964235D0B6F5407F34D0B6F5007F1B
:101C3000EDD102260123220303FA01F12DD57B68A1
:101C40009960B86880BB05F01F036D092AD0012D8B
:101C500073D13C4A02EB830284F48033D2F8001241
:101C6000C3F30043C4F3404444EA430421F47061E5
:101C700044EA8C0421F00F0144EA06230B43C2F826
:101C80000032002007B0BDE8F0830726D2E7042623
:101C9000D0E70526CEE70326CCE7630344BF7B6885
:101CA000D960CEE7284AD5E729460DF1020203F0B4
:101CB000E9FB14F4403F80460CD12946B86803F094
:101CC000FAFBB8F1000FDCD19DF80210B86800F003
:101CD00091FFD6E74FF0000901ABCDE90199CDE9BD
:101CE0000439CDF80C902946B86803AA03F096FA97
:101CF0004845C6DB14F4003314D09DF8033084F457
:101D00008034C4F300448DF80E308DF80C608DF8EB
:101D10000D404B462946B86803AA03F037FB00285C
:101D2000CFDAAEE7CDE904330DF10303039329467F
:101D3000B86803AA03F072FAF1E7803350F8233051
:101D4000FFDE00BF0028845000258450036803F0A4
:101D50001F025B09026004D0012B034818BF00205A
:101D600070470248704700BF002884500025845007
:101D70002DE9F04F1546824640F2FF19DFF8B0B169
:101D800085B000EB8108D04503D1002005B0BDE847
:101D9000F08FDAF80030C3F3C3210829C3F3080435
:101DA00000F2C080634A4C45515C4FEA136311D086
:101DB000222B1DD94E2B40F0B880C5F814450126C2
:101DC00003A80394FFF7C2FF039B06FA03F38360A3
:101DD000374654E0222B09D94E2B40F0A6804FF015
:101DE000FF33C5F814350AF1040ACCE74FF0FF348D
:101DF000222B00F29A80DFE803F012171E3621270B
:101E00003698989898396398989898989898989848
:101E10006B76797C9898987F86898C8F9200C5F82C
:101E20000C45631CCBD1DEE7C5F81445631CDAD042
:101E30000026002723E0C5F80845F2E7601CC5F836
:101E40000845D0D0002604E0621CC5F80C45CAD075
:101E50000126012703A80394FFF778FF039B07FAE5
:101E600003F3C3600BE0C5F81045DFE7C5F808458C
:101E70000029DBD1671CB6D0002606213746DAF8E8
:101E80000030039403F40040002803A81CBF01267F
:101E900000270193FFF75AFF039C019B00EB84008E
:101EA000D0F80042C3F3412C0B0243EA8C033B43BE
:101EB00004EA0B04234343EA4603C0F8003292E7E6
:101EC000C5F80C450029D5D0661C8CD000267FE7CC
:101ED000C5F86045601CDAF8003084D0C3F30043D5
:101EE000002BB5D06BE7C5F86445F3E7C5F8684546
:101EF000F0E7C5F86C45EDE7C5F82445621C3FF4F2
:101F000072AF012695E7C5F828458AE7C5F8304540
:101F1000F4E7C5F83445F1E7C5F83845EEE7C5F80C
:101F20003C457EE76FF0150030E76FF085002DE748
:101F3000F0F0FCFF0D6700002DE9F04104460D466E
:101F4000476803F0B7FB4FF0200888B9264B1B7891
:101F500073B16426606802F012FFF0B9012002F04C
:101F60006FFF013EF6D10021212003F015FCF0E7C0
:101F7000EFF31186314688F31288BFF36F8F6068E4
:101F800002F0FDFEA8B986F31188BFF36F8FEFE76B
:101F900086F31188BFF36F8FE5E7EFF311863146C3
:101FA00088F31288BFF36F8F606802F0E8FE0028A4
:101FB000EED0FB6900201D706368FA691B68C3F8E6
:101FC00044250122C3F84825C3F82001D3F8204155
:101FD000C3F85801D3F858019A6081F31188BFF310
:101FE0006F8FBDE8F08100BF910C00202DE9F0411A
:101FF0000546002201210820FEF792FF0820FEF787
:1020000073FF6C680121E06802F0EAFE6B681968F2
:102010002369C1F82435A27D637D207D1343228B83
:1020200002431343C1F86C356F68D7E9004313F0DE
:10203000010345D0D5F8108004F10C0108F1080225
:1020400004F5907002F031FF061E06DA452129489A
:1020500002F0F8FC3046BDE8F08198F8080000F086
:1020600059FB0823C4F80035FB69C4F84435002344
:10207000C4F848350123A360D4F85831002BFBD0B5
:102080000026C4F800656B683146D86802F0A8FEE7
:102090006D683146E8682C6802F0A2FE0823C4F897
:1020A00000352A7A52B92B6AC4F834350123C4F8B2
:1020B0003835C4F81021D4F8102123600026C9E770
:1020C0000822C4F80025FA69C4F84425C4F8483544
:1020D0000123A360D4F82031002BFBD00023C4F8E7
:1020E0002031D4F820310123E3604FF48073C4F829
:1020F0000433C1E7166700000123834070B5DC4359
:102100000B4AD2E8EF1F01EA0405C2E8E65F002EA1
:10211000F7D14FF4803282400648C0F80823BFF35D
:102120005F8FBFF36F8F0B4214BF0120002070BD83
:10213000500A00200050015070B40E4922F07F4632
:10214000D1E90034D01AC31844F10004C1E90034C5
:10215000A6F50013B3F5400F09D2074B1B681A0A06
:102160001B069C19054B42F10005C3E9004570BCF4
:1021700001F01EBEA8010020540A0020B00100207A
:10218000D9B101230D4A8340D2E8EFCF4CEA030CCA
:10219000C2E8E1CF0029F7D14FF48033084A8340E9
:1021A000C2F80433074BD3E8AF3FC340DB0742BF5D
:1021B0004FF40012044BC3F800217047500A00206E
:1021C000005001504C0A002000E100E00D4B18685F
:1021D000010A0006BFF35F8F0B4BD3F804351818C4
:1021E00041F10001B3F5801F0AD2084BD3E9002367
:1021F000904271EB030303D210F1807041F10001B2
:10220000704700BF540A002000500150B001002068
:102210002DE9F04F85B016461F4604469DF840A0B4
:10222000FFF76AFF0190FFF7D1FFB04271EB0703A0
:1022300052D23B4B301A67EB0101984271F1000119
:102240004DD2384B03EB0413D3E902239F4208BF5E
:10225000964258D04FF48038334908FA04F82046A3
:1022600026F07F4BC1F8488302F0CCFD4FF0030904
:10227000584604F15005AD00ADB205F1502504F506
:10228000A87305F580350293029A20F07F4341F848
:102290002230C1F84483D1F80435244AC01A0338E7
:1022A00020F07F4090422ED9286868B1D1F80435DB
:1022B000A3EB0B0020F07F40B0F5000F039322D971
:1022C000204602F09FFD039BBAF1000F07D109EBF6
:1022D000030009F10109D7E7BAF1000F09D06FF047
:1022E000150520460199FFF74BFF284605B0BDE8CC
:1022F000F08F01230E4AA340D2E8EF0F1843C2E843
:10230000E10F0029F8D107490E982301C8500F9B0F
:1023100001EB04120025C2E902675360E1E700BF48
:10232000010080009801002000500150FDFF7F0057
:102330004C0A00207FB500254FF0FF304FF0FF31F1
:10234000194C1A4B0226C4F80833C4F84833184B0A
:10235000C4F80855C3E902014FF480334FF400126A
:10236000C4F80433134B0121C4F804631520C3F8E7
:1023700080212A46FEF7D4FD1520FEF7B5FD012386
:102380000D4AA360236013600C4B0D4A009328464E
:102390000023CDE90155FFF73BFF3046FFF7AEFACA
:1023A000284604B070BD00BF0050015003000F006C
:1023B0009801002000E100E0500A002039210000CF
:1023C000FFFF7F002DE9F7432E4BD3F8042390073E
:1023D0000BD5D3F8042142B10022C3F804212A4AC4
:1023E000D3F80431136801331360264AD2F804335A
:1023F000D90326D5254BD3E8EF1F21F00100C3E810
:10240000E40F002CF7D1CB0702D4D2F84031C3B18E
:1024100000251C4CC4F84051D4F84031FFF7D6FEDB
:10242000EFF31182202383F31288BFF36F8F184BD1
:10243000D3E90267B042B94106D282F31188BFF3F3
:102440006F8F03B0BDE8F0834FF0FF38D3E9001081
:102450004FF0FF391D60C3E902894FF48033C4F89F
:102460004833C4F84051D4F8403182F31188BFF3A7
:102470006F8F0029E5D0009032463B4628468847BA
:10248000DFE700BF00500150540A00204C0A002032
:102490009801002030B5431C124C85B005D0844211
:1024A000A8BF0446012CB8BF0124FFF78FFE0E4BD6
:1024B0000C4DD3E90013401AB0F5000F0FD22218CB
:1024C000AA4228BF2A46002052180849CDE9010037
:1024D000009143F10003FFF79BFE05B030BD2A4693
:1024E000F1E700BFFFFF7F00A801002039210000B5
:1024F00008B5FFF76BFE024B1B68C01A08BD00BF92
:10250000A80100204FF47F03D3F83021D3F83431F1
:10251000072A05D1023B032B02D8024AD05C704740
:10252000002070475C67000008B5FFF7EBFF58B16B
:10253000644BD3F8202A3AB90D21C3F8201A01219F
:10254000C3F81C19C3F81C290022D30003F57F032C
:10255000D3F80013013107D0D3F800130132D3F8B8
:102560000433202A0B60F0D1FFF7CCFF002840F0A5
:10257000A080FFF7C7FF40B1534B544AC3F8302542
:102580004FF050230122C3F858254FF47F03D3F8AE
:102590003021D3F83431072A09D1023B032B06D866
:1025A0004B4AD35C1BB100224A4BC3F84C25FFF7C2
:1025B000A9FF50B14FF05023D3F80024D10742BFF8
:1025C0000022C3F81421C3F818214FF47F03D3F875
:1025D0003021D3F83431072A09D14FF05023D3F8F2
:1025E0000024D20744BF6FF00102C3F80024FFF7B4
:1025F00089FF18B16522334BC3F80C274FF47F03D2
:10260000D3F83021D3F83431072A16D1314BD3F81F
:102610002034002B11DA4FF050230322C3F8182581
:1026200001229A60D3F80421002AFBD00022C3F8CB
:1026300004210122DA60C3F818254FF47F03D3F890
:102640003021D3F83431072A23D1023B032B02D89F
:10265000214AD35CEBB17E221A4B1B49C3F80C27ED
:10266000C3F83C297F231D4AC2F818310023C1F862
:10267000043EC1F8083E01F54821C1F81031C2F806
:102680002431C2F82C3102F5FF1202F58052C2F853
:10269000A032134AD2F88C3043F44063C2F88C3035
:1026A000104A114B1168C3F84415D269C3F84C2580
:1026B00008BD2922034BC3F80C270322C3F83C278B
:1026C00057E700BF00400050009003504400EFBEA9
:1026D000586700000020035054670000002000509D
:1026E00000ED00E00080FF0000600050014B18602A
:1026F000704700BF580A002010B5054B14461868F3
:1027000002F0A0FB0028A4BF2070002010BD00BF75
:10271000580A00200123024A8340C2F8043570475A
:1027200000700150014B00201B6818475C0A002014
:10273000014B1B68184700BF5C0A0020014B0920B1
:102740001B6818475C0A0020014B08201B681847CB
:102750005C0A002010B5144C237913BB01232371AC
:10276000124B0028206018BF184600F037F8D0B987
:1027700023680F48002B08BF184600F0B9F890B93D
:1027800023680C48002B08BF184600F0F9F850B930
:1027900023680948002B08BF1846BDE8104000F028
:1027A00063B86FF0770010BD5C0A00202527000099
:1027B0003D270000312700004927000008B5064BDF
:1027C0001B6843B10520FEF79DFB20B9BDE808401A
:1027D0000520FEF789BB08BD5C0A0020074B0246B6
:1027E000187938B91A6001221A714FF05023C3F8D2
:1027F000142570476FF07700704700BF640A00200F
:102800004FF050230022C3F80021D3F80021012209
:1028100008491A60096811B1C3F804237047D3F856
:102820000021002AFBD00022C3F80021D3F8003198
:10283000704700BF640A00204FF05023D3F80423F0
:10284000D2070DD5D3F8002152B10022C3F80021E0
:10285000D3F800210122C3F80823024B1B68184754
:10286000704700BF640A0020054B0246187918B96A
:102870001A6001221A7170476FF07700704700BF2D
:102880006C0A00204FF050230022C3F82021D3F817
:10289000202101229A61094A126822B14FF4807204
:1028A000C3F804237047D3F82021002AFBD000226C
:1028B000C3F82021D3F82031704700BF6C0A0020F4
:1028C0004FF05023D3F80423D2050ED5D3F820219E
:1028D0005AB10022C3F82021D3F820214FF480728E
:1028E000C3F80823014B1B68184770476C0A002087
:1028F000074B0246187938B91A6001221A714FF055
:102900005023C3F8802570476FF07700704700BFF1
:10291000740A00204FF050230022C3F82421D3F87A
:10292000242101221A62094A126822B14FF400726E
:10293000C3F804237047D3F82421002AFBD00022D7
:10294000C3F82421D3F82431704700BF740A002053
:102950004FF05023D3F8042392050ED5D3F8242149
:102960005AB10022C3F82421D3F824214FF4007275
:10297000C3F80823014B1B6818477047740A0020EE
:10298000074B0246187938B91A6001221A714FF0C4
:102990005023C3F8182570476FF07700704700BFC9
:1029A0007C0A00204FF0502310B5D3F818141E4CA9
:1029B00011F4803FD3F818241AD002F00302022A3F
:1029C00004D0012A01D002F003FB01224FF0502372
:1029D000C3F818250022C3F80421D3F804210122EA
:1029E0009A6022688AB9D3F80421002AFBD014E047
:1029F000D3F81424D207E8D5D3F81C2402F003023C
:102A0000013A012ADFD822681AB10222C3F804234E
:102A100010BDD3F80421002AFBD00022C3F8042102
:102A2000D3F80431F4E700BF7C0A0020F8B54FF07A
:102A3000502301250026D3F80443184F04F08204E4
:102A400004B9F8BDB4FA84F0C0F11F00830003F5A7
:102A500080739BB203F15023196805FA00F224EA4F
:102A600002040029ECD01E601B684FF0502301289F
:102A7000C3F808230ED1D3F81824D3F8182402F091
:102A80000302012A06D10221C3F81815C3F8041362
:102A90009A60D5E73B68C0B29847D1E77C0A00202E
:102AA000036803F01F025B09026004D0012B034896
:102AB00018BF002070470248704700BF00288450AC
:102AC00000258450034A4309D35C00F01F001844DA
:102AD000C0B2704760670000034611F0010010B5F6
:102AE000CCB20BD1A207C4F340000DD5074A106A3F
:102AF00058601062003818BF012005E004490A6AD6
:102B00001A600A62002AEDD010BD00BF0028845070
:102B100000258450F7B504460846FFF7D3FF06B2F8
:102B200004EB4606B38A0D46DB072BD5204602F0A0
:102B300052FB2946204602F0BEFA58B1204602F068
:102B4000D0FA0022276800B207EB8003C3F81025F3
:102B5000C3F810252946204602F0ECFA002101A80E
:102B6000B1820195FFF79CFF019B00EB8300D0F839
:102B70000022064B134043F00203C0F8003208461F
:102B800003B0F0BD6FF01500FAE700BFF0F0FCFFF6
:102B900070B590F88C40054690F88D6024BB2146B6
:102BA0006022143002F06FFE2146114B286853F862
:102BB00036608E420ED10024C0F87C41D0F87C31C2
:102BC00040F30730FEF790F90123204685F88C305A
:102BD000AB6770BDCBB29B0003F580727C2B04BF4A
:102BE000845083580131E4E76FF07700F1E700BFCC
:102BF000A85E000090F88D00024B03EB800002F00D
:102C00003BB900BFC800002010B5064B90F88D00FE
:102C10000C4603EB800002F015F90028A4BF2070D9
:102C2000002010BDC80000202DE9F04F814659F862
:102C300004BB90F88D40DBF804136B4BC9B280469F
:102C400053F8342058468BB041F0004102F09CFA12
:102C5000051E36DA0023CDE90833634B08A803EBE1
:102C6000C4035B6819460193FFF736FF042303EBA7
:102C7000C40303935D4B0DF1200A02930023029AD3
:102C8000009312F8013B58490292039A02EBD302D7
:102C90008A5C03F0070322FA03F3DA0719D4009BD6
:102CA0000AF1040A9BB14FF000410022584602F09D
:102CB0006BFA019908A8FFF70FFF0028DAD125F079
:102CC00000450124002D78D10BB0BDE8F08F012321
:102CD000D5E7009B464A13440493DAF80010002914
:102CE000DDD091FAA1F1B1FA81F1049B1C7841EA9F
:102CF00044142046FFF7E6FE08EB4000878AC80828
:102D0000BB08059301231AF8002001F0070103FA1C
:102D100001F122EA01020AF8002007A80794FFF750
:102D2000BFFE079A059B803250F82220C7F3820627
:102D30005B073746C2F3014223D54846D6B2214647
:102D40003A4602F0D8F907A80794FFF7A9FE079BB7
:102D5000803350F82330C3F301439E4207D1002152
:102D6000204602F099F93146204602F095F907A86D
:102D70000794FFF795FE0122079B02FA03F3036213
:102D8000ABE7022A0DD10321204602F085F906F0B7
:102D90000503012BEBD13A462146484602F0ABF938
:102DA000E5E702212046059202F076F9032EF2D0E3
:102DB000059A032ADBD1022EECE795FAA5F3B3FAC4
:102DC00083F304FA03F225EA020503F5A2725BF825
:102DD000222008EB43034846B3F87C10C2F30142BB
:102DE00002F089F96EE700BFA85E0000706700007E
:102DF0007067000010B504464521034801F022FE2B
:102E0000204602F0D5FB00BF72670000F7B504460C
:102E10000D46EFF31187202383F31288BFF36F8FE2
:102E20001A4A0428966898BF194B127C94BF53F82D
:102E30002030184B009245210246174801F002FE4F
:102E40003DB1EB69C3F308031BB14521134801F001
:102E5000F9FD36B1304602F033FC034608B1027882
:102E600002B90F4B324645210E4801F0EBFD2946D1
:102E70002046FFF7BFFF87F31188BFF36F8F3046FF
:102E800003B0BDE8F040FDF7D3BF00BF840A0020C7
:102E9000B85E0000866700009C670000C9670000FC
:102EA00094670000EF67000038B50A4B53F82040E4
:102EB000013053F82050A54200D838BD606830B1C9
:102EC000037FDB0701D402F050FB0834F3E72368EB
:102ED0009847FAE7CC5E0000012270B52A4B032028
:102EE00086B01A70FFF7E0FFFEF742FBFDF77EFBAE
:102EF0000420FFF7D9FF254C254D2646AE4204F1AC
:102F0000300410D300F056FC204C224EAC4226D3A5
:102F100000F064FCFDF736F91F4A137B23F0010330
:102F2000137306B070BD54F80C3C059354F8103C74
:102F3000049354F8143C039354F8183C029354F847
:102F40001C3C019354F8203C009354E90A2354E9B3
:102F50000C0100F025FA54F8303C5E65CDE7D4E969
:102F60000A23B3F1FF3F08BFB2F1FF3F05D052EA99
:102F70000301206803D100F0EDFC3034C6E7314690
:102F8000183000F085FEF8E7910C0020885C000006
:102F9000885C00009157000068020020B02370B5E3
:102FA000144E86B003FB0066134B012205930F23DA
:102FB000CDE903320023CDE9013314234FF4A0728D
:102FC0000E4D0F4903FB0055044602FB00110D4B4B
:102FD0003046009500F0E4F9737B2C7423F0040371
:102FE0007373094B013403EBC423EE606B6006B0CE
:102FF00070BD00BFB801002056680000840A0020A0
:103000009814002081560000980C0020BFB50020C5
:10301000FFF74AFF294B03F5006282F3088883F328
:103020000A880024E023264D264F85F82230EC77CD
:103030002C766C76AC7685F820406B6A43F4E023FE
:103040006B6285F82340FDF76DFEFDF7DFFF4FF063
:10305000FF33AB62EB62FEF779F9FDF7FBFF1A482D
:1030600000F004FAFEF766FA0120FFF71DFF0220C8
:10307000164DFFF719FF00F0E5FB154B15495D6193
:10308000154B4FF48062059301232846CDE9034395
:10309000CDE901443B46009400F082F906466A7B84
:1030A000284622F004026A7302F046FB2046FFF72E
:1030B00075FF3A4631462846FDF786FF980C0020FA
:1030C00000ED00E0D92E0000180300206802002067
:1030D000840A0020D81500205B680000002038B565
:1030E000054C064DAC4200D338BD204602F068FACC
:1030F0000028F9DB1C34F5E74401002044010020DE
:1031000073B50C46EFF31181202585F31288BFF3C8
:103110006F8FC5685DB125602B68C360836901331B
:103120008361002081F31188BFF36F8F11E052EAB1
:10313000030603D16FF00B002560F3E7CDE9002310
:103140000246083000F07CFA18B9034B9B681B69F3
:10315000236002B070BD00BF840A00202DE9F34156
:10316000044617461E46EFF31188202383F3128886
:10317000BFF36F8FC368334A7BB180689168884220
:1031800019D057EA060318D188F31188BFF36F8F5F
:103190006FF00F0002B0BDE8F081916891F90E1058
:1031A0000133E36093682161A36088F31188BFF362
:1031B0006F8F0020EEE72169F2E791F90E1090F988
:1031C0000E306FF07E029942A8BF19469142B8BFF7
:1031D00011468B422DDD02F05EFA0546224641463D
:1031E000CDE90076184800F02BFA0028E1D0EFF383
:1031F0001186202383F31288BFF36F8FA068D0B1AC
:10320000236821699C420AD04BB193F90E30994250
:10321000A8BF19466FF07E039942B8BF194602F065
:103220003AFA40B13146084800F09EFA6FF00A00C1
:10323000B0E70025D2E7002DF4D186F31188BFF363
:103240006F8FF3E7840A0020920C0020F8B58368A2
:103250000546002B40D0234A926893423FD1C36871
:10326000012B03D9013BC3600020F8BDEFF31187A8
:10327000202383F31288BFF36F8F0169806802F007
:103280000AFA2C68AC4207D10023C5E9023387F360
:103290001188BFF36F8FE7E7002CF5D0D4E9003237
:1032A000002613605A60637BC4E9006623F00203C2
:1032B0006373A66004F1180002F0ACFAAC6094F9F4
:1032C0000E3020462B61C4F8AC6002F035FA394666
:1032D000054800F049FAC7E76FF01500C5E74FF061
:1032E000FF30C2E7840A0020920C002070B5EFF393
:1032F0001186202383F31288BFF36F8F0468A042E6
:103300001BD0D4B1D4E90032002513605A60637B2E
:10331000C4E9005523F002036373A56004F11800AB
:1033200002F078FA2046C4F8AC5002F005FA3146B3
:10333000BDE87040064800F017BAD0E902329A4260
:1033400018BF0133836086F31188BFF36F8F70BDA0
:10335000920C002013B5EFF31181202484F312881E
:10336000BFF36F8F846844B1013C846081F311889E
:10337000BFF36F8F002002B010BD52EA030406D1E4
:1033800081F31188BFF36F8F6FF00F00F3E7CDE982
:1033900000230246014800F053F9ECE7920C0020AC
:1033A0002DE9F04F984685B000F15803C0E9163377
:1033B000129B002503730423D61D26F007064373D2
:1033C000119B01EB060A0F46C0E906555146856080
:1033D0008373C5730446DDF838B0DDF84C90FDF713
:1033E00075FA109B073020F00700C4E92576C4F871
:1033F0009C0002930F9BAAEB0006CDE900B3324676
:10340000434639462046FDF7C3FD0F9BC4E9188BA0
:10341000A366109B6565E366EFF31183202282F3B8
:103420001288BFF36F8F104F3A6A3C62226783F3B2
:103430001188BFF36F8FB9F1000F11D01F224946D9
:1034400004F1740002F027FA84F89350BB680BB1C2
:10345000D3F8A0303046C4F8A03005B0BDE8F08FF6
:1034600084F87490F2E700BF840A002040F2011350
:1034700083810023C0E92533C0F8A030014B986058
:10348000704700BF840A00206FF00A01094A936860
:10349000C3F8AC100849C3F8A8004B6843F0805348
:1034A0004B60002383F31188BFF36F8F9368D3F8C9
:1034B000AC007047840A002000ED00E070B590F980
:1034C0000D20437B002A36DBD90634D11B4C63F038
:1034D0007F032246437352F8183FE169934207D1B4
:1034E000C0E900210860E06111E09942F8D01B6852
:1034F000002BF5D090F90E5093F90E60B542F4D040
:10350000AE42F2DD5968C0E9003108605860A56933
:10351000954200D005B9E568A3685A7BD20604D16C
:10352000DA897F2A01D9AA6932B1AB4202D0284692
:1035300000F00AFB656170BD6361FCE7840A00204E
:1035400038B590F90D200146002A437B04DA03F0D8
:103550007F03437302F0B6F80D4D2A4652F8184F18
:10356000AB68944200D004B9EC688B4207D05A7B18
:10357000D20604D1DA897F2A01D9A2692AB1A342ED
:1035800002D0204600F0E0FA23466B6138BD00BF50
:10359000840A0020B3F1FF3F08BFB2F1FF3F03D020
:1035A0000249183000F074BB704700BF915700000B
:1035B00070B590F90D200146002A437B04DA03F030
:1035C0007F03437302F07EF81C4C4B7B224663F072
:1035D0007F034B7352F8183FE069934207D1C1E96A
:1035E00000200160E16111E09842F8D01B68002BD7
:1035F000F5D091F90E5093F90E60B542F4D0AE4279
:10360000F2DD5868C1E9003001605960A569A3681E
:10361000954200D005B9E5688B4207D05A7BD206A7
:1036200004D1DA897F2A01D9AA692AB1AB4202D032
:10363000284600F089FA2B46636170BD840A002099
:10364000F8B5DDE906670D4B0C46986811460C4A43
:103650001060EFF31182202282F31288BFF36F8F84
:103660009D68284602F040F8284632463B46FFF760
:1036700091FF2046BDE8F840FFF706BF840A00200E
:10368000A80A0020F8B50446EFF31187202383F33E
:103690001288BFF36F8F437B49B203F01F02002AE9
:1036A0000CBF0126002639D103F07F032D4D437353
:1036B00002F008F82A46437B817363F07F0343736B
:1036C00052F8183F934227D1E869C4E9002004600A
:1036D000EC610FE09842F8D01B68002BF5D093F90D
:1036E0000EC06145F6D08C45F4DD5968C4E900315F
:1036F0000C605C60AC69944200D004B9EC68AB68C3
:103700009C4202D0204600F01FFA6C6187F31188BA
:10371000BFF36F8F3046F8BDE869DEE79B071ED523
:10372000856801F0CFFF81732B689D4209D16B68DA
:10373000C4E900531C606C60E8E76A689342F6D005
:103740001B68002BF3D093F90E209142F5D08A42EA
:10375000F3DD5A68C4E9003214605C60D6E7817317
:10376000D4E700BF840A002049B9EFF3058030B9DF
:10377000054B5A699B689A4201D0FFF785BE81F3D9
:103780001188BFF36F8F7047840A0020034648B941
:10379000EFF3058232B9064A51699268914201D02D
:1037A000FFF772BE83F31188BFF36F8F704700BFBE
:1037B000840A0020EFF31181202383F31288BFF3E2
:1037C0006F8F054B9A68D37B013BD37381F31188CC
:1037D000BFF36F8F704700BF840A002070B5EFF30E
:1037E0001186202383F31288BFF36F8F144DAB68CB
:1037F000DA7B0132DA732A4652F8184F944200D02D
:1038000004B9EC685A7BD20604D1DA897F2A01D93F
:10381000A2692AB1A34202D0204600F095F92346BE
:103820006B6186F31188BFF36F8FEFF31180202354
:1038300083F31288BFF36F8FBDE87040FFF7A6BF18
:10384000840A0020024B03F11802C3E906227047E4
:10385000840A002070B5EFF31186202383F31288C9
:10386000BFF36F8F1B4CA168E0690B68814214BFE6
:103870001A46002249680B605960A368E1692AB9B9
:10388000154AC3E900210B60E3610CE093F90E00D7
:1038900092F90E50A84218D0854216DD5168C3E94E
:1038A00000210B605360A5690B4B9D4200D005B908
:1038B000E568A3689D4202D0284600F045F965619D
:1038C0003046BDE87040FFF7DFBD8A42D8D01268AD
:1038D000D5E700BF840A00209C0A0020F8B550EA12
:1038E000010306460C4603D1FFF7B4FF0020F8BDE4
:1038F000EFF31187202383F31288BFF36F8F124DEC
:10390000124BA8681860FFF71BFEA86823463246D2
:103910000F49183000F0BCF9AA680446537B3846BA
:1039200043F004035373FFF7AFFDAB68D3E90A23F9
:10393000B3F1004F08BF002AD8D101F093FF201A3D
:1039400020EAE070D3E700BF840A0020A80A002024
:103950009157000038B50446EFF31185202383F317
:103960001288BFF36F8F437B5B070FD5183001F0D0
:1039700051FF637B204623F004036373FFF79EFD32
:103980002946BDE838400448FFF7EEBE85F31188AC
:10399000BFF36F8F38BD00BF920C0020014B9868B9
:1039A000704700BF840A00202DE9F8430446077BD6
:1039B000EFF31185202383F31288BFF36F8F437BCE
:1039C000190705D585F31188BFF36F8FBDE8F8831C
:1039D000D90943F0080260D14273A36813B12046AD
:1039E00001F078FE04F1180001F014FFA66D04F157
:1039F0005808B04511D04FF0000976B1304601F0BB
:103A000069FE06F1180001F005FF3046C6F8AC90DB
:103A1000FFF754FDA66DB045EFD1DFF8C480D8F8AC
:103A200008309C4241D1EFF30589B9F1000918BF74
:103A30004FF00109D8F818602A4A964200D00EB912
:103A4000D8F80C60B34202D0304600F07DF8204632
:103A5000C8F8146001F01CF8204600F0CDF8B9F168
:103A6000000F02D02048FFF701FDD8F808309C4233
:103A700031D1EFF3058373BB227BD20718D42846DC
:103A8000FFF702FDFB07A1D5002383F31188BFF3E5
:103A90006F8F0423184602DF98E703F07F0343F09B
:103AA0000803437301F00EFE97E74FF00009C1E7EA
:103AB00085F31188BFF36F8F83F31188BFF36F8F86
:103AC0000423184602DFEFF31180202383F31288CA
:103AD000BFF36F8FD4E785F31188BFF36F8FD1E702
:103AE000840A00209C0A0020180300200122044BB5
:103AF000C01A044BC0105843034B1A54704700BF00
:103B0000C8030020ABAAAAAA920C0020C3897F2B6D
:103B100012D80A4B1B6863B1094B90F90E201B6841
:103B20009A4209DB437BDB0606D1064BC31A18BF5A
:103B3000012303F0010070470023FAE7D0000020C2
:103B4000AC0A0020B801002070B50E4B0E4C1E7C54
:103B5000054606EB460304EBC304204601F05AFE7B
:103B600000220A4B28469A55FFF7D0FF48B1084B70
:103B70002046BDE870401A680649013AD31700F0A4
:103B800087B870BD840A0020C8030020920C002072
:103B9000D0000020ED3A000038B5EFF31185202366
:103BA00083F31288BFF36F8F104B114A9C68106823
:103BB000A04206D1FFF7C8FF85F31188BFF36F8FCE
:103BC00038BD00211B7C11600A4AD35C002BF3D066
:103BD0002046FFF79BFF0028EED0637BDB0602D177
:103BE0002046FFF7E5FC2046E4E700BF840A0020FA
:103BF000A80A0020920C0020EFF31181202383F308
:103C00001288BFF36F8F0A4A136A834207D11B6F72
:103C1000136281F31188BFF36F8F70471346002B37
:103C2000F7D01A6F8242F9D1026F1A67F1E700BF2D
:103C3000840A0020024B1868984208BF0020704791
:103C4000D4000020034B1B680BB9FEF751BC0020C9
:103C5000704700BFB00A002030B570B10B4B5B68F5
:103C600098420AD0036843B1D3E90421D0E904455E
:103C7000121941EB0501C3E90421D0E900321360B8
:103C80005A600023C0E9003330BD00BFD4000020DB
:103C9000B3F1FF3F08BFB2F1FF3F2DE9F84F0446F3
:103CA000994615461F467AD08160EFF3118820238C
:103CB00083F31288BFF36F8FB9F1000FDFF8E4A030
:103CC00020DBFFF7BFFFDAE90027013549F10009E2
:103CD0002D1849EBE07306464FF00109C4E904537F
:103CE000AD1843EB0707FFF7A5FF0346DFF8B8E081
:103CF000DEF804A0EBB9C4E900EACAF80040CEF847
:103D0000044028E06FF00103DAE900125B1A4FF07B
:103D1000FF3161EB02025B1B62EB0902012B72F1C6
:103D20000001BCBF012300224FF00009C0E90432AA
:103D3000D9E7D3E9041CD4E904208A4270EB0C0BC8
:103D400024DA891A5A686CEB0000C3E90410C4E94C
:103D5000003214605C60FFF76DFF84420ED1134B9C
:103D60001B685BB9B9F1000F02D1FFF76BFF064684
:103D7000304601F038FD0021FEF78CFB88F31188F6
:103D8000BFF36F8F28463946BDE8F88F521A60EBB3
:103D90000C009A45C4E90420ADD01B68AAE70025B1
:103DA0002F46EFE7E0030020D4000020B00A0020F7
:103DB0002DE9F047EFF31185202383F31288BFF339
:103DC0006F8FDFF8A0900026C9F800000027FFF7EA
:103DD00031FFDFF89480D9F80030D8E900ECD9172A
:103DE00050B1D0E90442A34271EB020A1BDAE41A93
:103DF00062EB0102C0E90442002413EB0E034CEB1A
:103E000001012046C8E90031C9F8004001F0EBFC8F
:103E10002146FEF73FFB85F31188BFF36F8FBDE8A6
:103E2000F047FFF7B9BE14EB0E024CEBE473C0E9A8
:103E30000467C8E90023FFF70FFF85F31188BFF37C
:103E40006F8F83689847EFF31185202383F31288DF
:103E5000BFF36F8FD9F800301B1BC9F80030FFF794
:103E6000E9FEB8E7B00A0020E003002010B5EFF348
:103E70001184202383F31288BFF36F8FFFF7E2FED4
:103E80000346054AD2E90001181841EBE37184F3B7
:103E90001188BFF36F8F10BDE003002010B50A4CEE
:103EA00023681BB101232360002010BD00F0F4F84B
:103EB0000028F7D00138072803D8044B53F8200016
:103EC00010BD034810BD00BFB40A0020E45E00002E
:103ED000FE8FFFFFBFF34F8F0549064BCA6802F400
:103EE000E0621343CB60BFF34F8F00BFFDE700BF1D
:103EF00000ED00E00400FA0530B44FF0FE3200257A
:103F00000B4B0C4C0C494968C3F80024C3F804243B
:103F1000C3F80824C3F80C24C3F81024C3F81424ED
:103F2000C3F81824C3F81C24C4F8005530BC084753
:103F30000050845000408450DC000020024BD0E947
:103F40000012C3E900127047DC00002010B50446DF
:103F500050B1636813F0685F05D0064A934202D0FF
:103F600000236260236010BD034B04485B689847E0
:103F7000EFE700BF2C5F5CA9DC000020045F0000BD
:103F8000C8B143680D4A934213D013F0685F0ED056
:103F9000012350E8002F194640E8001C9CF0000F58
:103FA000F7D1012AF5D0BFF35F8F00207047044896
:103FB0007047044870476FF4E04070472C5F5CA97D
:103FC000E98FFFFFEA8FFFFF034680B1426809498E
:103FD0008A420AD012F0685F05D0BFF35F8F0022DB
:103FE00010461A60704704487047044870476FF4E1
:103FF000E04070472C5F5CA9E98FFFFFEA8FFFFF6D
:1040000010B5044620B10023034A2360626010BD4E
:104010000248FFF771FFF6E73A00003A2C5F000014
:1040200070B5194CD0F804C00668C4F804C0D0F8C4
:1040300008C0C068C4F808C0E06026600868134B78
:10404000134D18604868D5F818215860886812F038
:10405000685F9860C8680969D860196112D0002348
:104060000C4A05F58A70C5F81431C5F8B831C5F8A1
:104070001821C5F8BC21B047236805F5DC70BDE800
:104080007040184770BD00BFF8000020E400002019
:10409000CC0A00202C5F5CA908B500F011F830B9FB
:1040A00000F010F838B9054AC2F80C0A08BD00F053
:1040B00037F8032008BD042008BD00BF005084501D
:1040C0000020704710B5114800F048F800B110BD4D
:1040D0000F4800F043F80028F9D10E4C204600F0BC
:1040E0003DF80028F3D10C4B0C481C6000F036F86A
:1040F00001460028EBD100F02DF8044608B1204617
:1041000010BD00F03FF82046FAE700BF380100205C
:104110003401002030010020280100202C01002063
:1041200008B5084800F024F8074800F021F80748CF
:1041300000F01EF8064800F01BF8BDE8084000F04B
:104140000BB800BF380100203401002030010020EE
:104150002C01002000207047704700BF08B5034BBA
:1041600002681B6810689847002008BDF80000200E
:1041700008B5034B02685B6810689847002008BDCB
:10418000F800002070B5094C094D2069AB689847CC
:1041900018B1084B08485B6898470021074AEB684C
:1041A00011602069BDE87040184700BFE40000209E
:1041B000F8000020DC000020505F0000C80A00204A
:1041C0002DE9F04F43688DB0154680460293837801
:1041D0009A0740F10D8100240E78002E00F00A812C
:1041E000252E0BD04B1C0393013441463046029BD5
:1041F00098470028C0F2F6800399EDE74E788B1CB3
:10420000252E0393F0D00027B946BB46BBF11F0F04
:1042100038D8A6F12003102B0AD8DFE803F02A09CA
:1042200009300909092109090928092D09091F006F
:10423000A6F13003092B33D92A2E37D11BF0400FBA
:1042400055F8043B40F08280002BA7BF4BF0200BB9
:104250009946C3F100094BF0280B01E04BF0010B2C
:10426000039B13F8016B0393002ECFD130E04BF08A
:10427000020B4BF0040BF3E74BF0080BF0E74BF0AD
:10428000100BEDE7BBF17F0F19D8A6F13003092B16
:10429000D2D81BF0400F03D00A2101FB0737DFE71C
:1042A0000A214BF0200B01FB0939D9E72E2E06D14C
:1042B0001BF0400F40F09E804BF0400BD0E76C2E7F
:1042C00031D02BD8682E36D06A2E3CD04C2E3AD026
:1042D000002F46F02003B8BF2BF04002A3F1650188
:1042E000BCBF00271FFA82FB022901D9612B2FD105
:1042F00007350727DFF8ACA225F0070508351BF0C6
:10430000080F66D00AEB070B56465E4563D1A4EB57
:104310000A0AA9EB070906EB0A026FE1742E9FD087
:104320007A2E9DD0D4E71BF0800F18BF4BF4007B92
:104330004BF0800B94E71BF4807F18BF4BF4007B9D
:104340004BF4807B8CE74BF4207B89E71F4687E7A3
:10435000A6F16301122900F2F080DFE811F01300EA
:104360004F00EE00EE00EE00EE004F00EE00EE001B
:10437000EE00EE00EE00FE00E900EE00EE001B0095
:10438000EE00AF0055F8043B01270DF1180A8DF837
:104390001830B4E755F804AB834BBAF1000F08BFEF
:1043A0009A461BF0400F504614BF39464FF0FF317C
:1043B00001F081FA0746A2E741462020029B984778
:1043C00000280FDB013EB742F6D34C44B146A41B94
:1043D00098E74E46F7E7414616F8010B029B9847CF
:1043E000002892DA98F8023043F0040388F802308B
:1043F0004FF0FF3420460DB0BDE8F08F1BF0800F6A
:1044000034D01BF4007F2CD0073525F00705AA46D1
:1044100069685AF8080B2BF010050029ADB237DA9D
:10442000404245F4806561EB41010DF1180B0A2310
:104430005A4601F04CFAA0EB0B0301936B0662D5D0
:10444000019B25F001019F4289B240F3A180002E1B
:1044500000F0998015F0100240F09C80BB460D469C
:1044600023E0AA465AF8040BC117D4E7AA461BF466
:10447000807F5AF8041B01D10846F5E71BF4007F42
:1044800019BF48B241F3C01108B241F3C031C2E7CD
:1044900050EA0103C9D11BF0400FC6D0002FC4D190
:1044A0002BF01102BB46019795B240F2064115EA86
:1044B00001021CBF0BF1010B00222CE02BF01002BB
:1044C0000A231FFA82FB1BF0800C49D01BF40071F9
:1044D00015BF0735AA4625F007055AF8040B1EBF7D
:1044E000AA4669685AF8080B50EA010545D12BF035
:1044F00016051BF0400FADB242D0002F40D12BF07B
:104500001702019795B215F0100248D0019B002EBA
:1045100042D103F1010B29075AD4EB0706D5D9453F
:104520006FDDA9EB0B030199CB465F185B4649E0B1
:104530004BF0100B10237826C5E7782B04D1C6F179
:10454000780343F01003BEE741462520029B9847BD
:104550000028FFF647AF023447E608230026B2E7FB
:10456000AA461BF480715AF8040BBDD01BF40071ED
:104570001ABFC0B2614680B2B6E72BF0060295B210
:104580000DF1180B54E725F01105BB46ADB28CE7D1
:104590000D46B8E73B460D4603F1020BBBE7DDF8DD
:1045A00004B082E76A68000063680000CDE9043265
:1045B00041462020029B98470028FFF613AF049B3A
:1045C000059A01339945F1DCA4EB0B019B46CC180D
:1045D0000AB341463020029B98470028FFF602AFFD
:1045E0008EB901342744391B019B994224DC1D46B6
:1045F00055BB019AA9EB0B09554622441446914438
:1046000033E0019F92E7023441463046029B9847CF
:104610000028E7DAE6E640F206410D42E2D015F066
:10462000020F04F10104414614BF2B20202015F491
:10463000806F18BF2D20E9E741463020029B0134EE
:1046400098470028CFDACDE606AB013D4146585DDC
:10465000029B98470028CBDAC4E641462020029B03
:10466000013498470028FFF6BDAEA9EB0403002BE8
:10467000F3DCC1E5704703460A46F0B41979DB88DC
:1046800000681343DC028768066906D513F4402FDF
:1046900003D0DA0748BF83F44023012534688D40F6
:1046A00023F48012DB074CBF2C43AC4334603B68DF
:1046B000F0BC1847836800EBC101B3F5004F2CBF75
:1046C00051F8220031F81200704700EBC1018068F8
:1046D000B0F5004F2CBF41F8223021F8123070475E
:1046E000012208B5FFF7E6FFD04008BD836800EB64
:1046F000C101B3F5004F08D34B681AB143F0010371
:104700004B60704723F00103FAE74B881AB143F07E
:1047100001034B80704723F00103FAE753000122A5
:10472000FFF7D3BF8368481CB3F5004F34BF0423A1
:1047300008230833A0EBD300B0FA80F0C0F11F00CB
:1047400070472DE9F0410D4686680446FFF7C8FF23
:10475000B6F5004F014601D3012832D02046FFF7BD
:10476000E1FF04EB80010E6996B90122E368824003
:104770001343E36002220D612B4629462046FFF7D2
:10478000A4FF032229462046BDE8F041FFF79DBF64
:10479000022231462046FFF78DFF07460346294691
:1047A0002046FFF792FF0322334629462046FFF7B3
:1047B0008CFF39462B462046FFF787FF0222314601
:1047C000E1E7BDE8F081B2F5802F2CBF0823042378
:1047D0002DE9F0410026D21A8C18CD1D25F00705D1
:1047E00024F00704641BE408056021462846AC60F9
:1047F000EE60FFF797FF421D9200013002F10707BC
:104800004FEAD7073146A2F1100205F11000B8BFF8
:10481000324601F038F83A4631462846FFF77EFF27
:104820003346324631462846FFF74FFFA4EB0708D0
:10483000284631460122FFF759FF42463946FFF725
:104840006DFF3B46324639462846FFF73EFF21467C
:104850002846FFF763FF4346324621462846FFF7C6
:1048600034FF214628460122FFF740FF3946BDE8C4
:10487000F041FFF766BF002070470FB407B504A9E9
:1048800051F8040B0191FBF70DFD03B05DF804EB4B
:1048900004B07047038B13F0070305D10368002BA6
:1048A0000CBF002003207047022B05D1408BB0FACB
:1048B00080F0400980007047012B05D10368002B70
:1048C0000CBF0020052070470020704710B50C4633
:1048D00000B111B96FF0150010BD081D00F093F87C
:1048E0000028F9D1A368032BF6D9F3E72DE9F041AD
:1048F0000D4607461946281D90461E4600F094F8BE
:10490000044638B13346424629463846A446BDE8F7
:10491000F0416047BDE8F08110B4EFF3118220242C
:1049200084F31288BFF36F8F416110BC0121FBF744
:10493000EBBC38B50C46054658B151B10B6843B1D4
:104940004B6833B11C22002100F09DFF00202C6138
:1049500038BD6FF01500FBE770B505460E46FFF752
:10496000B5FF041E14DBEFF31182202383F31288BA
:10497000BFF36F8F4FF6FF716B8B2C8B8B4204F064
:10498000070407D182F31188BFF36F8F6FF00A0419
:10499000204670BD022C0CD101336B8382F3118849
:1049A000BFF36F8F0023224631462846FFF79EFF54
:1049B000EEE7062C14D8DFE804F004131313041AEE
:1049C0000400002333606B683BB9C5E90066ACB9ED
:1049D00002212846FBF798FCDAE71E606E60F6E7D6
:1049E00082F31188BFF36F8F6FF00404D0E782F376
:1049F0001188BFF36F8F6FF08504C9E782F31188C8
:104A0000BFF36F8FC4E7034658B1426802F0030258
:104A1000012A03D0032A04D1026812B10020986051
:104A200070476FF0150070474268034602F00302BA
:104A3000032A4FF00002816014BF104600685A60DC
:104A4000704770470FB407B504A951F8040B0191E2
:104A5000FBF728FC03B05DF804EB04B07047FEE7F9
:104A600000F011BF00F002BF01460068FBF7F2BE84
:104A700008B5FBF727FFBDE80840FBF747BF00215B
:104A80000120FBF7E7BED0F8943083F30B88704722
:104A90006FF08500704761B662B680F31188BFF38E
:104AA0006F8F704708B572B6002383F31188BFF388
:104AB0006F8FFCF70DFD50B1BFF34F8F30BF00BFBC
:104AC00000BF00BF00BF00BF00BF00BF00BF62B695
:104AD000BFF36F8F08BD10B5044672B6002383F391
:104AE0001188BFF36F8FFCF7F3FC50B1BFF34F8F0A
:104AF00020BF00BF00BF00BF00BF00BF00BF00BF9E
:104B000000BF84F31188BFF36F8F62B610BD40E819
:104B100000F313F4803FD8B208BF6FF01500704760
:104B200030B50C684B6885B00A894D890094013B0B
:104B300024F01F04234402F01F0242EA451223F02E
:104B40001F0369468DF808200393FCF7B9FA05B0F6
:104B500030BD08B5FCF788FC002008BD4FF050239D
:104B6000012270B50C460546C3F814260020FCF758
:104B700031FD28462346BDE87040002118470C222D
:104B80000369C9B201FB0233986F00F00700704758
:104B900070B5C9B20369EFF31185202484F312883C
:104BA000BFF36F8F0C2606FB0134A46F14F0C00412
:104BB00008D0A24206D085F31188BFF36F8F4FF063
:104BC000FF3070BD012271430B449A6785F3118851
:104BD000BFF36F8F43680B445B6898470020F0E792
:104BE0008022FFF7D5BFF8B5069F0469C9B2EFF37D
:104BF0001186202585F31288BFF36F8F0C2569433A
:104C00000C44A56F05F0070CBCF1010F0BD1A76791
:104C100086F31188BFF36F8FC4E91C2343685B5888
:104C200098470020F8BD05F0C005AF4286F3118813
:104C3000BFF36F8F0CBF6FF077004FF0FF30F1E7DD
:104C400013B580240094FFF7CEFF02B010BD10B45E
:104C50001C240069CBB203FB0400002110BC1047E8
:104C6000032000F036B9022000F033B9032000F031
:104C70003FB9022000F03CB91046FEF737BB00F008
:104C8000C0B9FDF78FBE436800205B681B690B60ED
:104C90007047436802EA01005B6821EA02019860FC
:104CA0000020D9607047436800205B6899607047B6
:104CB000436800205B68D960704743685A6853684E
:104CC00021EA03000B4090600020D360704710B5CC
:104CD00003695868F8B1884219D19C680868A142F4
:104CE000586000D19860002008602AB15A680A60B4
:104CF0009A68596002B99960002010E0814206D19B
:104D00000868206098688142EDD19C60EBE704461A
:104D100000680028F2D1002AE8D16FF0150010BD1C
:104D2000FDF782BF30B543681360057A446804EB31
:104D3000C504A34202D36FF0010030BD5C798C4200
:104D400001D00833F0E70020F7E743681B68D3F889
:104D50008004C3F88004704742681368D3F81001D8
:104D600050B10020126A12780A70C3F81001D3F80B
:104D7000102101221A6070474FF0FF30704702681F
:104D80000346D2F8580140B95B68DB0706D4D2F875
:104D90002001003818BF0120704701207047436888
:104DA0001B68D3F80423D20517D5D3F82021A2B16C
:104DB000EFF31182202181F31288BFF36F8FD3F8B4
:104DC000201131B10021C3F82011D3F820110121A5
:104DD000D96082F31188BFF36F8FD3F858317047D1
:104DE00013B501AA0446FFF79DFF002805DB019BD0
:104DF000226819791868FCF7BBFF02B010BD6FF08C
:104E000085007047002200F150039B009BB203F124
:104E1000502303F580331A601B68704708B5FDF70F
:104E2000D5F908BDFFF73AB808B5FBF7EDFBFBF77E
:104E3000D3FCBDE80840FFF731B80346002018470F
:104E400000F08FBB024610B5116891B1B1FA81F341
:104E5000C3F11F000123834021EA0303D2E8EF4F8F
:104E60008C4204D1C2E8EC3FBCF1000FF6D1EBD18B
:104E700010BD6FF00B00FBE710B50368CB40DB07FC
:104E800010D401238B40026843EA0201D0E8EF4FBF
:104E9000944204D1C0E8EC1FBCF1000FF6D1F2D16E
:104EA000002010BD6FF01500FBE770B50D46002126
:104EB000064608461446FDF71FFC48B9237843F020
:104EC0000043C6F88030237843F00043C5F88030B3
:104ED00070BD03280BD8DFE800F002040608FDF7D8
:104EE00061BDFDF78DBCFDF715BDFDF7CBBC70476F
:104EF00003280BD8DFE800F00402060800F02EB803
:104F000000F07FB800F062B800F044B8704708B510
:104F1000FDF792FCFDF78AFDFDF71AFDBDE808409C
:104F2000FDF7CEBC38B54FF050240123C4F8083348
:104F30006360002342F21075C4F80031D4F80031E8
:104F4000D4F80C24D4F80C34D20306D5DB0704D5EE
:104F50000120FFF775FF013DF2D138BDFFF7E2BF39
:104F600038B54FF050244FF48073C4F80833012350
:104F7000E361002342F21075C4F82031D4F82031E7
:104F8000D4F85434DB0304D50120FFF759FF013D69
:104F9000F6D138BDFFF7E4BF38B54FF050244FF4D9
:104FA0000073C4F8083301236362002342F21075D2
:104FB000C4F82431D4F82431D4F85C34DB0304D5AC
:104FC0000120FFF73DFF013DF6D138BDFFF7E4BFFB
:104FD00038B54FF050240223C4F808330123E360AE
:104FE000002342F21075C4F80431D4F80431D4F827
:104FF0001834DB0304D50120FFF722FF013DF6D171
:1050000038BDFFF7E5BFF7B51646DDE90847019063
:1050100001A81D46FDF744FD019BB6F1000C18BF29
:105020004FF0010C00EB83000B1E18BF0123002D75
:1050300043EA4C0314BF4FF00C0C4FF0000C002C53
:1050400043EA0C0314BF4FF4706C4FF0000C002FB8
:1050500043EA0C0314BF4FF4403C4FF0000CD0F86F
:10506000002243EA0C0322EA030301B109780EB1DE
:105070003678760019430DB12D78AD0031430CB16F
:105080002478240229430FB13F783F040C433C436A
:10509000C0F8004203B0F0BD1FB50DF10F0301933E
:1050A00000238DF80F101A4619460093FFF7ABFF47
:1050B00005B05DF804FB10B504460846FDF702FD97
:1050C00004EB4004A08AC0F3401010BD10B50446A4
:1050D0000846FDF7F7FC04EB4004A08AC0F340004B
:1050E00010BD10B504460846FDF7ECFC04EB400487
:1050F000A08A400B10BD70B5044608461646FDF761
:10510000E1FC083034F810300D46DA0509D5C3F358
:10511000432304EBC3023146284654F83330526827
:105120009847A3682BB131462846E268BDE8704035
:10513000184770BD10B504460846FDF7C3FC00B221
:1051400004EB4000838ADA051DD5C3F3432123F421
:10515000F853838204F1120204F1720032F8023F24
:1051600013F4807F03D0C3F3432399420BD08242D0
:10517000F4D1002204EBC1035A6004F17800BDE8C9
:105180001040FFF779BE10BDF0B50446002001279E
:105190000546844695420AD1D4F87C3133B10023C8
:1051A000C4F87C31D4F87C3140F00040F0BDEBB263
:1051B0009B0003F580769B0807FA03F3194208D099
:1051C00054F806E0BEF1000F03D044F806C0A6591B
:1051D00018430135DEE738B504460D46FFF76BFF8F
:1051E000B0B12046FFF772FF90B92046FFF779FF74
:1051F000012322688340C2F80833236800B203EB1E
:105200008003D3F8102522F00302C3F8102538BD1F
:105210002846BDE838400021FFF73EBF2DE9F043A6
:105220001746044685B00846FDF74CFCD7F80080C9
:105230000E460546B8F1000F1FD02046FFF746FF87
:1052400018B12046FFF737FF30BB00230DF10F02E6
:10525000CDE900338DF80E308DF80F3030464346DF
:105260000DF10E01FFF7CFFE2AB204EB4202938A42
:1052700023F0020343F0010393827B68002B34D0B8
:105280003146204693F80080D3F80490FFF71EFFC4
:1052900028B1B9F1000F1FD06FF0150028E028B237
:1052A00004EB4000838A23F4604323F020038382CD
:1052B000B9F1000F10D0B8F1030FEDD87B68216869
:1052C0005B6893F800C001EB8C01B8F1000F12D1BC
:1052D000C1F81085C1F810852AB204EB4202938A06
:1052E00023F01C0343EA88039382BB684BBB002076
:1052F00005B0BDE8F083D1F8102522F00302C1F813
:105300001025226802EB8C03D3F8102522F44F32CB
:1053100022F44072C3F810253202D3F8101502F4BB
:105320007C5242EA08420A43C3F8102504EB4C03BE
:10533000A3F87C60838A43EA4C3343F020038382E2
:10534000CAE73146D3E900782046FFF7F3FE002F85
:10535000CDD063689F4206D004F17800FFF772FD5C
:10536000002804DAC4E7A3689845F5D1002004EBCF
:10537000C003C3E901782DB204EB4505AB8AC0B286
:1053800043EA402343F48073AB82B0E72DE9F04356
:10539000054685B0084617461E46FDF793FB0C46AA
:1053A000804637B32846FFF791FE18B92846FFF725
:1053B00082FE28BB0FFA88F905EB4909B9F81430C9
:1053C00013F01C0F02D07B78012B19D001238DF82C
:1053D0000F3000232046CDE900737A1CBB1C0DF171
:1053E0000F01FFF710FEB9F8143043F00303A9F8DA
:1053F0001430002E41D021462846FFF767FE20B921
:105400006FF0150005B0BDE8F083002237782B68F7
:105410004FEA870C03EB8703C3F81025C3F8102568
:105420000FFA88F205EB4202938A23F4604323F0DB
:1054300020039382707800B32968B6786144D1F86C
:105440001035000423F4991323F4F853C1F81035F0
:10545000230200F4403003F47C5303433005D1F8B9
:10546000105500F4801003432B43C1F81035938A84
:1054700043EA473343F0200393820020C2E7C0E9A8
:105480000312704770B504461546FFF714FE48B185
:105490000846FDF717FB04EB40040020A38A5B0BD2
:1054A0002B7070BD6FF01500FBE790F88C00003892
:1054B00018BF01207047FDF72DBB2DE9F3410446CD
:1054C0001746FFF7F8FD0D46266800B32046FFF7A4
:1054D000FDFD8046D8B92046FFF703FE05B2AD00BA
:1054E00005F5807246F802802168B2582944D1F847
:1054F000102542F00102C1F810252FB101222168C8
:1055000002FA00F3C1F8043302B0BDE8F081D6F826
:1055100004332846002BA4BF4FF00043C6F80433E1
:10552000FDF7D0FA04EB4004A38AC3F38203042BF3
:1055300011D0052B11D001A80195FDF7B1FA019BFF
:105540000169D94001F001010231284602B0BDE8ED
:10555000F041FFF7A1BD0321F7E70221F5E7FFF7CF
:105560003ABE08B1FCF724B8704710B54369044649
:105570003BB90020E2684042537843F00103537086
:1055800010BD98470028F4D00028B8BF4042FF283B
:10559000A8BFFF20E3681870ECE740B1C3685878F3
:1055A00010F001001EBF1878B0FA80F04009704773
:1055B000EFF31183202383F31288BFF36F8FFEE78D
:1055C0004169826842EA010313F003030FD1C3600B
:1055D0000369013B03FB0122002B01DA0020704725
:1055E000C168013B11604169C260521AF4E76FF073
:1055F0001500704710B5C0E9043200238160836153
:105600000446FFF7DDFF0028A8BFC4E9004410BD31
:105610002DE9F04105460F46EFF31188202383F36F
:105620001288BFF36F8FC668FEB90468A0421CD011
:10563000DCB1D4E9003213605A60637BC4E90066D0
:1056400023F002036373A66004F1180000F0E2F88F
:105650002046C4F8AC60276100F06EF8414605F1C1
:105660000800BDE8F041FEF77FB83E60AB69EF602F
:10567000013BAB6188F31188BFF36F8FBDE8F08108
:10568000202408B5EFF3118384F31288BFF36F8FE2
:10569000FFF708FAF6E790F90E308B4201D0FDF7DC
:1056A000F1BF0020704703460020C3E90033C3E97F
:1056B00002007047EFF30580003818BF01207047E3
:1056C00074307047D0E9003213605A600023C0E99B
:1056D0000033704708B5FFF7F5FF437B23F0020363
:1056E00043730023836008BD38B504460D46FDF7BB
:1056F00027FF637B43F002036373E5B1A5602B686A
:105700009D4209D16B68C4E900531C606C6012E0D3
:105710006A689A42F6D01B68002BF3D094F90E20E9
:1057200093F90E108A42F3D09142F1DD5A68C4E930
:10573000003214605C6038BD10B5EFF31184202393
:1057400083F31288BFF36F8FFDF7B8FE84F31188DF
:10575000BFF36F8F10BD014610B5EFF31184202306
:1057600083F31288BFF36F8F437B13F0280F0AD1A6
:1057700083680BB1FFF7AEFF4B7B084623F00403B1
:105780004B73FDF79BFE84F31188BFF36F8F10BD41
:1057900001211838FFF7DFBF38B504460D46FEF784
:1057A0009DF8B5F1FF3F08BFB4F1FF3F0246204628
:1057B00018D000204FF47A7447F6FF730146C2FBFD
:1057C0000431B3F5004F71F100020BD36FF40042C6
:1057D0009A4243F6FF728A4132BF6FF00040D80B05
:1057E00040EA414038BD08B50246FEF723FA70B1E1
:1057F000D0E904319B1A61EBE272B3F1004F72F110
:10580000000104DA002AACBF1846002008BD6FF082
:105810000040FBE7024638B5EFF31185202383F300
:105820001288BFF36F8F0368CBB1FEF703FA04460B
:105830001046FEF711FA00224FF000438442C0E9FF
:10584000042306D1FEF7FEF9FFF7CDFF0021FCF798
:1058500021FE002085F31188BFF36F8F38BD6FF0F4
:105860001500F7E708B5FEF701FB08BD0A44431E23
:10587000914200D1704710B511F8014B914203F8E5
:10588000014FF9D110BD02440346934200D1704745
:1058900003F8011BF9E710B50139044632B111F8DC
:1058A000013F013A00F8013B002BF7D10021FFF73F
:1058B000EAFF204610BD0246014410B58A42134655
:1058C00003D01C780132002CF8D1181A10BDF0B5A5
:1058D000C3F13707044603F01F031046FFB2082B3D
:1058E000E6B232D0102B3DD06508A40845EAC17558
:1058F00044EA81748A082D1942EB5102290941EAD0
:1059000002716D1842EB1212290A41EA02616D1808
:1059100042EB1222290C41EA02416D1842EB12427D
:10592000AD1842F10002EC0844EA4274D10804EBDD
:105930008402A6EB4205EDB2092D0CD90134A5F184
:105940000A0541F10001EDB212E0E40806F0070596
:1059500044EA4174C908303554EA010200F8015B99
:10596000BDD1F0BD240906F00F0544EA0174090910
:10597000092D84BFED19EDB2EDE700000148006884
:105980007047000010090020A91600000000000068
:1059900000000000E0590000DD30000000000000C1
:1059A00000000000205A000000000000005A000023
:1059B000254E00000000000000000000405A0000DA
:1059C000F519000000000000352300000000000071
:1059D0009114000000000000294E000000000000AB
:1059E000BB660000F05D0000AC5C00003C010020E4
:1059F00084090020391700000000000000000000AA
:105A0000F5660000205E0000885C00003E0100207A
:105A1000280A0020911B0000000000000000000088
:105A200001670000345E0000885C00004001002037
:105A3000340A0020911B000000000000000000005C
:105A40003A670000485E0000C85C00004201002088
:105A5000400A0020ED1F0000FF4D00000000000084
:105A6000000000007F4A0000000000007F4A0000A4
:105A7000000000007F4A0000000000007F4A000094
:105A8000000000007F4A00000F4F00003B4E000066
:105A9000000000007F4A0000000000007F4A000074
:105AA000405A00009F4D0000000000007F4A0000A7
:105AB000000000007F4A0000000000007F4A000054
:105AC000000000007F4A000034000020214D00004B
:105AD000000000007F4A0000000000007F4A000034
