:1000000060220020651F0000B1670000511F000042
:10001000511F0000511F0000511F0000511F000020
:10002000000000000000000000000000D1200000DF
:10003000511F00000000000069200000511F000057
:100040003D2200003D2200003D2200003D22000034
:100050003D2200003D2200003D2200003D22000024
:100060003D2200003D2200003D2200003D22000014
:100070003D2200003D2200003D2200003D22000004
:100080003D2200003D2200003D2200003D220000F4
:100090003D2200003D2200003D2200003D220000E4
:1000A0003D2200003D2200003D2200003D220000D4
:1000B0003D2200003D2200003D2200003D220000C4
:1000C0003D2200003D2200003D2200003D220000B4
:1000D0003D2200003D2200003D2200003D220000A4
:1000E0003D2200003D2200003D2200003D22000094
:1000F0003D2200003D2200003D2200003D22000084
:100100003D2200003D2200003D2200003D22000073
:100110003D2200003D2200003D2200003D22000063
:100120003D2200003D2200003D2200003D22000053
:100130003D2200003D2200003D2200003D22000043
:100140003D2200003D2200003D2200003D22000033
:100150003D220000034613F8012B002AFBD1181A98
:1001600001387047F7B501250A230321094A0A48D7
:1001700006F051FA2C46094F074E654303212346EA
:100180003A4630460095013406F04FFA0B2CF4D174
:1001900003B0F0BD507E0000007B00007F7E0000B9
:1001A0002DE9F04184B000AF3A46B846414B03F127
:1001B0000805144618685968083303C4AB42224640
:1001C000F7D118681B792060237103213A4A3B4814
:1001D00006F018FA02230321394A384806F01BFAC0
:1001E0006E4688B06C46374B25466361364BA3613B
:1001F000032345F8103F00232A464FF4C8512F48E7
:1002000000F0F8FFB5460221304A2C4806F0FAF912
:1002100001212F4A294806F0F5F9A5462D4B6361C7
:100220002D4BA3614FF40073A3832C4B23612C4906
:1002300043462A46214800F0DDFFB546294C2046BA
:1002400007F055F878B34FF4D011274805F091FC2A
:10025000002828DB4FF48031244805F08AFC002870
:1002600021DBA568AE696EB123694FF0A0721B68EF
:10027000172113F4000F14BF4FF000734FF0806389
:100280002046B0471A491B4B4B604FF400038B606C
:10029000EB6913B101221348984700214FF0967083
:1002A00007F057F9F9E74FF0FF301037BD46BDE8CA
:1002B000F08100BFB07B00009A7E0000007B000050
:1002C000B77E0000C37E0000327F0000E47E0000A5
:1002D000047F0000227F0000257F00000300000152
:1002E000C01CD0004C780000C87B0000D07B000010
:1002F00030090020650100002DE9F04F91B0009316
:1003000002F004030293C2F3C203013384070546DB
:100310000E46DDF868800392059340F0BB81041D12
:1003200030B1072909D86FF01B0011B0BDE8F08F7C
:1003300001F007063444C6F10806009B4FF000099F
:100340004FF0040A591E4FF0FF334F460193CB463E
:100350005346CDF810900DB1009A22600598002800
:1003600000F3E8809848009A824203D3974882427B
:10037000C0F0E080039AA4EB050E92074FEA9E00BE
:1003800000F103810F2F00F2B180002D00F00581F4
:1003900007F140020DEB020C019A0CF8200C0CF84E
:1003A000102C049801300490E7E07A285DD84B289F
:1003B0000ED8472859D829282DD8252852D054D8C6
:1003C00020287AD02338D0F1000B4BEB000B74E0DF
:1003D0004C382E2849D8DFE800F070484848484893
:1003E0004848484848484B48484848484848485979
:1003F000484B4B595959704B6D487048184B184829
:1004000048827F4B48484B487F0000204FF0000B4C
:100410004FF0040A38E001222A38C0B202FA00F094
:1004200010EA0E0F49D110F0625C2FD110EA020BD6
:1004300043D06046013C5444B4FBFAF40AFB04F494
:10044000002D61D0A3EB050CA444B4453FF66BAF7F
:10045000002868D1042B47D158F8043B23600423BB
:1004600004342AE0019A013A01924FF0000B24E093
:1004700011F8010C6C2834D1002011F8023C83469D
:100480006C2BC5D14FF0080A5346D3E708F1070893
:1004900028F00708073424F00704F8E802AB35B168
:1004A00006982044B0423FF63EAFC4E900AB4FF09F
:1004B000000B08344FF0080A534611F8010F0028CA
:1004C00078D0BBF1000F7FF470AF2528F5D14FF045
:1004D000010B019B013301934FF0040AECE75846EE
:1004E00094E700208346A5E7082B02D06FF01500A3
:1004F0001BE708F1070828F00708F8E80223C4E919
:10050000002308230834D8E768B9042B02D108F186
:100510000408A4E7082BE9D108F1070828F0070828
:1005200008F10808EDE7059A013A059258F8042BFE
:10053000009210E7039A900720D54FF0010CA4EB2E
:10054000050E4FEA9E00BEF5007FCFD20F2FCDD80B
:10055000F5B107F140020DEB020E019AC0B20EF8A0
:10056000200C0EF8102CBCF1000F3FF41AAF60F015
:100570007F000EF8200C09F101090137C5F10802CE
:100580004FF6DA7E0434069297E74FF0000CDAE774
:10059000BCF1000F01D00136EFE7029802360028C7
:1005A000EBD10098CDE90631FFF7D4FDDDE9063146
:1005B0000644E2E7631BB3F5806F97D245B9A6F115
:1005C0000804E018B1E600BFAC7700002C880000FA
:1005D000029A9B0828602B709DF81030C2B1EB7016
:1005E00085F80290B9F1000F05D0002208A8C5F1E6
:1005F000010C97420ED14FF0000AC5F101030DF135
:10060000200801930DF1300B574512D1601B8CE689
:100610006B70E5E710F8013B190608D50CEB040EEA
:10062000B64503F07F033FF67EAE04F8013B01328E
:10063000DFE7B9F1000F03D098F90020002A17DB9B
:10064000029BD3B11AF80B2004F8012B0022019B66
:1006500018191044B0423FF666AE98F800000099B1
:1006600004F8010B2046039207F007F8039A14449C
:100670000AF1010A08F10108C6E798F8002055F8C8
:1006800022300093029B009845F82230FFF762FD6C
:10069000421CDCE76FF00D0047E600BF2DE9F04F8C
:1006A00097B000AFD7F880B03B62CBF3C0030446ED
:1006B000894690F802A0FA62BB6141B9457800789A
:1006C0000AEB800020444D4517D8A0EB0409E378DD
:1006D000FB61BAF1000F02D01BF0010F16D1FB69CC
:1006E00053BBFB6A1BB1494620463A6A98474D46C0
:1006F00028465C37BD46BDE8F08F461C3046FFF704
:1007000029FD0130304409F10109DCE762682378F2
:100710007A62FA6A9900796104EB8301002A40F059
:1007200001810E464FF000084D4601EB0A094E4587
:100730004CD101EB0A0610E01BF0020FD1D0237858
:100740009A007A61626804EB83017A62FA6A002A8D
:1007500077D14D46904601EB0A061BF0050F0CBF02
:1007600002230123FB62FB6906EB430A0BF0020341
:10077000BB625645BCD016F8021B16F8013C54F873
:100780002390994B994502D3984B994536D3BB6931
:10079000002B40D0786A05F01DFB00283BD0E946CD
:1007A0008AB06A46924B53617B6AC2E906314FF4C4
:1007B000007313848F4B42F8103F00234FF4125103
:1007C0008D4800F017FD023DCD46D2E716F8013BFB
:1007D000F96254F82300FFF7BDFCD7F88430F96ABA
:1007E00001304BB1D7F8883098453EBFD7F88430F8
:1007F00023F8180008F10108054498E7BB6923B104
:10080000786A05F0E7FA0028C9D11BF0010F05D17D
:10081000FB6AED1AADE7BB6A002BAAD04846FFF78A
:1008200099FCD7F8843053B1D7F8883098453FBF4A
:10083000D7F88420431C22F8183008F10108054439
:1008400097E7BAF1000F73D01BF0040673D0D046BF
:10085000002607F1480052463B61B96206F00DFFE1
:10086000B96A3B6901EB0A02BA62FA69F969520096
:10087000FA60BA6A02EB41023A610BF00202BA6016
:100880003A69B96A8A4258D162781BF0020F18BFE0
:1008900000217A6208BF4FEA5801B2181BF0010F1D
:1008A000D2B240F09F801BF0040F14BF40460020DE
:1008B000BB616270A070E17020463A6A7969FB6A98
:1008C0009847051EFFF614AFBB69414623707B6A4B
:1008D0003A6A6370FB6984F802A0E37007F148008C
:1008E000FB6A9847B0F10008C0F2BA807B69A9EBB7
:1008F0000A01C91AFB683A6AC91AD7E90A03984774
:100900000028C0F2AF804FF0000BA84408EB0005B0
:1009100007F1380AB34571D300213A6A0846FB6AE9
:100920009847E5E656464FF0000807F1380092E791
:100930005646D04696E7B04694E7BA6A12F8021BCC
:1009400012F8015CBA6254F82500274A904202D39B
:10095000264A90421ED3BA6932B1786A7B6005F0AC
:1009600039FA7B6800288BD1BA6802BB08F12802EB
:1009700007F1300C08F10100944407F1580208F126
:10098000020852FA80F00CF8101C5FFA88F800F8A0
:10099000105C75E7BA693AB1786A7B6005F01AFABB
:1009A0007B6800287FF46CAF1BF0010F09D006F1C3
:1009B000280207F13000711C161806F8205CCEB230
:1009C0005EE71BF0040F3FF45BAF08F1280207F16C
:1009D000300008F1010102EB000808F8105C5FFA32
:1009E00081F84DE7002063E7AC7700002C88000019
:1009F000437F000004000001087B00001BF80A3060
:100A000054F8239087F83730D7F884302BB3D7F8D1
:100A100088309B4521D2D7F8843033F81B800121E0
:100A20003A6AFB6A07F13700984700281ADB054449
:100A3000B8F1000F06D14846FFF78CFB00F1010822
:100A40001FFA88F8414648463A6AFB6A98470028E8
:100A500008DB05440BF1010B5CE74FF00008DEE713
:100A6000454645E6054643E6014B1860704700BF22
:100A70000000002080B505460E461746984604F053
:100A80001FF9034606F088FE0446DFF81890424638
:100A900049F8003039463046A84754F8090001F0BB
:100AA000CDFA00BF080000002DE9F047058B044691
:100AB0002807904611D4022905F0070540F0CC80A4
:100AC000204605F027FC78B10138218B042811D885
:100AD000DFE800F0C2106D85950001290CBF45F0DC
:100AE000100545F02005258388F31188BFF36F8F2B
:100AF000BDE8F08701F0070AAA4500F0A5800027AD
:100B0000B9463E46A368002B00F0BC8041F00801C6
:100B1000218388F31188BFF36F8FA168002900F04B
:100B2000BA800D68002900F0B68033465246204650
:100B3000D1F80480C047002D76D02B6829461D4689
:100B4000F0E701F007035A1F012A1BD8002221F009
:100B50000701062B276889B2C4E9002209D13B4668
:100B600003E0628B013262831B68002BF9D141F0F4
:100B700002012046218305F0CDFB00287AD041F008
:100B8000200176E0042B0AD121F0070189B220462A
:100B9000218305F0BFFB10B141F020012183218B9F
:100BA00001F0070AAA454FD00027B946AAE72369F2
:100BB00021F0070141F00601062DD3F800902183B2
:100BC0002DD1B9F1000F3FD041F00801218388F306
:100BD0001188BFF36F8F20463949C84729E021F0BB
:100BE0000701236941F0040189B2042DD3F8049070
:100BF0002183E6D000274FF0040A3E4682E721F029
:100C00000701236941F0050189B2052DD3F8089049
:100C10002183D6D000274FF0050A3E4672E7002711
:100C20004FF0060A3E466DE72B4687E7B9F1000F05
:100C3000D1D1EFF31188202383F31288BFF36F8F94
:100C4000238B23F008032383258BEA062ED525F07A
:100C50001003238305F007056669218B002EBFF67C
:100C600070AF00232768C4E9003321F0070141F089
:100C700001012183218B4FF0000901F0070AAA45E9
:100C80007FF440AF002F9CD041F00801218388F30E
:100C90001188BFF36F8F002FC8D03D6839463346A7
:100CA0005246204605F062FB2F46F4E7AB067FF57F
:100CB0001BAF25F02003238305F0070500E700BFE5
:100CC000996300002DE9F047044607464FF00109FB
:100CD000DFF8508014B93846BDE8F08794FAA4F5DF
:100CE000B5FA85F509FA05F32E0108EB05156FEA4B
:100CF000030A24EA03042B7B002BEBD058F80630C0
:100D00001B694BB94644736804222846196807EAF0
:100D10000A0705F007FCDDE7284698470028D9D1E7
:100D2000F0E700BF507B000030B5002289B00F49CA
:100D30000F4806F07AFC002200230024CDE90623A8
:100D40000E230C4DCDE903344FF440722846CDE913
:100D50000144094B0949009403F0EEFC0849284678
:100D600003F074FC204609B030BD00BF850D0000C3
:100D7000A8060020F0010020991000002012002099
:100D8000F77F0000014803F007BC00BFDC01002032
:100D90002DE9F047804621480F4605F0A7FB06469F
:100DA000002833D000252846BDE8F087237B83B197
:100DB0002368DB680BB120469847636883F8069088
:100DC00023681B69D3B9636804222046196805F0BB
:100DD000A9FB013610345445E8D3B8F1000FE2D036
:100DE000002DDFD02846FFF76DFF0546002FF7D016
:100DF00000214FF4A47006F0ACFBF1E720469847C1
:100E00000028E0D009FA06F31D43E2E705464FF05B
:100E10000109034CDFF80CA0DDE700BF4C090020FE
:100E2000507B0000607B0000014B53F820007047AE
:100E3000EC7B000008B5034608462BB1044A13605A
:100E400000F06EFC002008BD6FF01500FBE700BF4E
:100E50000400002010B5044C237813B9034803F0B4
:100E60009BFB0123237010BD14120020DC01002025
:100E700010B50446094805F039FB3CB1084BD3E8EE
:100E8000EF1F0139C3E8E21F002AF8D1054806F038
:100E9000D8FBBDE81040044803F07EBB44090020A5
:100EA00048090020A8060020DC010020002001469F
:100EB000034BD3E8EF0FC3E8E21F002AF9D17047D4
:100EC0004409002070B5FFF7F1FF0546074C084EB6
:100ED000B44200D370BD63685B792BB123685B6853
:100EE00013B12946204698471034F1E7507B0000A3
:100EF000607B000010B5044C0449204605F0A3F8BF
:100F0000034B1C6010BD00BF50010020D87B0000C7
:100F10003C09002000230D4A10B513700C4A4FF411
:100F2000004113600B4A0C481360FFF783FFFFF783
:100F3000E1FF0A4B0A4918468B4200D310BD1A1A2A
:100F40005C681211013222711033F5E7151200208E
:100F50004409002048090020E9640000507B00009B
:100F6000607B0000014600220023014805F08CB898
:100F700050010020014805F025B900BF50010020B4
:100F8000024B0146186805F071B900BF3C0900200A
:100F9000014805F0A6B900BF5001002070B5274BED
:100FA0001878002849D0FFF7E5FF0546002841D111
:100FB000234B244C1B68002B19DD06F034FB4FF447
:100FC0007A72A0FB020302FB0131C30B43EA4143E7
:100FD000D4E900209B1A40F2E9324FEAD13161EBAB
:100FE0000001934271F1000101D3FFF76BFFD4E9D7
:100FF000003213F57A7342F10002C4E90032BDE811
:101000007040FFF7C5BF63685B7923B12368294649
:1010100020461B6898471034B442F4D32846FFF7A3
:10102000AFFF094BD3E8EF1F0139C3E8E21F002AE5
:10103000BED0F7E7054C064EEEE770BD1412002057
:1010400044090020A006002048090020507B000031
:10105000607B000070B50D4D297861B90120FFF764
:1010600097FE0B4C0B4EB44206D3FFF797FF0028B8
:10107000FBD101232B7070BD63685B791BB12368C2
:1010800020469B6898471034EDE700BF15120020FA
:10109000507B0000607B000000212DE9F0470846EE
:1010A000FFF776FE044658B340F267684FF0000938
:1010B00006F072FB1B4B1C4A1B58136033B11B4BD1
:1010C0001B68092B02DD1A4803F066FA0025194F48
:1010D000DFF85CA044B12046FFF7F4FD044618B9E0
:1010E0004FF0FF384FF0FF39FFF758FF064628B999
:1010F000B5B942464B46504603F082FA3546E9E719
:101100004FF0FF384FF0FF39D2E72B689B691BB1D6
:1011100000222846114698471035BD42F5D3E8E72E
:10112000054DFAE7080000004009002048090020AA
:10113000DC010020607B0000507B000013B51848E4
:1011400005F0D4F9174B1B7873B1EFF3118420230A
:1011500083F31288BFF36F8FFFF720FF84F31188AA
:10116000BFF36F8F02B010BD0F4B1B68002BF9D07F
:1011700050B9002200230D48CDE900234FF400426E
:10118000002304F0A5F8EDE70928EBD1074806F0A5
:1011900058FA074802B0BDE8104003F0FDB900BF9F
:1011A000480900201512002040090020A806002050
:1011B000DC01002010B5064B04461B689847214609
:1011C000A060044804F0DFFFBDE81040FFF7B6BFA1
:1011D0000400002050010020044A054B9B1AB1EB8B
:1011E000D30F34BF52F8310000207047007B00005D
:1011F000507B00002DE9F04F8FB0C1F34A2804AFB7
:101200000D469146B8607B600C0DB8F1000F63D0BD
:1012100000264FF0040B4FF00A0A07F11403C7F839
:101220000C80C7E907667E620193CDF808B0CDF85F
:1012300000A007F11C0332464846F968FFF72EFA72
:10124000B0F5006F03461CD36C468AB0D9F8041081
:1012500004AB26481A46C3E9050140F2FF71D96183
:101260004FF400711984224B42F8103F4FF4125191
:1012700033462048FFF7BEFFA5462C37BD46BDE8E4
:10128000F08FC0F30A0804F11700184420F007009B
:1012900080083B60FFF766FE68F35325044690B173
:1012A0003B6800F11001C7E9083607F11403F96142
:1012B000CDE900A3CDF808B048460F4AF96807F118
:1012C0001C03FFF7EBF968F353252A4620467B6899
:1012D000B96805F047F9D0E704F1170020F00700DE
:1012E0008008FFF73FFE0446EDE700BF0C800000DA
:1012F00004000001187B0000376500002DE9F04F65
:1013000087B00446DDE9105ADDE912799346984624
:101310000391BFB13B46524610210020CDF800900A
:10132000CDF81490FEF7E8FFB0F5006F06460AD33B
:1013300040F2FF730221174A174807B0BDE8F04F8B
:1013400005F069B93E4605F11700304420F007006A
:101350008008FFF707FE04F007040BF0070BE4001A
:1013600044EA8B1444EA462444EA0554054640B155
:101370003FB13B4652463146CDF800901030FEF763
:10138000BBFF434622462846039907B0BDE8F04F0D
:1013900005F0E8B84B800000187B0000406820B1E1
:1013A000034BC01A40F3CF0070474FF0FF30704737
:1013B000007B00000EB403B503AB53F8042B0146C9
:1013C0000448019301F05AF902B05DF804EB03B050
:1013D000704700BF79660000CA0605D48B064CBF73
:1013E00002490349FFF7E6BF704700BF8480000051
:1013F000838000002DE9F04F89B09B46149B9DF837
:101400004CA00693159B04460593169B0D469046EB
:10141000179E0493BAF1000F00F09D8006F48073CC
:10142000079305F07DF806F00209024600283ED039
:1014300020469149FFF7BEFF0746B9F1000F08D0DB
:1014400016F0440F35D12A4620468C49FFF7B2FFEB
:10145000074406F0010353B1894B204653F82A2074
:10146000884B8949002A08BF1A46FFF7A3FF06F4F4
:101470008073002B49D006F00803002B63D1B8F12C
:10148000000F66D0424620468049FFF793FF05468D
:10149000069B3D44002B6DD1049B002B73D1F307B9
:1014A00000F1E48031462046FFF796FFD8E007467A
:1014B000C3E7774B18680028CAD0764B4FF47A7987
:1014C0001B684FF03C0CB5FBF3F5B5FBF0F14FF4A6
:1014D000616300FB115509FB05F5B1FBF3F2B5FBA8
:1014E000F0FE03FB121100FB1E55B1FBFCF309FBE0
:1014F00005F5B5FBF0F50CFB131120460091CDE985
:1015000001E56549FFF756FFA2E706F00803EBB1D6
:10151000624B204653F82A206149FFF74BFF0546EE
:10152000B8F1000F05D0424620465849FFF742FF68
:101530000544BBF1000FABD05A4620465949FFF78E
:1015400039FF0544A4E74FF0000BE1E706F008057A
:10155000E6E745469CE7BBF1010F069B06D1002B51
:1015600064D1049B002B7BD000250CE0002BF8D02D
:101570004D485CE04D48069B22464D4904F0F9FB7E
:10158000049B002B68D0DFF82C81DFF82C91049F9E
:101590003146102F204628BF10274FF0000BFFF7D1
:1015A0001BFF5D4545DC059B494620461A78FFF741
:1015B00001FF4FF0010B1BF0070F03D141462046FE
:1015C000FFF7F8FE5F453BD9059B4946204613F8D7
:1015D0000B20FFF7EFFE0BF1010BBBF1100FEAD16F
:1015E0004FF0000B20463549FFF7E4FE5A46059BB5
:1015F00020469A5CA2F120015F2928BF2E223049A3
:10160000FFF7D8FE0BF1010BBBF1100F1DD01BF043
:10161000070F03D141462046FFF7CCFE5F455A46EF
:10162000E5D841462046FFF7C5FEEBE71F48554683
:10163000A1E741462046FFF7BDFE0BF1010BB0E7E5
:1016400020462049FFF7B6FEC5E7059B3B440593BE
:10165000049BDB1B04939AD1BAF1000F7FF41FAFF8
:10166000204609B0BDE8F04F04F0F9BF2046054A16
:101670000549FFF79FFE15E78B8000008F80000073
:10168000FC7B000086800000227F0000B480000008
:10169000540900205009002098800000107C0000B0
:1016A000B8800000BE800000A766000079660000D8
:1016B0007D260000CB800000C3800000CD800000AC
:1016C000CF800000C980000042F20F7373B58B42D7
:1016D00028BF0B4605680446052168460D4A03F0FD
:1016E000C1FF0646636828460B225B680A4904F07E
:1016F000A8FF63683246694628465B6804F0A1FF8C
:1017000063681B2228465B68044904F09AFF02B014
:1017100070BD00BF95820000EE800000D280000006
:1017200000210123064A904206D8064A01B9012346
:101730001360054B18607047012140085B00F2E719
:1017400040420F005009002054090020F8B50D4612
:101750000446064F4618B44201D12846F8BD14F895
:10176000011BBB6801485B689847F4E76C78000090
:10177000014B036000207047587C000008B5044806
:1017800004F04FFBBDE80840024804F04ABB00BF2C
:101790003481000069810000014803F021BE00BFD0
:1017A000587C000038B5044618B90F4B0F485B68E9
:1017B00098476168B1F5683F10D0B1F5680F0DD05A
:1017C0000B4DA9420AD011F46861206807D0014688
:1017D000084805F0C7FD00232360656038BD14226A
:1017E00005F058FFF9E700BFE800002097810000EE
:1017F0002C5F5CA97C0E002008B560B34368B3F58C
:10180000683F0ED0B3F5680F18D0144A934220D029
:1018100000684FF0FF324FF0FF3302F0F5FD58B192
:1018200015E001220368D3E8EF1F002903D1C3E8C4
:10183000E02F0028F7D10AD1002008BD0368084A2C
:101840001B7803F5807352F82330002BF4D0054841
:10185000F3E70548F1E76FF4E040EEE72C5F5CA9A1
:1018600000000350E98FFFFFEA8FFFFF08B520B3A8
:101870004368B3F5683F09D0B3F5680F13D0114A38
:1018800093421DD0006802F037FE14E00022036886
:10189000D3E8EF1F012903D1C3E8E02F0028F7D1D7
:1018A00009D0094808BD00210368084A1B7803F5E0
:1018B000807342F823100020F4E76FF4E040F1E772
:1018C0000348EFE72C5F5CA9E98FFFFF000003509E
:1018D000EA8FFFFF10B5044618B91D4B1D485B6821
:1018E00098476368B3F5683F2FD0B3F5680F2CD0E5
:1018F000194A934219D1236803BB4FF0FF324FF0CE
:10190000FF332146154802F051FD08B923681BB981
:101910000F4B13485B68984714220021206805F09C
:10192000B9FE4FF46863636008E0B3F5683F0DD813
:101930003A2B03D040F6BA629342DED1206805F01C
:101940005CFD636843F03A03636010BD054AF3E74A
:10195000E8000020978100002C5F5CA97C0E00202D
:10196000BD8100003A00003A08B506494023142220
:10197000054805F0E9FCBDE808400449044803F0C7
:10198000A1BD00BF7C0900207C0E0020607C00000F
:10199000747C000008B50348034A0021121A04F0C1
:1019A000FFFE08BDF001002020120020074808B506
:1019B000074A0849121A04F0F5FEBDE80840064837
:1019C000064A0749121A04F0EDBE00BF00000020CD
:1019D000EC0100202C880000000000200000002006
:1019E0002C8800002DE9F04706460C4600AF002980
:1019F00036D0D1E90012E9468AB06D46A3684FF0AF
:101A0000050AA8461F48C5E90723C5E9050148F8A6
:101A100010AF002342464FF421511B48FFF7EAFB69
:101A2000D4E90312CD466369AD461848C5E90723DA
:101A3000C5E90501C5F810A0002342464FF4215125
:101A40001148FFF7D7FBCD46E3690121104A0E4844
:101A500004F0E1FDA36901210E4A0B4804F0DBFD0F
:101A6000012E07D1EFF305830B4A31460648103BA0
:101A700004F0D1FD2146304602F0F6FABD46BDE83D
:101A8000F08700BFEA810000387B00001982000067
:101A900048820000578200008582000030BFFFF7B7
:101AA000FDBF00BF2DE9F04105460B4EDFF82C804D
:101AB000324606EB0807CC1B2046094905F0DDFD40
:101AC000A01942460021083C05F0E4FDC5F8A440F9
:101AD00007F10800BDE8F0810000000004000000EC
:101AE000A47B0000054B5A699B689A421FBF044AB9
:101AF000536843F080535360704700BF0C100020C0
:101B000000ED00E070B52A4C06460D4629482A49EA
:101B100004F055FEA36ADB0647D52648274904F0A2
:101B20004EFE1120A36A1C0704D52248244904F064
:101B300046FE12201E4CA36A990712D521491D4862
:101B400004F03DFE636BA26A120609D501211E4A0C
:101B5000184804F060FD1EB1A36A23F08003A3625D
:101B60001320134CA36ADE0704D51248174904F06A
:101B700026FE1420A36A9C0604D50E48144904F0DE
:101B80001EFE15200A4B9A6AD10658BF9A6A9A6AB5
:101B9000920642BF5A6A22F400525A629A6A42F08E
:101BA000FF029A6200232B7070BD1020BAE700BFBD
:101BB00000ED00E0387B000098820000AE8200005B
:101BC000E1820000F48200000C8300002283000008
:101BD0004183000010B5244C2449254804F0EFFD52
:101BE000A36A99013ED52248224904F0E8FD1E204F
:101BF000A36ADA0104D51E481F4904F0E0FD1F2046
:101C0000194CA36ADB0204D519481C4904F0D7FD1E
:101C10000220A36A1C0304D51548194904F0CFFD1E
:101C20002120114CA36A590304D51148154904F029
:101C3000C6FD2220A36A9A0304D50D48124904F078
:101C4000BEFD2320084CA36ADB0304D508480F49D6
:101C500004F0B5FD2420A36A6FEA03436FEA13433F
:101C6000A36210BD1D20C3E700ED00E070830000FB
:101C7000387B0000888300009B830000B583000050
:101C8000DF830000FD830000228400003C8400000C
:101C900070B5294C06460D462848294904F08FFDA9
:101CA000A36AD9043CD52548264904F088FD1720AD
:101CB000A36A1A0504D52148234904F080FD1820A1
:101CC0001D4CA36A9B0512D51C48204904F077FDE2
:101CD000A36BA26A100409D501211D4A174804F01C
:101CE0009AFC1EB1A36A23F40043A3621920124C8C
:101CF000A36A590504D51148164904F060FD1A205D
:101D0000A36ADA050ED50D48134904F058FD1B20CF
:101D1000094A936A43F47F43936200232B7070BD9A
:101D20001620C5E7A36A9B04F2D504480B4904F0CA
:101D300046FD1C20ECE700BF00ED00E0387B000012
:101D4000678400007D840000E18200008E84000032
:101D5000A7840000BC840000D784000041830000F9
:101D60002DE9F0418AB0654B0446D3F80480002683
:101D700000AFC8F3080586F31188BFF36F8F02F038
:101D80007F43B3F17F4F07D102F00C03082B12D130
:101D90005B495C4804F013FD002634460023FB71C8
:101DA000EB1E092B00F28980DFE803F00A7F827BBB
:101DB00087878787878510074CBF0C460126EDE78C
:101DC0005149504804F0FBFC00234C4DFB71EB6A79
:101DD0009A0705D54D494B4804F0F1FC002331E04A
:101DE000EB6A002B01DA4A49F5E7EB6A5B00F5D5AF
:101DF0004849444804F0E3FC6B69A26943F48073EA
:101E00006B61BFF34F8FBFF36F8F6B6932F8022C9A
:101E100023F480736B61BFF34F8FBFF36F8F4DF669
:101E200002739A4207D0AB6ADBB26BB30120F91D93
:101E3000FFF768FE37E023680121374A314804F094
:101E4000EAFB2368FA79DAB907F1080504F1200CF6
:101E50002A4620686168083403C264451546F7D1F4
:101E60007A6A002E45D0C2F3080121B96FEA5222E6
:101E70006FEA42227A62184607F10801FFF7B2FDC5
:101E80002837BD46BDE8F081AB6A13F47F4F04D01C
:101E90000120F91DFFF7FCFE05E0AB6AB3F5803FBA
:101EA0009CD3FFF797FE0346CCE70020F91DBFE760
:101EB0000020F91DEEE719498DE7194A18F4F87F5B
:101EC000E8468AB0174B18BF13466A461649103DBC
:101ED000C2E905134FF400731384144BD56142F823
:101EE000103F00234FF411510648FFF783F9C54610
:101EF00074E722F4FF7222F00102BBE700ED00E07C
:101F00001D850000387B0000488500005F850000CB
:101F1000808500008E850000AD850000C985000029
:101F200004850000EF840000ED850000040000013E
:101F3000064B5A6942F010025A615A6942F48062B3
:101F40005A615A6922F008025A61704700ED00E0B8
:101F5000EFF30880EFF3098101B57246FFF700FF48
:101F600001BD00BF002080F31488BFF36F8F0020F5
:101F700080F30A8880F30B88104880F308880020DB
:101F80000F49087001F0FAFB00200E490860BFF30A
:101F90004F8F00F02DF8202080F311880A484FF46D
:101FA0000061401880F30988EFF314800221084390
:101FB00080F31488BFF36F8F00F0DCF860220020FC
:101FC0001C12002094ED00E020150020002318468C
:101FD0000649D1F89020C2F30722934200DB7047F4
:101FE000C1F89830C1F8A0000133F6E700ED00E039
:101FF00010B572B6002484F31388FFF7E7FF234679
:102000004FF0FF300C4A03F120010133102B42F84E
:102010002100F8D100234FF0FF30074A03F160019F
:102020000133102B42F82100F8D162B6BFF34F8F75
:10203000BFF36F8F10BD00BF00E100E0084B9B684D
:1020400083420BD1EFF3058343B1064B5A6842F04C
:1020500080525A605A6A22F400425A6202F036BE36
:102060000C10002000ED00E016498A684FF03000A7
:102070001044EFF3098C80E8F01F202080F31288D1
:10208000BFF36F8F104F4FF000664A698A603E6061
:10209000D2F8A4000D4C2060D2F8A8000023C2F8AA
:1020A000A83080F3118802F1300090E8F01F8CF323
:1020B000098802F1000004B504F089FBBDE8044082
:1020C000704700000C10002004ED00E0980E002086
:1020D0001EF0040F0CBFEFF30880EFF30980816955
:1020E00011F8021C0229FFD001B5724604F05CFB16
:1020F00001BD00BF40B2002807DB01234109034AAC
:1021000000F01F00834042F82130704700E100E0FA
:10211000054B420953F82220012300F01F0003FA67
:1021200000F01040704700BF00E100E040B200281E
:1021300001F10101ACBF00F16040064B4FEA4111D3
:10214000C9B2ABBF00F5614000F00F0080F800138A
:102150001954704714ED00E0044B054A23F07F0347
:102160009360BFF34F8FBFF36F8F70470000000085
:1021700000ED00E008B5FFF7EFFF074AD2F888301E
:1021800023F47003C2F88830FFF704FCFFF70EFC5D
:1021900000F048F802F08EF800ED00E042F8203C34
:1021A000009B0B4942F81C3C019B21F0010142F8C5
:1021B000183C029B42F8081C42F8143C4FF0807314
:1021C00042F8043C0023203A0265C0F8A83070476A
:1021D000750A000000B50E4B15469860D0F8A42093
:1021E0000C4B0E461A60D0F8943083F30B882C46C3
:1021F00086F309880020044B9847204600210022DE
:102200000023024C20470000DF670000750A000031
:102210000C100020980E00201022014B1A6170470C
:1022200000ED00E0002320210348C2180133452BB4
:1022300082F80013F9D1704700E100E008B5EFF330
:102240000583064A103B02EBC30152F8330049688C
:102250008847BDE80840FFF745BC00BF8C78000008
:102260001FB5094C094A23460121094800F012F91B
:1022700000230393074B0121E41A01A80193029460
:1022800000F012F904B010BD00000720000000208B
:10229000847C0000F001002010B50C7A0B6804F07B
:1022A0001F0223F01F031A43CB68640923F01F03A6
:1022B000054943EA440343F00103C1F89800C1F81B
:1022C0009C20C1F8A03010BD00ED00E010B50A4B15
:1022D000D3F89030C3F30723013B984208D901217A
:1022E0000346064A064804F096F96FF0150010BD43
:1022F000FFF7D2FFFBE700BF00ED00E0048600001F
:10230000307B00002DE9F04F8946144606464FF019
:102310000008514D85B0C84527DAD6F804A0BAF1B7
:10232000000F44D0BAF11F0F17D91AF01F0F14D1A4
:10233000D6F800B01BF01F0F0FD1584604F08BFAEF
:1023400007460AEB0B00013804F085FA874210D0EB
:102350006FF01507414A3B4601E04346404A0121E0
:10236000404804F058F96FF01504204605B0BDE868
:10237000F08F17F1160FEDD0BC42EBDDC5F8987069
:10238000D5F89C10C5F89870D5F8A03021F01F0141
:1023900043F01F0BD6E900321A44994202F1FF3A8A
:1023A0001DD1D34507D13146F8B204F05DFA08F1EA
:1023B00001080C36AFE73146C5F89870D5F89C3067
:1023C00022F01F0203F01F031343C5F89C30E0B254
:1023D00004F04AFA10F1160FC5D0441CE7E7C5F81F
:1023E0009870D5F8A020013B23F01F0302F01F02D4
:1023F0001343D3453146E0B2C5F8A030E8D004F02D
:1024000033FA10F1160FAED0C5F89870D5F89C20AD
:102410009DF808300BF1FF3B62F304038DF80830A0
:10242000D5F8A0309DF808205B0863F347128DF8BB
:102430000820D6E900321344009323F01F035B44C5
:10244000A3EB0A03013023F01F036946C0B20393D4
:10245000FFF73CFFBEE700BF00ED00E04D86000047
:102460002A860000307B00000522044BC3F894202C
:10247000BFF34F8FBFF36F8F704700BF00ED00E0D9
:10248000BFF35F8F0022024BC3F89420704700BF58
:1024900000ED00E010B5034C2278FFF733FF207009
:1024A00010BD00BF171200202DE9F74F294D8A46B5
:1024B00006464FF00008AB46274FD0451BDAD6F84A
:1024C0000490B9F1000F3FD031680846019104F043
:1024D000C2F90199044609EB0100013804F0BBF987
:1024E00084424FF014021D4B08D002FB08F36FF03A
:1024F00015024BF8032003B0BDE8F08F14F1160F5E
:102500002C60F8D01978A142F5DD02FB08B0C7F8BD
:102510009840C7F89840D7F89C4000F10801007B2C
:1025200064F304000871D7F8A0000C79400860F348
:1025300047140C71D7F89C1021F01F016960D7F87F
:10254000A01021F01F01296108F1010814350C3693
:10255000B3E700BF9C0E002000ED00E01712002042
:10256000F0B54149414CD1F890302568C3F30723B9
:102570009D4287B075D80020FFF782FF3C4BC1F821
:10258000C030854216D13B4C01A82570FFF7F0F80A
:1025900000250646384FAE4213D100202378324939
:1025A000D1F89020C2F30722934254DBFFF75CFF7F
:1025B00000202FE0616801EB0011FFF76DFE013094
:1025C000DFE70199280101EB0513DA683A40B2F51B
:1025D000001F21D0B2F5800F2BD0B2F5801F38D16B
:1025E0005A689B680958013B22F01F0003440120F0
:1025F000844623F01F0340EA4C10CDE902218DF8F8
:10260000100002A920780593FFF760FE00281DDA6C
:102610006FF0150007B0F0BD5A689B680958013B80
:1026200022F01F0003444FF0020C012023F01F038F
:10263000E1E75A689B680958013B22F01F000344F8
:102640004FF0000C062023F01F03D4E7237801335A
:10265000237001359FE7C1F89830C1F8A00001331D
:102660009EE74FF0FF30D5E700ED00E0907C0000E2
:10267000AAFF4400171200200000F0FFF0B587B059
:1026800007460E4614460021102268461D4605F0F6
:1026900001F802238DF80230054B2A462146684690
:1026A000CDE90476019303F009F807B0F0BD00BF4F
:1026B0009B68000008B5024B1B689847002008BDC6
:1026C000B00E0020034B044A1860937843F00203D5
:1026D00093707047B00E00203000002008B5064906
:1026E000064821F00701C1F1005202F5E02203F093
:1026F000E8FA002008BD00BF67220020B40E0020C9
:10270000054B03EB8000D0F8003223F0E04343F0A8
:102710004053C0F80032704700258450052370B53F
:10272000144D154E2C780134B4FBF3F303EB830303
:10273000E41A04F01DFA114A137823B156F8243034
:10274000C01A072814D94FF05023D3F8141141B1FF
:102750000021C3F81411D3F814312C700CB90123E3
:1027600013702C7804F004FA46F82400012070BDA0
:102770000020FCE719120020C00E002018120020D3
:10278000012208B50B4B0C49C3F800250223002099
:10279000C1F8D036FFF7B4FF1046FFF7B1FFC1F81C
:1027A0000427C1F80429C1F8002BBDE8084000F057
:1027B00099B800BF001000500040005007B54FF41A
:1027C00080620B4B0B49C3F8B8254FF400620A48EE
:1027D000C3F83C250DF1070204F011FA002803DBD1
:1027E0009DF8070001F0C0F803B05DF804FB00BFDE
:1027F00000A002502CA0025028A1025048B1054B65
:10280000054A1B68B3FBF2F35843044B43F0010342
:1028100018477047D000002040420F00C07B0000E6
:10282000002170B5104C114D114E000714F8013BFA
:1028300003F01F025B090FD0012B0FD1334603EBCE
:102840008203D3F80022013122F0E042024304293E
:10285000C3F80022EAD170BD2B46F0E70023803296
:1028600053F82230FFDE00BF878600000025845029
:10287000002884502DE9F041064601200D46FFF75F
:10288000CFFF4FF47F03D3F83021D3F83431072A38
:1028900020D1023B032B02D8114AD35CD3B14FF0B5
:1028A00050244FF0010800270520C4F81886C4F80A
:1028B000147604F06FF94046C4F8148604F06AF9FF
:1028C000C4F81476C4F8187630462B46BDE8F041BB
:1028D000002118474FF050230022C3F81426F3E7D5
:1028E000838600000149024803F063BDB87C000004
:1028F000D40E002008B54FF0FF323F230348C0E953
:10290000002301F01DF8002008BD00BFF00E0020DC
:10291000084B70B5C31A0D4607499B10044659432E
:102920004022064803F0DEFF2B4601462046BDE864
:10293000704018470C0F0020B76DDBB60C78000014
:10294000402373B50B4C0093041B0B460D460A49FC
:10295000A41061430646094A094803F0EEFF011E30
:1029600005DA30462B4602B0BDE87040184702B089
:1029700070BD00BF0C0F0020B76DDBB6A36900006F
:102980000C7800002DE9F0470022012107460520C0
:10299000FFF7CCFB124801F007F80446D0B901F06C
:1029A00037F825464FF01C0A4FF00C08DFF834903A
:1029B0003E6949460AFB056003F0FBFC031E0CDB85
:1029C000012308FB05661D44042DB367F0D12046A2
:1029D000BDE8F0876FF00404F9E71C46F7E700BF95
:1029E000152B0000C47C00001FB500220123CDE997
:1029F00002236B46084ACDF800D0CDF804D003F08E
:102A0000C9FF002805DB4FF480420023684601F02F
:102A1000F7FD05B05DF804FBCD69000010B5EFF3DC
:102A20001184202383F31288BFF36F8F074A136842
:102A300023F00201DB07116002D4012004F002F947
:102A400084F31188BFF36F8F10BD00BFAC0F00205F
:102A50000C22104B014602FB0033002030B4D3E9B6
:102A60001C521867EFF31180202484F31288BFF3FF
:102A70006F8F9C6F04F0C00444F002049C6780F3E5
:102A80001188BFF36F8F1DB12B4630BC0248184729
:102A900030BC70470C0F00200C78000010B4EFF32E
:102AA0001182202383F31288BFF36F8F17480168C8
:102AB00041F002040460C80707D482F31188BFF311
:102AC0006F8F012010BC04F0AEB84FF05021D1F848
:102AD0000C04D1F80C14C907EFD5EFF3118083F380
:102AE0001288BFF36F8F0A498B6F03F0C00343F066
:102AF00002038B6780F31188BFF36F8F82F3118815
:102B0000BFF36F8F002010BCFFF7A2BFAC0F0020F7
:102B10000C0F0020092813D8DFE800F0051012126E
:102B2000121212120E0C074B986F10F0070007D10B
:102B3000FFF78EBF0220FBE70320F9E70120F7E74C
:102B4000704700BF0C0F00202DE9F041012207461D
:102B50003649D1E8EF3FC1E8E02F0028F9D133B979
:102B6000334934484B60CB608A6003F035FC7B1EF0
:102B7000012B2BD8012F07D14FF05023D3F81C3451
:102B800003F00303022B21D004F04AFC0546F8B9F8
:102B9000294B1B78E3B14FF0502302220646C3F8BD
:102BA00008234FF05024DFF89480D4F81824D4F888
:102BB0001834D20315D503F00303022B01D0012FE3
:102BC0000FD16DB386F31188BFF36F8FBDE8F0812D
:102BD000EFF31186202383F31288BFF36F8F012553
:102BE000DFE7C5B1304603F01AFED4F81835DBB282
:102BF000012BDAD1D4F80421002AD6D00022C4F85F
:102C00000421D4F804210222C4F818252022C8F88F
:102C10008021A360C9E70021212004F09AFCE4E7A9
:102C20004FF050230222C3F80423CFE7080F0020FF
:102C3000F80E0020280F00201C12002000E100E008
:102C400008B5074804F053FB38B10648FFF73AFDD2
:102C50000448FDF709FF002008BD6FF01200FBE7F4
:102C60006C780000692C00000A2838B50446074D2E
:102C700004D1AB680D2128465B689847AB680348D0
:102C80005B68E1B29847204638BD00BF6C78000011
:102C9000F0B545681646A8682A7C01F01F0487B085
:102CA00044EA4214002868D0B6F5001F04D121463A
:102CB00004F0FFFA002051E00020B6F5800F01AAD1
:102CC0000190506037D1B3F1007F14BF0523042376
:102CD0008DF804300023CDE904230393EB680DF154
:102CE000030723FA01F111F0010139D1B6F1A07FF8
:102CF00036D104F01F03620903F1800326D0012AB4
:102D00003ED1214A52F82330DB0729D43A462146E6
:102D1000A86804F061FA16301AD002972146A86814
:102D200003AA04F025F9002818DB01222146A8682F
:102D300004F06DFABEE7B3F1C06F05D0B3F1007FC8
:102D400014BF01230223C3E70323C1E70F4AD9E7D6
:102D50003946A86801F082F80028DEDA07B0F0BD35
:102D60003A462146A86804F037FA0028D6D19DF8E3
:102D70000310A86801F068F8D0E76FF08500EDE770
:102D800051F82330FFDE00BF002884500025845016
:102D90004209034670B502D0012A17D070BD0D4E0E
:102DA000326951680029F9D0012503F01F030C682E
:102DB0009D400029F2D08A682A4002D030464B68F4
:102DC00098472CB1236821461C46F2E7024EE7E7FC
:102DD0002346F8E74C7800002C78000038B54568A9
:102DE000A86890B104F00BFA014670B9A86800F029
:102DF000F9FF044658B902460649A86804F0E9F903
:102E0000224605210D20FFF791F9002038BD6FF013
:102E10000400FBE7912D00002DE9F04340F2063657
:102E20004768D00648BF4FF0030C3B7C02EA060619
:102E300058BFC2F3401C87B001F01F05B6F5837F71
:102E4000144645EA43158DF803C044D00DD8062E2C
:102E500016D005D8A6B1022E3FD06FF0150037E08E
:102E6000B6F5807FF9D101260AE040F202229642AF
:102E700035D0B6F5407F34D0B6F5007FEDD10226CF
:102E80000123220303FA01F12DD57B689960B8680C
:102E900080BB05F01F036D092AD0012D73D13C4A78
:102EA00002EB830284F48033D2F80012C3F30043B0
:102EB000C4F3404444EA430421F4706144EA8C04BE
:102EC00021F00F0144EA06230B43C2F80032002030
:102ED00007B0BDE8F0830726D2E70426D0E7052631
:102EE000CEE70326CCE7630344BF7B68D960CEE717
:102EF000284AD5E729460DF1020204F06DF914F4D1
:102F0000403F80460CD12946B86804F07EF9B8F1FC
:102F1000000FDCD19DF80210B86800F095FFD6E7ED
:102F20004FF0000901ABCDE90199CDE90439CDF8A5
:102F30000C902946B86803AA04F01AF84845C6DB85
:102F400014F4003314D09DF8033084F48034C4F3B7
:102F500000448DF80E308DF80C608DF80D404B4616
:102F60002946B86803AA04F0BBF80028CFDAAEE718
:102F7000CDE904330DF1030303932946B86803AA8E
:102F800003F0F6FFF1E7803350F82330FFDE00BF97
:102F90000028845000258450036803F01F025B0959
:102FA000026004D0012B034818BF0020704702487C
:102FB000704700BF00288450002584502DE9F04F51
:102FC0001546824640F2FF19DFF8B0B185B000EB3C
:102FD0008108D04503D1002005B0BDE8F08FDAF8B4
:102FE0000030C3F3C3210829C3F3080400F2C080F2
:102FF000634A4C45515C4FEA136311D0222B1DD913
:103000004E2B40F0B880C5F81445012603A8039460
:10301000FFF7C2FF039B06FA03F38360374654E0D1
:10302000222B09D94E2B40F0A6804FF0FF33C5F874
:1030300014350AF1040ACCE74FF0FF34222B00F2DA
:103040009A80DFE803F012171E36212736989898E9
:103050009839639898989898989898986B76797C0E
:103060009898987F86898C8F9200C5F80C45631CD0
:10307000CBD1DEE7C5F81445631CDAD00026002763
:1030800023E0C5F80845F2E7601CC5F80845D0D034
:10309000002604E0621CC5F80C45CAD001260127B1
:1030A00003A80394FFF778FF039B07FA03F3C360B9
:1030B0000BE0C5F81045DFE7C5F808450029DBD16E
:1030C000671CB6D0002606213746DAF80030039494
:1030D00003F40040002803A81CBF01260027019329
:1030E000FFF75AFF039C019B00EB8400D0F80042DD
:1030F000C3F3412C0B0243EA8C033B4304EA0B0469
:10310000234343EA4603C0F8003292E7C5F80C4572
:103110000029D5D0661C8CD000267FE7C5F8604515
:10312000601CDAF8003084D0C3F30043002BB5D024
:103130006BE7C5F86445F3E7C5F86845F0E7C5F8FF
:103140006C45EDE7C5F82445621C3FF472AF0126DB
:1031500095E7C5F828458AE7C5F83045F4E7C5F88E
:103160003445F1E7C5F83845EEE7C5F83C457EE75C
:103170006FF0150030E76FF085002DE7F0F0FCFFF1
:10318000DD8600002DE9F04104460D46476804F055
:1031900047F94FF0200888B9264B1B7873B1642695
:1031A000606803F096FCF0B9012003F0F3FC013EE7
:1031B000F6D10021212004F0CCF9F0E7EFF31186DD
:1031C000314688F31288BFF36F8F606803F081FC8B
:1031D000A8B986F31188BFF36F8FEFE786F31188E4
:1031E000BFF36F8FE5E7EFF31186314688F312885E
:1031F000BFF36F8F606803F06CFC0028EED0FB69B2
:1032000000201D706368FA691B68C3F84425012219
:10321000C3F84825C3F82001D3F82041C3F858016A
:10322000D3F858019A6081F31188BFF36F8FBDE81E
:10323000F08100BF1C1200202DE9F041054600225C
:1032400001210820FEF772FF0820FEF753FF6C688B
:103250000121E06803F06EFC6B6819682369C1F80E
:103260002435A27D637D207D1343228B02431343CB
:10327000C1F86C356F68D7E9004313F0010346D0FD
:10328000D5F8108004F10C0108F1080204F59070E3
:1032900003F0B5FC061E07DA01212A4A2A4803F08A
:1032A000B1F93046BDE8F08198F8080000F05CFB09
:1032B0000823C4F80035FB69C4F844350023C4F87A
:1032C00048350123A360D4F85831002BFBD00026E9
:1032D000C4F800656B683146D86803F02BFC6D6854
:1032E0003146E8682C6803F025FC0823C4F8003553
:1032F0002A7A52B92B6AC4F834350123C4F8383518
:10330000C4F81021D4F8102123600026C9E7082250
:10331000C4F80025FA69C4F84425C4F848350123E7
:10332000A360D4F82031002BFBD00023C4F8203157
:10333000D4F820310123E3604FF48073C4F80433E0
:10334000C1E700BFE6860000487B00000123834000
:1033500070B5DC430B4AD2E8EF1F01EA0405C2E86E
:10336000E65F002EF7D14FF4803282400648C0F865
:103370000823BFF35F8FBFF36F8F0B4214BF012091
:10338000002070BDD80F00200050015070B40E49CD
:1033900022F07F46D1E90034D01AC31844F100046A
:1033A000C1E90034A6F50013B3F5400F09D2074B6D
:1033B0001B681A0A1B069C19054B42F10005C3E95C
:1033C000004570BC01F086BEF0060020DC0F002036
:1033D000F8060020D9B101230D4A8340D2E8EFCF8F
:1033E0004CEA030CC2E8E1CF0029F7D14FF4803357
:1033F000084A8340C2F80433074BD3E8AF3FC340C9
:10340000DB0742BF4FF40012044BC3F800217047A2
:10341000D80F002000500150D40F002000E100E040
:103420000D4B1868010A0006BFF35F8F0B4BD3F8F2
:103430000435181841F10001B3F5801F0AD2084B7A
:10344000D3E90023904271EB030303D210F18070A3
:1034500041F10001704700BFDC0F00200050015017
:10346000F80600202DE9F04F85B016461F460446A9
:103470009DF840A0FFF76AFF0190FFF7D1FFB0422F
:1034800071EB070352D23B4B301A67EB01019842B4
:1034900071F100014DD2384B03EB0413D3E9022341
:1034A0009F4208BF964258D04FF48038334908FAFB
:1034B00004F8204626F07F4BC1F8488303F04CFB0C
:1034C0004FF00309584604F15005AD00ADB205F1C7
:1034D000502504F5A87305F580350293029A20F073
:1034E0007F4341F82230C1F84483D1F80435244A9F
:1034F000C01A033820F07F4090422ED9286868B166
:10350000D1F80435A3EB0B0020F07F40B0F5000F9D
:10351000039322D9204603F01FFB039BBAF1000F4F
:1035200007D109EB030009F10109D7E7BAF1000F50
:1035300009D06FF0150520460199FFF74BFF28468B
:1035400005B0BDE8F08F01230E4AA340D2E8EF0F8B
:103550001843C2E8E10F0029F8D107490E9823016A
:10356000C8500F9B01EB04120025C2E902675360AB
:10357000E1E700BF01008000E0060020005001509C
:10358000FDFF7F00D40F00207FB500254FF0FF30F6
:103590004FF0FF31194C1A4B0226C4F80833C4F817
:1035A0004833184BC4F80855C3E902014FF480337F
:1035B0004FF40012C4F80433134B0121C4F8046320
:1035C0001520C3F880212A46FEF7B0FD1520FEF72E
:1035D00091FD01230D4AA360236013600C4B0D4A3B
:1035E000009328460023CDE90155FFF73BFF304605
:1035F000FFF7AAFA284604B070BD00BF0050015082
:1036000003000F00E006002000E100E0D80F0020DA
:103610008D330000FFFF7F002DE9F7432E4BD3F8D9
:10362000042390070BD5D3F8042142B10022C3F83C
:1036300004212A4AD3F80431136801331360264A5F
:10364000D2F80433D90326D5254BD3E8EF1F21F058
:103650000100C3E8E40F002CF7D1CB0702D4D2F865
:103660004031C3B100251C4CC4F84051D4F840315E
:10367000FFF7D6FEEFF31182202383F31288BFF306
:103680006F8F184BD3E90267B042B94106D282F37B
:103690001188BFF36F8F03B0BDE8F0834FF0FF38A0
:1036A000D3E900104FF0FF391D60C3E902894FF4E0
:1036B0008033C4F84833C4F84051D4F8403182F321
:1036C0001188BFF36F8F0029E5D0009032463B464A
:1036D00028468847DFE700BF00500150DC0F00207C
:1036E000D40F0020E006002030B5431C124C85B0FA
:1036F00005D08442A8BF0446012CB8BF0124FFF7BF
:103700008FFE0E4B0C4DD3E90013401AB0F5000F9D
:103710000FD22218AA4228BF2A4600205218084970
:10372000CDE90100009143F10003FFF79BFE05B0D6
:1037300030BD2A46F1E700BFFFFF7F00F006002002
:103740008D33000008B5FFF76BFE024B1B68C01AF3
:1037500008BD00BFF00600204FF47F03D3F83021EE
:10376000D3F83431072A05D1023B032B02D8024A91
:10377000D05C7047002070472787000008B5FFF72E
:10378000EBFF58B1644BD3F8202A3AB90D21C3F8A6
:10379000201A0121C3F81C19C3F81C290022D300E8
:1037A00003F57F03D3F80013013107D0D3F80013DA
:1037B0000132D3F80433202A0B60F0D1FFF7CCFF9D
:1037C000002840F0A080FFF7C7FF40B1534B544A98
:1037D000C3F830254FF050230122C3F858254FF489
:1037E0007F03D3F83021D3F83431072A09D1023BC3
:1037F000032B06D84B4AD35C1BB100224A4BC3F8BB
:103800004C25FFF7A9FF50B14FF05023D3F8002407
:10381000D10742BF0022C3F81421C3F818214FF486
:103820007F03D3F83021D3F83431072A09D14FF080
:103830005023D3F80024D20744BF6FF00102C3F82D
:103840000024FFF789FF18B16522334BC3F80C271A
:103850004FF47F03D3F83021D3F83431072A16D13F
:10386000314BD3F82034002B11DA4FF050230322D0
:10387000C3F8182501229A60D3F80421002AFBD04E
:103880000022C3F804210122DA60C3F818254FF49E
:103890007F03D3F83021D3F83431072A23D1023BF8
:1038A000032B02D8214AD35CEBB17E221A4B1B4971
:1038B000C3F80C27C3F83C297F231D4AC2F81831EE
:1038C0000023C1F8043EC1F8083E01F54821C1F8C3
:1038D0001031C2F82431C2F82C3102F5FF1202F582
:1038E0008052C2F8A032134AD2F88C3043F44063BD
:1038F000C2F88C30104A114B1168C3F84415D269D4
:10390000C3F84C2508BD2922034BC3F80C2703221A
:10391000C3F83C2757E700BF004000500090035019
:103920004400EFBE23870000002003501F870000E3
:103930000020005000ED00E00080FF00006000501B
:10394000014B1860704700BFE00F002010B5054B19
:103950001446186803F020F90028A4BF2070002046
:1039600010BD00BFE00F00200123024A8340C2F8CF
:103970000435704700700150014B00201B68184748
:10398000E40F0020014B1B68184700BFE40F002024
:10399000014B09201B681847E40F0020014B082049
:1039A0001B681847E40F002010B5144C237913BB93
:1039B00001232371124B0028206018BF184600F025
:1039C00037F8D0B923680F48002B08BF184600F01D
:1039D000B9F890B923680C48002B08BF184600F0CE
:1039E000F9F850B923680948002B08BF1846BDE80C
:1039F000104000F063B86FF0770010BDE40F0020B6
:103A00007939000091390000853900009D390000A6
:103A100008B5064B1B6843B10520FEF779FB20B9BA
:103A2000BDE808400520FEF765BB08BDE40F002097
:103A3000074B0246187938B91A6001221A714FF003
:103A40005023C3F8142570476FF07700704700BF0C
:103A5000EC0F00204FF050230022C3F80021D3F8D0
:103A60000021012208491A60096811B1C3F8042332
:103A70007047D3F80021002AFBD00022C3F80021B0
:103A8000D3F80031704700BFEC0F00204FF05023F7
:103A9000D3F80423D2070DD5D3F8002152B1002268
:103AA000C3F80021D3F800210122C3F80823024BF8
:103AB0001B681847704700BFEC0F0020054B0246FB
:103AC000187918B91A6001221A7170476FF07700DF
:103AD000704700BFF40F00204FF050230022C3F8BE
:103AE0002021D3F8202101229A61094A126822B1CB
:103AF0004FF48072C3F804237047D3F82021002AC2
:103B0000FBD00022C3F82021D3F82031704700BF3A
:103B1000F40F00204FF05023D3F80423D2050ED524
:103B2000D3F820215AB10022C3F82021D3F8202154
:103B30004FF48072C3F80823014B1B681847704785
:103B4000F40F0020074B0246187938B91A60012299
:103B50001A714FF05023C3F8802570476FF077003B
:103B6000704700BFFC0F00204FF050230022C3F825
:103B70002421D3F8242101221A62094A126822B1B1
:103B80004FF40072C3F804237047D3F82421002AAD
:103B9000FBD00022C3F82421D3F82431704700BFA2
:103BA000FC0F00204FF05023D3F8042392050ED5CC
:103BB000D3F824215AB10022C3F82421D3F82421B8
:103BC0004FF40072C3F80823014B1B681847704775
:103BD000FC0F0020074B0246187938B91A60012201
:103BE0001A714FF05023C3F8182570476FF0770013
:103BF000704700BF041000204FF0502310B5D3F8D9
:103C000018141E4C11F4803FD3F818241AD002F077
:103C10000302022A04D0012A01D003F083F8012212
:103C20004FF05023C3F818250022C3F80421D3F81D
:103C3000042101229A6022688AB9D3F80421002A5B
:103C4000FBD014E0D3F81424D207E8D5D3F81C2411
:103C500002F00302013A012ADFD822681AB10222D7
:103C6000C3F8042310BDD3F80421002AFBD000229E
:103C7000C3F80421D3F80431F4E700BF0410002096
:103C8000F8B54FF0502301250026D3F80443184F10
:103C900004F0820404B9F8BDB4FA84F0C0F11F0046
:103CA000830003F580739BB203F15023196805FA72
:103CB00000F224EA02040029ECD01E601B684FF0D9
:103CC00050230128C3F808230ED1D3F81824D3F8C1
:103CD000182402F00302012A06D10221C3F81815A4
:103CE000C3F804139A60D5E73B68C0B29847D1E7A0
:103CF00004100020036803F01F025B09026004D077
:103D0000012B034818BF002070470248704700BFCE
:103D10000028845000258450034A4309D35C00F0F6
:103D20001F001844C0B270472B870000034611F0F3
:103D3000010010B5CCB20BD1A207C4F340000DD5E1
:103D4000074A106A58601062003818BF012005E069
:103D500004490A6A1A600A62002AEDD010BD00BF49
:103D60000028845000258450F7B504460846FFF724
:103D7000D3FF06B204EB4606B38A0D46DB072BD50C
:103D8000204603F0D2F82946204603F03EF858B109
:103D9000204603F050F80022276800B207EB8003AA
:103DA000C3F81025C3F810252946204603F06CF807
:103DB000002101A8B1820195FFF79CFF019B00EB58
:103DC0008300D0F80022064B134043F00203C0F8F2
:103DD0000032084603B0F0BD6FF01500FAE700BFEF
:103DE000F0F0FCFF70B590F88C40054690F88D60BF
:103DF00024BB21466022143003F04CFC2146114BB9
:103E0000286853F836608E420ED10024C0F87C41F9
:103E1000D0F87C3140F30730FEF76CF901232046DF
:103E200085F88C30AB6770BDCBB29B0003F5807218
:103E30007C2B04BF845083580131E4E76FF0770096
:103E4000F1E700BF887D000090F88D00024B03EB86
:103E5000800002F0BBBE00BFD400002010B5064BAE
:103E600090F88D000C4603EB800002F095FE0028D0
:103E7000A4BF2070002010BDD40000202DE9F04F19
:103E8000814659F804BB90F88D40DBF804136B4B66
:103E9000C9B2804653F8342058468BB041F00041F7
:103EA00003F01CF8051E36DA0023CDE90833634B16
:103EB00008A803EBC4035B6819460193FFF736FFBC
:103EC000042303EBC40303935D4B0DF1200A02931B
:103ED0000023029A009312F8013B58490292039A78
:103EE00002EBD3028A5C03F0070322FA03F3DA073A
:103EF00019D4009B0AF1040A9BB14FF00041002243
:103F0000584602F0EBFF019908A8FFF70FFF0028C1
:103F1000DAD125F000450124002D78D10BB0BDE8A1
:103F2000F08F0123D5E7009B464A13440493DAF847
:103F300000100029DDD091FAA1F1B1FA81F1049BC2
:103F40001C7841EA44142046FFF7E6FE08EB4000E7
:103F5000878AC808BB08059301231AF8002001F0DE
:103F6000070103FA01F122EA01020AF8002007A87A
:103F70000794FFF7BFFE079A059B803250F8222076
:103F8000C7F382065B073746C2F3014223D5484692
:103F9000D6B221463A4602F058FF07A80794FFF729
:103FA000A9FE079B803350F82330C3F301439E42A0
:103FB00007D10021204602F019FF3146204602F0C9
:103FC00015FF07A80794FFF795FE0122079B02FA49
:103FD00003F30362ABE7022A0DD10321204602F06E
:103FE00005FF06F00503012BEBD13A462146484672
:103FF00002F02BFFE5E702212046059202F0F6FED3
:10400000032EF2D0059A032ADBD1022EECE795FAB3
:10401000A5F3B3FA83F304FA03F225EA020503F5E4
:10402000A2725BF8222008EB43034846B3F87C10E9
:10403000C2F3014202F009FF6EE700BF887D000075
:104040003B8700003B87000010B50446FDF702F8EF
:1040500003480121034A02F0D5FA204603F052F941
:10406000387B00003D8700002DE9F84304460D46EB
:1040700000AFEFF31188202383F31288BFF36F8F13
:104080000428294A98BF294BE9468AB09668117CD2
:1040900098BF53F820306A4688BF254BC2E90731E4
:1040A00040F2013323489384234BC2E9050442F8CC
:1040B000103F00234FF431512048FDF79BF8CD46C7
:1040C00045B1EB69C3F3080323B101211C4A1B4826
:1040D00002F098FA2EB1304603F0A8F908B103783F
:1040E00003B91848E9468AB06A46174BD061C2E95D
:1040F000053640F201331384144B42F8103F00237D
:104100004FF411510D48FDF775F82946CD4620466C
:10411000FFF79AFF88F31188BFF36F8F3046FDF7E2
:104120008DFFBD46BDE8F8830C100020987D00008F
:104130004C8700006287000005000001387B00000A
:104140008A8700005A870000AB8700000400000146
:1041500038B50A4B53F82040013053F82050A5429F
:1041600000D838BD606830B1037FDB0701D403F0AD
:10417000A6F80834F3E723689847FAE7AC7D000017
:10418000012270B52A4B032086B01A70FFF7E0FFBA
:10419000FEF714FBFDF7F2FA0420FFF7D9FF254CD8
:1041A000254D2646AE4204F1300410D300F094FCB5
:1041B000204C224EAC4226D300F0A2FCFBF7F0FFCD
:1041C0001F4A137B23F00103137306B070BD54F82C
:1041D0000C3C059354F8103C049354F8143C03939E
:1041E00054F8183C029354F81C3C019354F8203CBA
:1041F000009354E90A2354E90C0100F037FA54F80B
:10420000303C5E65CDE7D4E90A23B3F1FF3F08BF38
:10421000B2F1FF3F05D052EA0301206803D100F05C
:104220002BFD3034C6E73146183000F0C3FEF8E706
:104230001C120020B47A0000B47A00001F75000040
:10424000B0070020B02370B5144E86B003FB0066A3
:10425000134B012205930F23CDE903320023CDE94F
:10426000013314234FF4A0720E4D0F4903FB005588
:10427000044602FB00110D4B3046009500F0F6F9A4
:10428000737B2C7423F004037373094B013403EB29
:10429000C423EE606B6006B070BD00BF0007002055
:1042A0000D8800000C100020201D0020D573000098
:1042B00020150020BFB50020FFF74AFF2A4B03F569
:1042C000006282F3088883F30A880024E023274DE4
:1042D000274F85F82230EC772C766C76AC7685F813
:1042E00020406B6A43F4E0236B6285F82340FDF7BE
:1042F0001FFEFDF791FF4FF0FF33AB62EB62FEF75D
:104300002FF9FDF7ADFFFCF705FE1A4800F040FA63
:10431000FEF736FA0120FFF71BFF0220164DFFF7CC
:1043200017FF00F021FC154B15495D61154B4FF44B
:104330008062059301232846CDE90343CDE901447A
:104340003B46009400F092F906466A7B284622F02C
:1043500004026A7303F0A6F82046FFF773FF3A469B
:1043600031462846FDF736FF2015002000ED00E01D
:104370008141000060080020B00700200C100020E0
:10438000601E002012880000002038B5054C064D44
:10439000AC4200D338BD204602F0BCFF0028F9DB58
:1043A0001C34F5E78C0100208C01002073B50C460D
:1043B000EFF31181202585F31288BFF36F8FC56855
:1043C0005DB125602B68C360836901338361002080
:1043D00081F31188BFF36F8F11E052EA030603D116
:1043E0006FF00B002560F3E7CDE9002302460830AB
:1043F00000F0B8FA18B9034B9B681B69236002B040
:1044000070BD00BF0C1000202DE9F3410446174693
:104410001E46EFF31188202383F31288BFF36F8FBA
:10442000C368334A7BB180689168884219D057EAE3
:10443000060318D188F31188BFF36F8F6FF00F0058
:1044400002B0BDE8F081916891F90E100133E3608C
:1044500093682161A36088F31188BFF36F8F0020F8
:10446000EEE72169F2E791F90E1090F90E306FF046
:104470007E029942A8BF19469142B8BF11468B42AD
:104480002DDD02F0B2FF054622464146CDE9007619
:10449000184800F067FA0028E1D0EFF311862023D6
:1044A00083F31288BFF36F8FA068D0B123682169AE
:1044B0009C420AD04BB193F90E309942A8BF1946DD
:1044C0006FF07E039942B8BF194602F08EFF40B1EB
:1044D0003146084800F0DAFA6FF00A00B0E700252C
:1044E000D2E7002DF4D186F31188BFF36F8FF3E785
:1044F0000C1000201D120020F8B583680546002B23
:1045000040D0234A926893423FD1C368012B03D91C
:10451000013BC3600020F8BDEFF31187202383F334
:104520001288BFF36F8F0169806802F05EFF2C680C
:10453000AC4207D10023C5E9023387F31188BFF3EA
:104540006F8FE7E7002CF5D0D4E900320026136026
:104550005A60637BC4E9006623F002036373A660BC
:1045600004F1180003F033F8AC6094F90E302046E3
:104570002B61C4F8AC6002F095FF3946054800F0A5
:1045800085FAC7E76FF01500C5E74FF0FF30C2E7C7
:104590000C1000201D12002070B5EFF311862023AF
:1045A00083F31288BFF36F8F0468A0421BD0D4B18D
:1045B000D4E90032002513605A60637BC4E90055DA
:1045C00023F002036373A56004F1180002F0FFFFFB
:1045D0002046C4F8AC5002F065FF3146BDE870409B
:1045E000064800F053BAD0E902329A4218BF0133AC
:1045F000836086F31188BFF36F8F70BD1D1200209A
:1046000013B5EFF31181202484F31288BFF36F8F69
:10461000846844B1013C846081F31188BFF36F8FDB
:10462000002002B010BD52EA030406D181F31188C4
:10463000BFF36F8F6FF00F00F3E7CDE90023024661
:10464000014800F08FF9ECE71D12002010B5044678
:1046500008B9054B9C681F2204F1740003F022F88E
:10466000002084F8930010BD0C1000202DE9F04FBD
:10467000984685B000F15803C0E91633129B002517
:1046800003730423D61D26F007064373119B01EB29
:10469000060A0F46C0E90655514685608373C57307
:1046A0000446DDF838B0DDF84C90FDF7FBF9109BBF
:1046B000073020F00700C4E92576C4F89C00029377
:1046C0000F9BAAEB0006CDE900B3324643463946BC
:1046D0002046FDF763FD0F9BC4E9188BA366109B72
:1046E0006565E366EFF31183202282F31288BFF33E
:1046F0006F8F104F3A6A3C62226783F31188BFF3D1
:104700006F8FB9F1000F11D01F22494604F17400D8
:1047100002F0C8FF84F89350BB680BB1D3F8A03007
:104720003046C4F8A03005B0BDE8F08F84F874902E
:10473000F2E700BF0C100020F0B5002587B005950A
:10474000109DDDE9127604950F9D044603950E9D9C
:1047500002950D9D01950C9D0095FFF787FFB6F121
:10476000FF3F08BFB7F1FF3F05D056EA070305D169
:10477000204600F081FA204607B0F0BD3A463346A5
:1047800004F11800014900F015FCF4E71F75000062
:1047900040F2011383810023C0E92533C0F8A03023
:1047A000014B9860704700BF0C1000206FF00A01A9
:1047B000094A9368C3F8AC100849C3F8A8004B68CD
:1047C00043F080534B60002383F31188BFF36F8F56
:1047D0009368D3F8AC0070470C10002000ED00E0A7
:1047E00070B590F90D20437B002A36DBD90634D111
:1047F0001B4C63F07F032246437352F8183FE16974
:10480000934207D1C0E900210860E06111E09942BC
:10481000F8D01B68002BF5D090F90E5093F90E607C
:10482000B542F4D0AE42F2DD5968C0E9003108600B
:104830005860A569954200D005B9E568A3685A7B20
:10484000D20604D1DA897F2A01D9AA6932B1AB42F2
:1048500002D0284600F00AFB656170BD6361FCE789
:104860000C10002038B590F90D200146002A437B3A
:1048700004DA03F07F03437302F0DAFD0D4D2A469C
:1048800052F8184FAB68944200D004B9EC688B42E0
:1048900007D05A7BD20604D1DA897F2A01D9A269CE
:1048A0002AB1A34202D0204600F0E0FA23466B6111
:1048B00038BD00BF0C100020B3F1FF3F08BFB2F1BC
:1048C000FF3F03D00249183000F074BB704700BFAF
:1048D0001F75000070B590F90D200146002A437B3A
:1048E00004DA03F07F03437302F0A2FD1C4C4B7B00
:1048F000224663F07F034B7352F8183FE0699342FE
:1049000007D1C1E900200160E16111E09842F8D0CF
:104910001B68002BF5D091F90E5093F90E60B5424B
:10492000F4D0AE42F2DD5868C1E900300160596050
:10493000A569A368954200D005B9E5688B4207D008
:104940005A7BD20604D1DA897F2A01D9AA692AB111
:10495000AB4202D0284600F089FA2B46636170BD55
:104960000C100020F8B5DDE906670D4B0C46986881
:1049700011460C4A1060EFF31182202282F3128854
:10498000BFF36F8F9D68284602F064FD28463246CB
:104990003B46FFF791FF2046BDE8F840FFF706BF12
:1049A0000C10002030100020F8B50446EFF31187FA
:1049B000202383F31288BFF36F8F437B49B203F048
:1049C0001F02002A0CBF0126002639D103F07F0305
:1049D0002D4D437302F02CFD2A46437B817363F017
:1049E0007F03437352F8183F934227D1E869C4E923
:1049F00000200460EC610FE09842F8D01B68002BA7
:104A0000F5D093F90EC06145F6D08C45F4DD5968B8
:104A1000C4E900310C605C60AC69944200D004B918
:104A2000EC68AB689C4202D0204600F01FFA6C6133
:104A300087F31188BFF36F8F3046F8BDE869DEE772
:104A40009B071ED5856802F0F3FC81732B689D429D
:104A500009D16B68C4E900531C606C60E8E76A68C0
:104A60009342F6D01B68002BF3D093F90E209142AD
:104A7000F5D08A42F3DD5A68C4E9003214605C6004
:104A8000D6E78173D4E700BF0C10002049B9EFF3DB
:104A9000058030B9054B5A699B689A4201D0FFF7EF
:104AA00085BE81F31188BFF36F8F70470C10002013
:104AB000034648B9EFF3058232B9064A5169926854
:104AC000914201D0FFF772BE83F31188BFF36F8F5D
:104AD000704700BF0C100020EFF31181202383F3F7
:104AE0001288BFF36F8F054B9A68D37B013BD3735A
:104AF00081F31188BFF36F8F704700BF0C10002047
:104B000070B5EFF31186202383F31288BFF36F8F04
:104B1000144DAB68DA7B0132DA732A4652F8184F2B
:104B2000944200D004B9EC685A7BD20604D1DA89E9
:104B30007F2A01D9A2692AB1A34202D0204600F0FF
:104B400095F923466B6186F31188BFF36F8FEFF3FE
:104B50001180202383F31288BFF36F8FBDE870406C
:104B6000FFF7A6BF0C100020024B03F11802C3E9A7
:104B7000062270470C10002070B5EFF31186202339
:104B800083F31288BFF36F8F1B4CA168E0690B6839
:104B9000814214BF1A46002249680B605960A3681D
:104BA000E1692AB9154AC3E900210B60E3610CE011
:104BB00093F90E0092F90E50A84218D0854216DDE6
:104BC0005168C3E900210B605360A5690B4B9D42FE
:104BD00000D005B9E568A3689D4202D0284600F0E0
:104BE00045F965613046BDE87040FFF7DFBD8A4298
:104BF000D8D01268D5E700BF0C1000202410002088
:104C0000F8B550EA010306460C4603D1FFF7B4FF9E
:104C10000020F8BDEFF31187202383F31288BFF340
:104C20006F8F124D124BA8681860FFF71BFEA86823
:104C3000234632460F49183000F0BCF9AA680446F2
:104C4000537B384643F004035373FFF7AFFDAB6863
:104C5000D3E90A23B3F1004F08BF002AD8D102F0EC
:104C6000DEFC201A20EAE070D3E700BF0C10002021
:104C7000301000201F75000038B50446EFF3118591
:104C8000202383F31288BFF36F8F437B5B070FD51D
:104C9000183002F09CFC637B204623F0040363730E
:104CA000FFF79EFD2946BDE838400448FFF7EEBEF9
:104CB00085F31188BFF36F8F38BD00BF1D12002030
:104CC000014B9868704700BF0C1000202DE9F84395
:104CD0000446077BEFF31185202383F31288BFF38B
:104CE0006F8F437B190705D585F31188BFF36F8F4D
:104CF000BDE8F883D90943F0080260D14273A36884
:104D000013B1204602F09CFB04F1180002F05FFC96
:104D1000A66D04F15808B04511D04FF0000976B1E6
:104D2000304602F08DFB06F1180002F050FC3046D0
:104D3000C6F8AC90FFF754FDA66DB045EFD1DFF893
:104D4000C480D8F808309C4241D1EFF30589B9F10D
:104D5000000918BF4FF00109D8F818602A4A964296
:104D600000D00EB9D8F80C60B34202D0304600F043
:104D70007DF82046C8F8146001F02EFD204600F0B2
:104D8000CDF8B9F1000F02D02048FFF701FDD8F8A7
:104D900008309C4231D1EFF3058373BB227BD207ED
:104DA00018D42846FFF702FDFB07A1D5002383F3A3
:104DB0001188BFF36F8F0423184602DF98E703F0D2
:104DC0007F0343F00803437302F032FB97E74FF091
:104DD0000009C1E785F31188BFF36F8F83F3118852
:104DE000BFF36F8F0423184602DFEFF311802023F7
:104DF00083F31288BFF36F8FD4E785F31188BFF375
:104E00006F8FD1E70C1000202410002060080020D4
:104E10000122044BC01A044BC0105843034B1A54D0
:104E2000704700BF10090020ABAAAAAA1D120020DB
:104E3000C3897F2B12D80A4B1B6863B1094B90F9C9
:104E40000E201B689A4209DB437BDB0606D1064B2A
:104E5000C31A18BF012303F0010070470023FAE7CB
:104E6000DC000020341000200007002070B50E4B3D
:104E70000E4C1E7C054606EB460304EBC30420469D
:104E800002F0A5FB00220A4B28469A55FFF7D0FFF7
:104E900048B1084B2046BDE870401A680649013AFF
:104EA000D31700F087B870BD0C1000201009002047
:104EB0001D120020DC000020114E000038B5EFF379
:104EC0001185202383F31288BFF36F8F104B114A93
:104ED0009C681068A04206D1FFF7C8FF85F31188CF
:104EE000BFF36F8F38BD00211B7C11600A4AD35C71
:104EF000002BF3D02046FFF79BFF0028EED0637B0A
:104F0000DB0602D12046FFF7E5FC2046E4E700BFC0
:104F10000C100020301000201D120020EFF3118132
:104F2000202383F31288BFF36F8F0A4A136A8342E8
:104F300007D11B6F136281F31188BFF36F8F704726
:104F40001346002BF7D01A6F8242F9D1026F1A670D
:104F5000F1E700BF0C100020024B1868984208BF10
:104F600000207047E0000020034B1B680BB9FEF7E0
:104F7000E9BB0020704700BF3810002030B570B189
:104F80000B4B5B6898420AD0036843B1D3E9042114
:104F9000D0E90445121941EB0501C3E90421D0E928
:104FA000003213605A600023C0E9003330BD00BFF7
:104FB000E0000020B3F1FF3F08BFB2F1FF3F2DE951
:104FC000F84F0446994615461F467AD08160EFF3A4
:104FD0001188202383F31288BFF36F8FB9F1000F7C
:104FE000DFF8E4A020DBFFF7BFFFDAE90027013597
:104FF00049F100092D1849EBE07306464FF001090D
:10500000C4E90453AD1843EB0707FFF7A5FF0346B8
:10501000DFF8B8E0DEF804A0EBB9C4E900EACAF8AA
:105020000040CEF8044028E06FF00103DAE90012F6
:105030005B1A4FF0FF3161EB02025B1B62EB09026E
:10504000012B72F10001BCBF012300224FF00009C7
:10505000C0E90432D9E7D3E9041CD4E904208A4228
:1050600070EB0C0B24DA891A5A686CEB0000C3E968
:105070000410C4E9003214605C60FFF76DFF8442E5
:105080000ED1134B1B685BB9B9F1000F02D1FFF7CA
:105090006BFF0646304602F083FA0021FEF724FB40
:1050A00088F31188BFF36F8F28463946BDE8F88F23
:1050B000521A60EB0C009A45C4E90420ADD01B687D
:1050C000AAE700252F46EFE728090020E00000208E
:1050D000381000202DE9F047EFF31185202383F3EA
:1050E0001288BFF36F8FDFF8A0900026C9F8000088
:1050F0000027FFF731FFDFF89480D9F80030D8E9B6
:1051000000ECD91750B1D0E90442A34271EB020A76
:105110001BDAE41A62EB0102C0E90442002413EB3B
:105120000E034CEB01012046C8E90031C9F80040EC
:1051300002F036FA2146FEF7D7FA85F31188BFF35D
:105140006F8FBDE8F047FFF7B9BE14EB0E024CEBD2
:10515000E473C0E90467C8E90023FFF70FFF85F394
:105160001188BFF36F8F83689847EFF31185202371
:1051700083F31288BFF36F8FD9F800301B1BC9F877
:105180000030FFF7E9FEB8E73810002028090020BA
:1051900010B5EFF31184202383F31288BFF36F8FD0
:1051A000FFF7E2FE0346054AD2E90001181841EB79
:1051B000E37184F31188BFF36F8F10BD28090020BD
:1051C000F8B50546EFF31187202383F31288BFF368
:1051D0006F8F036823B187F31188BFF36F8FF8BD1A
:1051E000D0E90A46611C46F10002022972F1000270
:1051F00036D3012C76F10002BCBF01241E46013CCF
:1052000046F1FF3602F00FFA013041F100010019BA
:1052100046EB0101012871F1000130DB02F003FAD5
:105220006FF00203013041F10001001946EB01016A
:1052300083426FF000438B4126DB02F0F4F901302A
:1052400041F100016FF00102001946EB01034FF03C
:10525000FF31121A61EB030328461C49FFF7AAFE2F
:105260002B6B01332B632B6A93B93C462B4653F8C7
:10527000185F9D4200D0D5B984F31188ADE76FF077
:1052800001024FF0FF33E7E700224FF00043E3E76E
:1052900087F31188BFF36F8F28462B6A9847EFF387
:1052A0001184202383F31288BFF36F8FDEE7284633
:1052B00002F007F90023C5F8AC3084F31188BFF37E
:1052C0006F8F2846BDE8F84002F0ECB8C1510000ED
:1052D0002DE9F04105461C4690461F46EFF3118626
:1052E000202383F31288BFF36F8FB4F1FF3F08BF11
:1052F000B2F1FF3F05D186F31188BFF36F8FBDE890
:10530000F081002C09DB012A74F10003BCBF0122EB
:10531000002412F1FF3844F1FF37284602F057F914
:10532000DDE906010023C5E90A012B6342463B463D
:1053300028460249FFF73EFEDDE700BFC1510000ED
:1053400010B50A4C23681BB101232360002010BD57
:1053500000F0F4F80028F7D00138072803D8044BF0
:1053600053F8200010BD034810BD00BF3C100020C2
:10537000C47D0000FE8FFFFFBFF34F8F0549064B32
:10538000CA6802F4E0621343CB60BFF34F8F00BFE3
:10539000FDE700BF00ED00E00400FA0530B44FF077
:1053A000FE3200250B4B0C4C0C494968C3F8002415
:1053B000C3F80424C3F80824C3F80C24C3F8102449
:1053C000C3F81424C3F81824C3F81C24C4F80055E7
:1053D00030BC08470050845000408450E800002052
:1053E000024BD0E90012C3E900127047E800002028
:1053F00010B5044650B1636813F0685F05D0064AE3
:10540000934202D000236260236010BD034B044826
:105410005B689847EFE700BF2C5F5CA9E8000020BD
:10542000E47D0000C8B143680D4A934213D013F0E5
:10543000685F0ED0012350E8002F194640E8001C99
:105440009CF0000FF7D1012AF5D0BFF35F8F002049
:10545000704704487047044870476FF4E040704755
:105460002C5F5CA9E98FFFFFEA8FFFFF034680B145
:10547000426809498A420AD012F0685F05D0BFF33A
:105480005F8F002210461A60704704487047044836
:1054900070476FF4E04070472C5F5CA9E98FFFFF15
:1054A000EA8FFFFF10B5044620B10023034A2360B2
:1054B000626010BD0248FFF771FFF6E73A00003A5C
:1054C0000C7E000070B5194CD0F804C00668C4F812
:1054D00004C0D0F808C0C068C4F808C0E060266006
:1054E0000868134B134D18604868D5F818215860A8
:1054F000886812F0685F9860C8680969D8601961A7
:1055000012D000230C4A05F58A70C5F81431C5F88D
:10551000B831C5F81821C5F8BC21B047236805F596
:10552000DC70BDE87040184770BD00BF040100206A
:10553000F0000020541000202C5F5CA908B500F09A
:1055400011F830B900F010F838B9054AC2F80C0A61
:1055500008BD00F037F8032008BD042008BD00BFD7
:10556000005084500020704710B5114800F048F8F2
:1055700000B110BD0F4800F043F80028F9D10E4CDF
:10558000204600F03DF80028F3D10C4B0C481C607D
:1055900000F036F801460028EBD100F02DF8044663
:1055A00008B1204610BD00F03FF82046FAE700BFE2
:1055B00044010020400100203C0100203401002073
:1055C0003801002008B5084800F024F8074800F02A
:1055D00021F8074800F01EF8064800F01BF8BDE867
:1055E000084000F00BB800BF44010020400100203B
:1055F0003C0100203801002000207047704700BFA8
:1056000008B5034B02681B6810689847002008BD66
:105610000401002008B5034B02685B6810689847D6
:10562000002008BD0401002070B5094C094D206917
:10563000AB68984718B1084B08485B689847002149
:10564000074AEB6811602069BDE87040184700BF49
:10565000F000002004010020E8000020307E00005F
:10566000501000200CB430B589B005460C461C2201
:10567000002101A802F00EF8022305958DF80630EE
:105680000D4B029323462CB1B4F1004F28BF4FF0CD
:105690000043013B1D440DAA0C9901A806950092F8
:1056A00000F00CF814B1059B00221A7009B0BDE897
:1056B000304002B0704700BF897700002DE9F04FFD
:1056C00043688DB015468046029383789A0740F16F
:1056D0000D8100240E78002E00F00A81252E0BD0BB
:1056E0004B1C0393013441463046029B98470028E7
:1056F000C0F2F6800399EDE74E788B1C252E0393BC
:10570000F0D00027B946BB46BBF11F0F38D8A6F131
:105710002003102B0AD8DFE803F02A090930090911
:10572000092109090928092D09091F00A6F13003DB
:10573000092B33D92A2E37D11BF0400F55F8043BE3
:1057400040F08280002BA7BF4BF0200B9946C3F19D
:1057500000094BF0280B01E04BF0010B039B13F801
:10576000016B0393002ECFD130E04BF0020B4BF0D6
:10577000040BF3E74BF0080BF0E74BF0100BEDE7F1
:10578000BBF17F0F19D8A6F13003092BD2D81BF03B
:10579000400F03D00A2101FB0737DFE70A214BF056
:1057A000200B01FB0939D9E72E2E06D11BF0400F43
:1057B00040F09E804BF0400BD0E76C2E31D02BD8C0
:1057C000682E36D06A2E3CD04C2E3AD0002F46F0B0
:1057D0002003B8BF2BF04002A3F16501BCBF002736
:1057E0001FFA82FB022901D9612B2FD10735072728
:1057F000DFF8ACA225F0070508351BF0080F66D0CE
:105800000AEB070B56465E4563D1A4EB0A0AA9EBE7
:10581000070906EB0A026FE1742E9FD07A2E9DD005
:10582000D4E71BF0800F18BF4BF4007B4BF0800BCC
:1058300094E71BF4807F18BF4BF4007B4BF4807B14
:105840008CE74BF4207B89E71F4687E7A6F16301CD
:10585000122900F2F080DFE811F013004F00EE0093
:10586000EE00EE00EE004F00EE00EE00EE00EE0067
:10587000EE00FE00E900EE00EE001B00EE00AF00BF
:1058800055F8043B01270DF1180A8DF81830B4E7DC
:1058900055F804AB834BBAF1000F08BF9A461BF0D2
:1058A000400F504614BF39464FF0FF3101F00AFF58
:1058B0000746A2E741462020029B984700280FDBBD
:1058C000013EB742F6D34C44B146A41B98E74E467E
:1058D000F7E7414616F8010B029B9847002892DA39
:1058E00098F8023043F0040388F802304FF0FF3498
:1058F00020460DB0BDE8F08F1BF0800F34D01BF4B4
:10590000007F2CD0073525F00705AA4669685AF8AC
:10591000080B2BF010050029ADB237DA404245F4F0
:10592000806561EB41010DF1180B0A235A4601F025
:10593000D5FEA0EB0B0301936B0662D5019B25F00E
:1059400001019F4289B240F3A180002E00F09980AE
:1059500015F0100240F09C80BB460D4623E0AA469D
:105960005AF8040BC117D4E7AA461BF4807F5AF8F3
:10597000041B01D10846F5E71BF4007F19BF48B2AC
:1059800041F3C01108B241F3C031C2E750EA01034C
:10599000C9D11BF0400FC6D0002FC4D12BF011028B
:1059A000BB46019795B240F2064115EA01021CBFC1
:1059B0000BF1010B00222CE02BF010020A231FFA3E
:1059C00082FB1BF0800C49D01BF4007115BF07351A
:1059D000AA4625F007055AF8040B1EBFAA466968B7
:1059E0005AF8080B50EA010545D12BF016051BF0BB
:1059F000400FADB242D0002F40D12BF017020197DB
:105A000095B215F0100248D0019B002E42D103F14F
:105A1000010B29075AD4EB0706D5D9456FDDA9EB51
:105A20000B030199CB465F185B4649E04BF0100B26
:105A300010237826C5E7782B04D1C6F1780343F00C
:105A40001003BEE741462520029B98470028FFF639
:105A500047AF023447E608230026B2E7AA461BF404
:105A600080715AF8040BBDD01BF400711ABFC0B28C
:105A7000614680B2B6E72BF0060295B20DF1180B25
:105A800054E725F01105BB46ADB28CE70D46B8E7EB
:105A90003B460D4603F1020BBBE7DDF804B082E79D
:105AA000218800001A880000CDE9043241462020F8
:105AB000029B98470028FFF613AF049B059A013319
:105AC0009945F1DCA4EB0B019B46CC180AB3414687
:105AD0003020029B98470028FFF602AF8EB90134B0
