:10000000281B0020F10E0000314F0000DD0E000023
:10001000DD0E0000DD0E0000DD0E0000DD0E000034
:100020000000000000000000000000005D10000063
:10003000DD0E000000000000F50F0000DD0E0000E6
:10004000C9110000C9110000C9110000C911000048
:10005000C9110000C9110000C9110000C911000038
:10006000C9110000C9110000C9110000C911000028
:10007000C9110000C9110000C9110000C911000018
:10008000C9110000C9110000C9110000C911000008
:10009000C9110000C9110000C9110000C9110000F8
:1000A000C9110000C9110000C9110000C9110000E8
:1000B000C9110000C9110000C9110000C9110000D8
:1000C000C9110000C9110000C9110000C9110000C8
:1000D000C9110000C9110000C9110000C9110000B8
:1000E000C9110000C9110000C9110000C9110000A8
:1000F000C9110000C9110000C9110000C911000098
:10010000C9110000C9110000C9110000C911000087
:10011000C9110000C9110000C9110000C911000077
:10012000C9110000C9110000C9110000C911000067
:10013000C9110000C9110000C9110000C911000057
:10014000C9110000C9110000C9110000C911000047
:10015000C911000053B94AB9002908BF00281CBFC3
:100160004FF0FF314FF0FF3000F00CB8ADF1080C4C
:100170006DE904CE00F008F8DDF804E0DDE90223C3
:1001800004B07047704700BF2DE9F04786468C46A3
:100190000846089E154674461946002B40F0C1805B
:1001A0008542B2FA82F245D94AB1C2F1200300FA7F
:1001B00002FC954094402EFA03F343EA0C0C4FEAFC
:1001C000154EA8B2230CBCFBFEF80EFB18CC08FBA6
:1001D00000F943EA0C43994528D9EB1808F1FF3799
:1001E00004D2994502D9A8F102072B44A3EB0903D5
:1001F000A4B2B3FBFEFC0EFB1C330CFB00F044EA84
:100200000344A04214D92C190CF1FF3304D2A042AC
:1002100002D9ACF102032C44241A43EA07401EB170
:10022000D440002334607360BDE8F0874746DDE7C3
:100230006346F1E792BB431B01214FEA154EAFB273
:10024000200CB3FBFEFC0EFB1C330CFB07F840EA52
:100250000343984561D9EB180CF1FF3004D298455F
:1002600002D9ACF102002B44A3EB0803A4B2B3FB08
:10027000FEFC0EFB1C330CFB07F744EA0344A742C9
:100280004DD92C190CF1FF3304D2A74202D9ACF19D
:1002900002032C44E41B43EA0040C0E7C2F1200300
:1002A0009540944020FA03F12EFA03F34FEA154EDD
:1002B0009040AFB20343B1FBFEFC0EFB1C10190CC7
:1002C0000CFB07F841EA0041884522D969180CF176
:1002D000FF3004D2884502D9ACF102002944A1EBD9
:1002E00008019BB2B1FBFEFC0EFB1C110CFB07F7D7
:1002F00043EA01439F420ED9EB180CF1FF3104D2BF
:100300009F4202D9ACF102012B44DB1B41EA0041C0
:1003100093E76046E3E76146F7E76046A4E7634694
:10032000B8E7834206D916B9002108467CE7C6E93A
:1003300000E0F9E7B3FA83F78FB9834201D372453E
:1003400008D8BEEB020460EB030301209C461EB9F3
:10035000002169E73846FAE7C6E9004CF8E7C7F13B
:10036000200CBB400EFA07F522FA0CF42EFA0CF121
:10037000BA401C4320FA0CF3B8404FEA1449014339
:100380001FFA84FEB3FBF9F809FB18300B0C08FBCD
:100390000EFA43EA00439A4540D9E31808F1FF30CA
:1003A00004D29A4502D9A8F102002344A3EB0A0320
:1003B00089B2B3FBF9F809FB183308FB0EFE41EADA
:1003C00003418E452CD9611808F1FF3304D28E45C4
:1003D00002D9A8F10203214443EA0040A1EB0E0137
:1003E000A0FB02984145CE46434602D306D14D4577
:1003F00004D20138B9EB020E68EB0403002EA7D03B
:10040000B5EB0E0261EB030101FA0CFC22FA07F3D3
:10041000F9404CEA0303C6E9003199E74046C5E7D5
:100420004346D9E710B40A78022A03D0052A15D02A
:1004300010BC7047CB68012BFAD1D1E90123D35C02
:10044000312B03D1094810BC04F099BB322B01D1E8
:100450000748F8E7332BEBD10648F4E783680A2214
:10046000DC680549A446642310BC60479869000015
:100470009069000088690000C40D002038B5214C47
:10048000206805F043FE20B91F4804F063FC0120FA
:1004900038BD1E4805F03AFE08B91D48F5E71D486D
:1004A00004F053FB0028F2DB1B4804F04EFB00284D
:1004B000EDDB1A4804F049FB0028E8DB206883687C
:1004C0001B68002BE3D00022154998470028DED195
:1004D000206883686D225D6812494FF0FF33A8479A
:1004E0000028D4D1206883680A22DC680E4964237E
:1004F000A0470028CBD100214FF4004005F02DFF8C
:10050000F9E700BF000000207C6B0000706600006F
:10051000946B0000986900009069000088690000F1
:100520002504000060010020C40D0020014B1B6861
:10053000184700BF04000020014B1860704700BF3F
:100540000400002030B585B004460D46102200217D
:10055000684605F0BDFF02238DF80230044B2A46A1
:1005600021466846019304F095F805B030BD00BF00
:100570002D05000080B505460E461746984603F047
:10058000B7FB034606F01EF80446DFF81890424613
:1005900049F8003039463046A84754F8090000F0C1
:1005A00013FD00BF080000002DE9F047058B04464D
:1005B0002807904611D4022905F0070540F0CC80A9
:1005C000204604F0D4FB78B10138218B042811D8DF
:1005D000DFE800F0C2106D85950001290CBF45F0E1
:1005E000100545F02005258388F31188BFF36F8F30
:1005F000BDE8F08701F0070AAA4500F0A5800027B2
:10060000B9463E46A368002B00F0BC8041F00801CB
:10061000218388F31188BFF36F8FA168002900F050
:10062000BA800D68002900F0B68033465246204655
:10063000D1F80480C047002D76D02B6829461D468E
:10064000F0E701F007035A1F012A1BD8002221F00E
:100650000701062B276889B2C4E9002209D13B466D
:1006600003E0628B013262831B68002BF9D141F0F9
:1006700002012046218304F07AFB00287AD041F061
:10068000200176E0042B0AD121F0070189B220462F
:10069000218304F06CFB10B141F020012183218BF8
:1006A00001F0070AAA454FD00027B946AAE72369F7
:1006B00021F0070141F00601062DD3F800902183B7
:1006C0002DD1B9F1000F3FD041F00801218388F30B
:1006D0001188BFF36F8F20463949C84729E021F0C0
:1006E0000701236941F0040189B2042DD3F8049075
:1006F0002183E6D000274FF0040A3E4682E721F02E
:100700000701236941F0050189B2052DD3F808904E
:100710002183D6D000274FF0050A3E4672E7002716
:100720004FF0060A3E466DE72B4687E7B9F1000F0A
:10073000D1D1EFF31188202383F31288BFF36F8F99
:10074000238B23F008032383258BEA062ED525F07F
:100750001003238305F007056669218B002EBFF681
:1007600070AF00232768C4E9003321F0070141F08E
:1007700001012183218B4FF0000901F0070AAA45EE
:100780007FF440AF002F9CD041F00801218388F313
:100790001188BFF36F8F002FC8D03D6839463346AC
:1007A0005246204604F00FFB2F46F4E7AB067FF5D8
:1007B0001BAF25F02003238305F0070500E700BFEA
:1007C000F34D0000014B036000207047A06900005A
:1007D00008B5044804F0BEFABDE80840024804F039
:1007E000B9BA00BFAF6B0000E46B0000014803F032
:1007F0000FBE00BFA069000038B5044618B90F4B02
:100800000F485B6898476168B1F5683F10D0B1F553
:10081000680F0DD00B4DA9420AD011F46861206811
:1008200007D00146084805F0AFFC0023236065604F
:1008300038BD142205F04CFEF9E700BF000100208E
:10084000126C00002C5F5CA9380A002008B560B368
:100850004368B3F5683F0ED0B3F5680F18D0144A5B
:10086000934220D000684FF0FF324FF0FF3302F088
:100870001FFE58B115E001220368D3E8EF1F0029DD
:1008800003D1C3E8E02F0028F7D10AD1002008BD2A
:100890000368084A1B7803F5807352F82330002B55
:1008A000F4D00548F3E70548F1E76FF4E040EEE7E0
:1008B0002C5F5CA900000350E98FFFFFEA8FFFFF68
:1008C00008B520B34368B3F5683F09D0B3F5680FA6
:1008D00013D0114A93421DD0006802F061FE14E06B
:1008E00000220368D3E8EF1F012903D1C3E8E02FFA
:1008F0000028F7D109D0094808BD00210368084A3B
:100900001B7803F5807342F823100020F4E76FF49E
:10091000E040F1E70348EFE72C5F5CA9E98FFFFFB8
:1009200000000350EA8FFFFF10B5044618B91D4BB5
:100930001D485B6898476368B3F5683F2FD0B3F5EF
:10094000680F2CD0194A934219D1236803BB4FF08A
:10095000FF324FF0FF332146154802F07BFD08B906
:1009600023681BB90F4B13485B689847142200217A
:10097000206805F0ADFD4FF46863636008E0B3F5EF
:10098000683F0DD83A2B03D040F6BA629342DED1CD
:10099000206805F044FC636843F03A03636010BDCF
:1009A000054AF3E700010020126C00002C5F5CA9EF
:1009B000380A0020386C00003A00003A08B50649B1
:1009C00040231422054805F0D1FBBDE80840044946
:1009D000044803F08FBD00BF38050020380A00200E
:1009E000A8690000BC69000008B50348034A00215B
:1009F000121A04F095FA08BD28020020E40D002028
:100A0000074808B5074A0849121A04F08BFABDE8EE
:100A100008400648064A0749121A04F083BA00BF84
:100A200000000020280200202471000000000020A7
:100A3000000000202471000038B505460C4699B12D
:100A4000D1E901230F48096804F084F9D4E90423AB
:100A5000E1680D4804F07EF9E1690C4804F07AF988
:100A6000A1690B4804F076F9012D05D1EFF305815A
:100A70000848103904F06EF921462846BDE8384090
:100A800002F0A4BB656C0000956C0000C56C000012
:100A9000D56C0000046D000030BFFFF7FDBF00BF44
:100AA0002DE9F04105460B4EDFF82C80324606EB6F
:100AB0000807CC1B2046094905F0E3FCA019424673
:100AC0000021083C05F004FDC5F8A44007F108002A
:100AD000BDE8F08100000000040000008069000013
:100AE000054B5A699B689A421FBF044A536843F0FA
:100AF00080535360704700BFBC0B002000ED00E046
:100B000010B5204C204804F025F9A36A990137D587
:100B10001E4804F01FF91E20A36ADA0103D51C4801
:100B200004F018F91F20174CA36ADB0203D51948FB
:100B300004F010F90220A36A1C0303D5164804F040
:100B400009F921200F4CA36A590303D5134804F077
:100B500001F92220A36A9A0303D5114804F0FAF898
:100B60002320084CA36ADB0303D50E4804F0F2F8F7
:100B70002420A36A6FEA03436FEA1343A36210BD04
:100B80001D20C9E700ED00E0186D0000316D000088
:100B9000456D0000606D00008B6D0000AA6D0000C7
:100BA000D06D0000EB6D000070B5244C0646244863
:100BB0000D4604F0CFF8A36AD90435D5214804F0D6
:100BC000C9F81720A36A1A0503D51F4804F0C2F814
:100BD00018201A4CA36A9B050FD51C4804F0BAF8DC
:100BE000A16BA36A180407D5194804F0B3F81EB125
:100BF000A36A23F40043A3621920104CA36A590589
:100C000003D5144804F0A6F81A20A36ADA050DD516
:100C1000114804F09FF81B20084A936A43F47F436D
:100C2000936200232B7070BD1620CBE7A36A9B0450
:100C3000F2D50A4804F08EF81C20EDE700ED00E044
:100C4000176E00002E6E0000406E0000546E000013
:100C50006E6E0000846E0000A06E0000B96E000091
:100C600070B5264C064626480D4604F073F8A36A74
:100C7000D80640D5234804F06DF81120A36A19075F
:100C800003D5214804F066F812201C4CA36A9A0789
:100C90000FD51E4804F05EF8616BA36A1B0607D5EA
:100CA0001B4804F057F81EB1A36A23F08003A36227
:100CB0001320124CA36ADE0703D5164804F04AF845
:100CC0001420A36A9C0603D5134804F043F81520AA
:100CD0000A4B9A6AD10658BF9A6A9A6A920642BF2C
:100CE0005A6A22F400525A629A6A42F0FF029A62E9
:100CF00000232B7070BD1020C0E700BF00ED00E0A6
:100D0000E96E0000006F0000406E0000346F0000CC
:100D10004D6F0000646F0000B96E00002DE9F041D6
:100D20005B4B04465F6800258AB0C7F3080685F36D
:100D30001188BFF36F8F02F07F43B3F17F4F06D16D
:100D400002F00C03082B13D1524804F003F80025DD
:100D50002C464FF00008F31E8DF80780092B00F297
:100D60008580DFE803F00A797D758383838383813F
:100D700010074CBF0C460125EBE74748444E03F0F3
:100D8000E9FF8DF80780F36A9A0704D5434803F01A
:100D9000E1FF00232FE0F36A002B01DA4048F6E779
:100DA000F36A5B00F5D53F4803F0D4FF7369A2698D
:100DB00043F480737361BFF34F8FBFF36F8F736919
:100DC00032F8022C23F480737361BFF34F8FBFF3AB
:100DD0006F8F4DF602739A4208D0B36ADBB24BB301
:100DE00001200DF10701FFF73BFF33E021682E489A
:100DF00003F0B0FF23689DF80720C2B902AE04F1EA
:100E00002007324620686168083403C2BC42164697
:100E1000F7D1099AB5B3C2F3080121B96FEA52229A
:100E20006FEA42220992184602A9FFF705FE0AB0AE
:100E3000BDE8F081B36A13F47F4F05D001200DF1B6
:100E40000701FFF7B1FE05E0B36AB3F5803FA0D319
:100E5000FFF756FE0346CEE700200DF10701C2E77B
:100E600000200DF10701ECE7104890E7104B17F454
:100E7000F87F1049104818BF1946A6F1100203F078
:100E800069FF86E722F4FF7222F00102CAE700BF81
:100E900000ED00E0B26F0000DE6F0000F66F0000B2
:100EA0001870000027700000477000006470000098
:100EB000996F0000846F000089700000064B5A692A
:100EC00042F010025A615A6942F480625A615A69CA
:100ED00022F008025A61704700ED00E0EFF308804D
:100EE000EFF3098101B57246FFF718FF01BD00BF9E
:100EF000002080F31488BFF36F8F002080F30A88EE
:100F000080F30B88104880F3088800200F49087090
:100F100001F0F6FC00200E490860BFF34F8F00F08F
:100F20002DF8202080F311880A484FF40061401802
:100F300080F30988EFF314800221084380F31488BA
:100F4000BFF36F8F00F0DCF8281B0020E00D0020BD
:100F500094ED00E0E80D0020002318460649D1F882
:100F60009020C2F30722934200DB7047C1F898300B
:100F7000C1F8A0000133F6E700ED00E010B572B64D
:100F8000002484F31388FFF7E7FF23464FF0FF3078
:100F90000C4A03F120010133102B42F82100F8D153
:100FA00000234FF0FF30074A03F160010133102B9B
:100FB00042F82100F8D162B6BFF34F8FBFF36F8FB5
:100FC00010BD00BF00E100E0084B9B6883420BD1DD
:100FD000EFF3058343B1064B5A6842F080525A60E2
:100FE0005A6A22F400425A6202F088BEBC0B00200A
:100FF00000ED00E016498A684FF030001044EFF32E
:10100000098C80E8F01F202080F31288BFF36F8FD7
:10101000104F4FF000664A698A603E60D2F8A40023
:101020000D4C2060D2F8A8000023C2F8A83080F34D
:10103000118802F1300090E8F01F8CF3098802F16A
:10104000000004B503F07FFFBDE8044070470000D6
:10105000BC0B002004ED00E0540A00201EF0040F39
:101060000CBFEFF30880EFF30980816911F8021CCF
:101070000229FFD001B5724603F056FF01BD00BF43
:1010800040B2002807DB01234109034A00F01F009A
:10109000834042F82130704700E100E0054B4209EF
:1010A00053F82220012300F01F0003FA00F0104043
:1010B000704700BF00E100E040B2002801F10101EB
:1010C000ACBF00F16040064B4FEA4111C9B2ABBF63
:1010D00000F5614000F00F0080F8001319547047CC
:1010E00014ED00E0044B054A23F07F039360BFF347
:1010F0004F8FBFF36F8F70470000000000ED00E0DE
:1011000008B5FFF7EFFF074AD2F8883023F47003E1
:10111000C2F88830FFF768FCFFF772FC00F048F86F
:1011200002F01EF900ED00E042F8203C009B0B4964
:1011300042F81C3C019B21F0010142F8183C029B43
:1011400042F8081C42F8143C4FF0807342F8043C0B
:101150000023203A0265C0F8A830704775050000EA
:1011600000B50E4B15469860D0F8A4200C4B0E46E7
:101170001A60D0F8943083F30B882C4686F30988E4
:101180000020044B98472046002100220023024CF7
:1011900020470000574F000075050000BC0B0020E1
:1011A000540A00201022014B1A61704700ED00E044
:1011B000002320210348C2180133452B82F8001375
:1011C000F9D1704700E100E008B5EFF30583064A66
:1011D000103B02EBC30152F8330049688847BDE871
:1011E0000840FFF77DBC00BFB06600001FB5094C8A
:1011F000094A23460121094800F0FAF80023039325
:10120000074B0121E41A01A80193029400F0FAF8B7
:1012100004B010BD0000072000000020CC690000D1
:101220002802002010B50C7A0B6804F01F0223F08E
:101230001F031A43CB68640923F01F03054943EADF
:10124000440343F00103C1F89800C1F89C20C1F8A1
:10125000A03010BD00ED00E010B5074BD3F8903082
:10126000C3F30723013B984202D8FFF7DBFF10BD11
:101270006FF01500FBE700BF00ED00E02DE9F04F37
:101280000F46144606464FF000084D4D85B0B84550
:1012900080F29280D6F80490B9F1000F36D0B9F1FF
:1012A0001F0F40F2878019F01F0F40F08380D6F89F
:1012B00000A01AF01F0F7DD1504603F088FE834630
:1012C00009EB0A00013803F082FE834572D11BF15D
:1012D000160F6FD05C456DDDC5F898B0D5F89C1041
:1012E000C5F898B0D5F8A03021F01F0143F01F0ACF
:1012F000D6E900321A44994202F1FF391ED1CA459B
:1013000008D131465FFA8BF003F06AFE08F101085C
:101310000C36BCE73146C5F898B0D5F89C3022F0C1
:101320001F0203F01F031343C5F89C30E0B203F023
:1013300057FE10F1160F3DD0441CE7E7C5F898B0F2
:10134000D5F8A020013B23F01F0302F01F02134336
:10135000CA453146E0B2C5F8A030E8D003F040FEFF
:1013600010F1160F26D0C5F898B0D5F89C209DF83E
:1013700008300AF1FF3A62F304038DF80830D5F81B
:10138000A0309DF808205B0863F347128DF8082011
:10139000D6E900321344009323F01F035344A3EB18
:1013A0000903013023F01F036946C0B20393FFF71E
:1013B00053FFBEE76FF01504204605B0BDE8F08F7F
:1013C00000ED00E00522044BC3F89420BFF34F8FDB
:1013D000BFF36F8F704700BF00ED00E0BFF35F8F7A
:1013E0000022024BC3F89420704700BF00ED00E0DC
:1013F00010B5034C2278FFF741FF207010BD00BFED
:10140000CE0D00202DE9F74F294D8A4606464FF0B4
:101410000008AB46274FD0451BDAD6F80490B9F147
:10142000000F3FD031680846019103F0D0FD0199CB
:10143000044609EB0100013803F0C9FD84424FF076
:1014400014021D4B08D002FB08F36FF015024BF895
:10145000032003B0BDE8F08F14F1160F2C60F8D014
:101460001978A142F5DD02FB08B0C7F89840C7F82B
:101470009840D7F89C4000F10801007B64F3040019
:101480000871D7F8A0000C79400860F347140C717C
:10149000D7F89C1021F01F016960D7F8A01021F047
:1014A0001F01296108F1010814350C36B3E700BFAC
:1014B000580A002000ED00E0CE0D0020F0B54149B3
:1014C000414CD1F890302568C3F307239D4287B083
:1014D00075D80020FFF782FF3C4BC1F8C030854231
:1014E00016D13B4C01A82570FFF76CF90025064684
:1014F000384FAE4213D1002023783249D1F89020E2
:10150000C2F30722934254DBFFF75CFF00202FE079
:10151000616801EB0011FFF785FE0130DFE70199FB
:10152000280101EB0513DA683A40B2F5001F21D01B
:10153000B2F5800F2BD0B2F5801F38D15A689B6866
:101540000958013B22F01F0003440120844623F088
:101550001F0340EA4C10CDE902218DF8100002A9CA
:1015600020780593FFF778FE00281DDA6FF015004C
:1015700007B0F0BD5A689B680958013B22F01F0074
:1015800003444FF0020C012023F01F03E1E75A68E7
:101590009B680958013B22F01F0003444FF0000CE8
:1015A000062023F01F03D4E723780133237001358D
:1015B0009FE7C1F89830C1F8A00001339EE74FF0D3
:1015C000FF30D5E700ED00E0D8690000AAFF440035
:1015D000CE0D00200000F0FF08B5024B1B689847B5
:1015E000002008BD6C0A0020034B044A1860937861
:1015F00043F00203937070476C0A0020280000201B
:1016000008B50649064821F00701C1F1005202F56C
:10161000E02203F045FB002008BD00BF2F1B002087
:10162000700A0020054B03EB8000D0F8003223F055
:10163000E04343F04053C0F8003270470025845027
:10164000052370B5144D154E2C780134B4FBF3F31B
:1016500003EB8303E41A04F09AF9114A137823B1D7
:1016600056F82430C01A072814D94FF05023D3F865
:10167000141141B10021C3F81411D3F814312C70A6
:101680000CB9012313702C7804F081F946F824007A
:10169000012070BD0020FCE7D00D00207C0A002056
:1016A000CF0D0020012208B50B4B0C49C3F80025D3
:1016B00002230020C1F8D036FFF7B4FF1046FFF731
:1016C000B1FFC1F80427C1F80429C1F8002BBDE817
:1016D000084000F099B800BF0010005000400050D2
:1016E00007B54FF480620B4B0B49C3F8B8254FF494
:1016F00000620A48C3F83C250DF1070204F08EF998
:10170000002803DB9DF8070001F0F0F903B05DF855
:1017100004FB00BF00A002502CA0025028A10250E0
:1017200048B1054B054A1B68B3FBF2F35843044B21
:1017300043F0010318477047E800002040420F00C3
:1017400080690000002170B5104C114D114E00074A
:1017500014F8013B03F01F025B090FD0012B0FD1DE
:10176000334603EB8203D3F80022013122F0E0423A
:1017700002430429C3F80022EAD170BD2B46F0E7EA
:101780000023803253F82230FFDE00BFB07000002B
:1017900000258450002884502DE9F04106460120A0
:1017A0000D46FFF7CFFF4FF47F03D3F83021D3F876
:1017B0003431072A20D1023B032B02D8114AD35CD3
:1017C000D3B14FF050244FF0010800270520C4F892
:1017D0001886C4F8147604F0ECF84046C4F8148671
:1017E00004F0E7F8C4F81476C4F8187630462B46AF
:1017F000BDE8F041002118474FF050230022C3F804
:101800001426F3E7AC7000000149024803F0FEBA69
:10181000006A0000900A002008B54FF0FF323F2315
:101820000348C0E9002301F04DF9002008BD00BFC6
:10183000AC0A0020084B70B5C31A0D4607499B102F
:10184000044659434022064803F002FC2B46014659
:101850002046BDE870401847C80A0020B76DDBB6C7
:1018600030660000402373B50B4C0093041B0B46FD
:101870000D460A49A41061430646094A094803F087
:1018800013FC011E05DA30462B4602B0BDE870405D
:10189000184702B070BD00BFC80A0020B76DDBB6A4
:1018A00013510000306600002DE9F04700220121AD
:1018B00007460520FFF700FC124801F037F90446FF
:1018C000D0B901F067F925464FF01C0A4FF00C081B
:1018D000DFF834903E6949460AFB056003F096FA4A
:1018E000031E0CDB012308FB05661D44042DB367B2
:1018F000F0D12046BDE8F0876FF00404F9E71C46FC
:10190000F7E700BF391A00000C6A00001FB500227B
:101910000123CDE902236B46084ACDF800D0CDF86B
:1019200004D003F0EFFB002805DB4FF480420023D6
:10193000684601F0B9FE05B05DF804FB3D510000BA
:1019400010B5EFF31184202383F31288BFF36F8F58
:10195000074A136823F00201DB07116002D401205B
:1019600004F07FF884F31188BFF36F8F10BD00BFC0
:10197000680B00200C22104B014602FB00330020B4
:1019800030B4D3E91C521867EFF31180202484F39C
:101990001288BFF36F8F9C6F04F0C00444F0020400
:1019A0009C6780F31188BFF36F8F1DB12B4630BC4D
:1019B0000248184730BC7047C80A00203066000053
:1019C00010B4EFF31182202383F31288BFF36F8FDB
:1019D0001748016841F002040460C80707D482F385
:1019E0001188BFF36F8F012010BC04F02BB84FF0AB
:1019F0005021D1F80C04D1F80C14C907EFD5EFF33E
:101A0000118083F31288BFF36F8F0A498B6F03F045
:101A1000C00343F002038B6780F31188BFF36F8F1D
:101A200082F31188BFF36F8F002010BCFFF7A2BFB5
:101A3000680B0020C80A0020092813D8DFE800F04E
:101A400005101212121212120E0C074B986F10F0A2
:101A5000070007D1FFF78EBF0220FBE70320F9E75D
:101A60000120F7E7704700BFC80A00202DE9F041C8
:101A7000012207463649D1E8EF3FC1E8E02F0028B0
:101A8000F9D133B9334934484B60CB608A6003F0F5
:101A9000D0F97B1E012B2BD8012F07D14FF05023FB
:101AA000D3F81C3403F00303022B21D004F0BEFB57
:101AB0000546F8B9294B1B78E3B14FF050230222B9
:101AC0000646C3F808234FF05024DFF89480D4F87A
:101AD0001824D4F81834D20315D503F00303022BCD
:101AE00001D0012F0FD16DB386F31188BFF36F8F33
:101AF000BDE8F081EFF31186202383F31288BFF352
:101B00006F8F0125DFE7C5B1304603F044FAD4F802
:101B10001835DBB2012BDAD1D4F80421002AD6D053
:101B20000022C4F80421D4F804210222C4F81825A4
:101B30002022C8F88021A360C9E70021212004F0F9
:101B40000CFCE4E74FF050230222C3F80423CFE754
:101B5000C40A0020B40A0020E40A0020E00D00209E
:101B600000E100E008B5074804F0D0FA38B10648B3
:101B7000FFF73AFD0448FEF7DFFC002008BD6FF0D8
:101B80001200FBE7906600008D1B00000A2838B5A4
:101B90000446074D04D1AB680D212846DB69984700
:101BA000AB680348DB69E1B29847204638BD00BF07
:101BB00090660000F0B545681646A8682A7C01F0DA
:101BC0001F0487B044EA4214002868D0B6F5001F0D
:101BD00004D1214604F07CFA002051E00020B6F543
:101BE000800F01AA0190506037D1B3F1007F14BF7C
:101BF000052304238DF804300023CDE90423039347
:101C0000EB680DF1030723FA01F111F0010139D15D
:101C1000B6F1A07F36D104F01F03620903F18003FF
:101C200026D0012A3ED1214A52F82330DB0729D49D
:101C30003A462146A86804F0DEF916301AD0029719
:101C40002146A86803AA04F0A2F8002818DB0122A4
:101C50002146A86804F0EAF9BEE7B3F1C06F05D0E9
:101C6000B3F1007F14BF01230223C3E70323C1E7BD
:101C70000F4AD9E73946A86801F0B2F90028DEDA40
:101C800007B0F0BD3A462146A86804F0B4F9002830
:101C9000D6D19DF80310A86801F098F9D0E76FF04D
:101CA0008500EDE751F82330FFDE00BF00288450A7
:101CB000002584504209034670B502D0012A17D08E
:101CC00070BD0D4E326951680029F9D0012503F02D
:101CD0001F030C689D400029F2D08A682A4002D078
:101CE00030464B6898472CB1236821461C46F2E7E2
:101CF000024EE7E72346F8E77066000050660000F2
:101D000038B54568A86890B104F088F9014670B903
:101D1000A86801F029F9044658B902460649A8689E
:101D200004F066F9224605210D20FFF7C5F90020D1
:101D300038BD6FF00400FBE7B51C00002DE9F0434F
:101D400040F206364768D00648BF4FF0030C3B7C94
:101D500002EA060658BFC2F3401C87B001F01F0517
:101D6000B6F5837F144645EA43158DF803C044D089
:101D70000DD8062E16D005D8A6B1022E3FD06FF092
:101D8000150037E0B6F5807FF9D101260AE040F270
:101D90000222964235D0B6F5407F34D0B6F5007FAA
:101DA000EDD102260123220303FA01F12DD57B6830
:101DB0009960B86880BB05F01F036D092AD0012D1A
:101DC00073D13C4A02EB830284F48033D2F80012D0
:101DD000C3F30043C4F3404444EA430421F4706174
:101DE00044EA8C0421F00F0144EA06230B43C2F8B5
:101DF0000032002007B0BDE8F0830726D2E70426B2
:101E0000D0E70526CEE70326CCE7630344BF7B6813
:101E1000D960CEE7284AD5E729460DF1020204F041
:101E2000EAF814F4403F80460CD12946B86804F023
:101E3000FBF8B8F1000FDCD19DF80210B86801F092
:101E4000C5F8D6E74FF0000901ABCDE90199CDE91E
:101E50000439CDF80C902946B86803AA03F097FF1F
:101E60004845C6DB14F4003314D09DF8033084F4E5
:101E70008034C4F300448DF80E308DF80C608DF87A
:101E80000D404B462946B86803AA04F038F80028EC
:101E9000CFDAAEE7CDE904330DF10303039329460E
:101EA000B86803AA03F073FFF1E7803350F82330DA
:101EB000FFDE00BF0028845000258450036803F033
:101EC0001F025B09026004D0012B034818BF0020E9
:101ED00070470248704700BF002884500025845096
:101EE0002DE9F04F1546824640F2FF19DFF8B0B1F8
:101EF00085B000EB8108D04503D1002005B0BDE8D6
:101F0000F08FDAF80030C3F3C3210829C3F30804C3
:101F100000F2C080634A4C45515C4FEA136311D014
:101F2000222B1DD94E2B40F0B880C5F81445012650
:101F300003A80394FFF7C2FF039B06FA03F3836031
:101F4000374654E0222B09D94E2B40F0A6804FF0A3
:101F5000FF33C5F814350AF1040ACCE74FF0FF341B
:101F6000222B00F29A80DFE803F012171E36212799
:101F700036989898983963989898989898989898D7
:101F80006B76797C9898987F86898C8F9200C5F8BB
:101F90000C45631CCBD1DEE7C5F81445631CDAD0D1
:101FA0000026002723E0C5F80845F2E7601CC5F8C5
:101FB0000845D0D0002604E0621CC5F80C45CAD004
:101FC0000126012703A80394FFF778FF039B07FA74
:101FD00003F3C3600BE0C5F81045DFE7C5F808451B
:101FE0000029DBD1671CB6D0002606213746DAF877
:101FF0000030039403F40040002803A81CBF01260E
:1020000000270193FFF75AFF039C019B00EB84001C
:10201000D0F80042C3F3412C0B0243EA8C033B434C
:1020200004EA0B04234343EA4603C0F8003292E774
:10203000C5F80C450029D5D0661C8CD000267FE75A
:10204000C5F86045601CDAF8003084D0C3F3004363
:10205000002BB5D06BE7C5F86445F3E7C5F86845D4
:10206000F0E7C5F86C45EDE7C5F82445621C3FF480
:1020700072AF012695E7C5F828458AE7C5F83045CF
:10208000F4E7C5F83445F1E7C5F83845EEE7C5F89B
:102090003C457EE76FF0150030E76FF085002DE7D7
:1020A000F0F0FCFFD7700000F8B5054600220121D2
:1020B0000820FFF701F80820FEF7E2FF6C68012115
:1020C000E06803F093F96B6819682369C1F8243557
:1020D000A27D637D207D1343228B02431343C1F80D
:1020E0006C352C692068A0B16B6800223349083038
:1020F0001E6804F09EF92368DD63206800223049E1
:10210000683004F096F92368C3F89C502D4BC6F84C
:1021100004336E68D6E9004313F0010333D02F690E
:1021200004F10C0107F11C0204F5907003F076FC39
:10213000002827DB387F00F0D9FC0823C4F80035DD
:10214000736AC4F844350023C4F848350123A360FA
:10215000D4F85831002BFBD00023C4F800356B684D
:10216000596811F004040CD1D868214603F03EF9F7
:102170006B682146D8681D6803F038F90823C5F854
:1021800000350020F8BD0822C4F80025726AC4F8A2
:102190004425C4F848350123A360D4F82031002B2E
:1021A000FBD00023C4F82031D4F820310123E360B0
:1021B0004FF48073C4F80433CAE700BF235500000E
:1021C0007159000014020A002DE9F84304468846BC
:1021D000456804F02BF86368A8B92E4A127892B1CA
:1021E0004FF020091F686426606803F0EFF80028AC
:1021F0003ED1012003F0DDFB013EF5D1002121207D
:1022000004F0ABF8EFE74FF0200921691F68EFF306
:10221000118689F31288BFF36F8F606803F0D6F8D8
:1022200008B30B6853B1D3F8A4203AB1D3F8B42063
:10223000002A03DAD7F84C25C3F8B4206B680122D2
:102240005B0744BF4FF48003C7F804336B6A204632
:1022500083F80080696A03F02AF986F31188BFF3D6
:102260006F8FBDE8F88386F31188BFF36F8FCEE7D9
:10227000EFF311810E4689F31288BFF36F8F606808
:1022800003F0A4F80028D9D181F31188BFF36F8F30
:10229000B4E700BFE00D00202DE9F04F9946D0F8DB
:1022A00004A0036985B01D6802939AF808300646B9
:1022B00088461746DAF80040002B40F0A38095F8D6
:1022C0006130002B40F0A18095F8623003F0FF01EF
:1022D000002B40F09A80B9F1FF3F61D0B9F1040FB3
:1022E0005EDD4FF0050C4FF4004099FBFCFCDFF87D
:1022F00020E10023CCFB00E1464A7046FDF72AFFAF
:102300004FF0000BC5E91087C5E915B0C5E912BB50
:10231000E965C5F850B0DAF80420520751D5EFF35B
:1023200011822021039281F31288BFF36F8F022163
:10233000304603F0ABF8039A82F31188BFF36F8F36
:10234000DAF8042053073CD595F86060CEB3BE425E
:1023500028BF3E4640463246DAF8201004F091F895
:10236000BF1B2AD195F86020921BD2B285F860205D
:10237000DAF82000811904F091F8029B03F1180BA0
:10238000DBE8EF3F43F00403CBE8E23F002AF7D15C
:1023900044F30734002C06DA002005B0BDE8F08FC6
:1023A00000200146ACE7012263091B4904F01F0429
:1023B000A240403341F82320EEE7B9F1FF3F12D1AC
:1023C000B0440023C4F83485C4F83875C4F810311B
:1023D000D4F81021C4F84C31D4F84C31012385F8DD
:1023E00061302360D8E7C4F808B1D4F80831D5E9E2
:1023F000162300200021CDE9000105F1080001F0BD
:102400007FFFDDE76FF08500C7E76FF00F00C4E7DF
:102410003F420F0040420F0000E100E0F7B50646E2
:102420001C460569EFF31187202383F31288BFF35D
:102430006F8F2B68D3F8A4C0BCF1000F07D087F3CF
:102440001188BFF36F8F6FF00F0003B0F0BDC3F8BA
:10245000A4202B68C3F8A01001F06043B3F1005F23
:102460002B6814D1C3F8A8102B68C3F8AC202946F8
:10247000304603F035F887F31188BFF36F8F736828
:102480001B7D012B01D1631C06D10020DDE7C3F8C1
:10249000B0C002F07CFFEAE74FF4004600210A4892
:1024A00024EAE4740023C4FB0601084AFDF752FE47
:1024B0002D6802460B46683500200021CDE9000159
:1024C000284601F01DFFE0E73F420F0040420F00A9
:1024D0000123834070B5DC430B4AD2E8EF1F01EAC9
:1024E0000405C2E8E65F002EF7D14FF48032824047
:1024F0000648C0F80823BFF35F8FBFF36F8F0B420E
:1025000014BF0120002070BD880B00200050015036
:1025100070B40E4922F07F46D1E90034D01AC318B6
:1025200044F10004C1E90034A6F50013B3F5400FEF
:1025300009D2074B1B681A0A1B069C19054B42F16E
:102540000005C3E9004570BC01F0DCBDF8020020C5
:102550008C0B002000030020D9B101230D4A8340D9
:10256000D2E8EFCF4CEA030CC2E8E1CF0029F7D163
:102570004FF48033084A8340C2F80433074BD3E852
:10258000AF3FC340DB0742BF4FF40012044BC3F818
:1025900000217047880B002000500150840B002060
:1025A00000E100E00D4B1868010A0006BFF35F8FE1
:1025B0000B4BD3F80435181841F10001B3F5801F17
:1025C0000AD2084BD3E90023904271EB030303D2F4
:1025D00010F1807041F10001704700BF8C0B0020AA
:1025E00000500150000300202DE9F04F85B0164641
:1025F0001F4604469DF840A0FFF76AFF0190FFF7D1
:10260000D1FFB04271EB070352D23B4B301A67EB5C
:102610000101984271F100014DD2384B03EB0413D4
:10262000D3E902239F4208BF964258D04FF4803826
:10263000334908FA04F8204626F07F4BC1F8488356
:1026400003F099F94FF00309584604F15005AD0025
:10265000ADB205F1502504F5A87305F58035029358
:10266000029A20F07F4341F82230C1F84483D1F828
:102670000435244AC01A033820F07F4090422ED9F6
:10268000286868B1D1F80435A3EB0B0020F07F4037
:10269000B0F5000F039322D9204603F06CF9039B99
:1026A000BAF1000F07D109EB030009F10109D7E7DF
:1026B000BAF1000F09D06FF0150520460199FFF718
:1026C0004BFF284605B0BDE8F08F01230E4AA3401A
:1026D000D2E8EF0F1843C2E8E10F0029F8D107490B
:1026E0000E982301C8500F9B01EB04120025C2E98C
:1026F00002675360E1E700BF01008000E8020020AC
:1027000000500150FDFF7F00840B00207FB50025A5
:102710004FF0FF304FF0FF31194C1A4B0226C4F82E
:102720000833C4F84833184BC4F80855C3E902010C
:102730004FF480334FF40012C4F80433134B0121DB
:10274000C4F804631520C3F880212A46FEF7B4FCC0
:102750001520FEF795FC01230D4AA360236013604A
:102760000C4B0D4A009328460023CDE90155FFF795
:102770003BFF3046FFF77AF9284604B070BD00BF32
:102780000050015003000F00E802002000E100E0CB
:10279000880B002011250000FFFF7F002DE9F74383
:1027A0002E4BD3F8042390070BD5D3F8042142B164
:1027B0000022C3F804212A4AD3F8043113680133F4
:1027C0001360264AD2F80433D90326D5254BD3E823
:1027D000EF1F21F00100C3E8E40F002CF7D1CB0775
:1027E00002D4D2F84031C3B100251C4CC4F840518A
:1027F000D4F84031FFF7D6FEEFF31182202383F3A4
:102800001288BFF36F8F184BD3E90267B042B9410A
:1028100006D282F31188BFF36F8F03B0BDE8F08357
:102820004FF0FF38D3E900104FF0FF391D60C3E9C6
:1028300002894FF48033C4F84833C4F84051D4F8C7
:10284000403182F31188BFF36F8F0029E5D00090EB
:1028500032463B4628468847DFE700BF005001501C
:102860008C0B0020840B0020E802002030B5431CB4
:10287000124C85B005D08442A8BF0446012CB8BFD5
:102880000124FFF78FFE0E4B0C4DD3E90013401AC5
:10289000B0F5000F0FD22218AA4228BF2A46002006
:1028A00052180849CDE90100009143F10003FFF7F8
:1028B0009BFE05B030BD2A46F1E700BFFFFF7F0059
:1028C000F80200201125000008B5FFF76BFE024B4F
:1028D0001B68C01A08BD00BFF80200204FF47F0338
:1028E000D3F83021D3F83431072A05D1023B032B2A
:1028F00002D8024AD05C704700207047F270000096
:1029000008B5FFF7EBFF58B1644BD3F8202A3AB96A
:102910000D21C3F8201A0121C3F81C19C3F81C2982
:102920000022D30003F57F03D3F80013013107D051
:10293000D3F800130132D3F80433202A0B60F0D10E
:10294000FFF7CCFF002840F0A080FFF7C7FF40B1A1
:10295000534B544AC3F830254FF050230122C3F89B
:1029600058254FF47F03D3F83021D3F83431072AA8
:1029700009D1023B032B06D84B4AD35C1BB1002282
:102980004A4BC3F84C25FFF7A9FF50B14FF0502335
:10299000D3F80024D10742BF0022C3F81421C3F8A2
:1029A00018214FF47F03D3F83021D3F83431072AAC
:1029B00009D14FF05023D3F80024D20744BF6FF061
:1029C0000102C3F80024FFF789FF18B16522334BD9
:1029D000C3F80C274FF47F03D3F83021D3F83431F8
:1029E000072A16D1314BD3F82034002B11DA4FF0DF
:1029F00050230322C3F8182501229A60D3F804213A
:102A0000002AFBD00022C3F804210122DA60C3F8B7
:102A100018254FF47F03D3F83021D3F83431072A37
:102A200023D1023B032B02D8214AD35CEBB17E2297
:102A30001A4B1B49C3F80C27C3F83C297F231D4AB6
:102A4000C2F818310023C1F8043EC1F8083E01F570
:102A50004821C1F81031C2F82431C2F82C3102F5F6
:102A6000FF1202F58052C2F8A032134AD2F88C301D
:102A700043F44063C2F88C30104A114B1168C3F81C
:102A80004415D269C3F84C2508BD2922034BC3F86D
:102A90000C270322C3F83C2757E700BF0040005033
:102AA000009003504400EFBEEE7000000020035081
:102AB000EA7000000020005000ED00E00080FF0000
:102AC00000600050014B1860704700BF900B002061
:102AD00010B5054B1446186802F06DFF0028A4BF1E
:102AE0002070002010BD00BF900B00200123024A7F
:102AF0008340C2F80435704700700150014B00203C
:102B00001B681847940B0020014B1B68184700BF37
:102B1000940B0020014B09201B681847940B0020E0
:102B2000014B08201B681847940B002010B5144C6B
:102B3000237913BB01232371124B0028206018BF97
:102B4000184600F037F8D0B923680F48002B08BFAB
:102B5000184600F0B9F890B923680C48002B08BF5C
:102B6000184600F0F9F850B923680948002B08BF4F
:102B70001846BDE8104000F063B86FF0770010BD54
:102B8000940B0020FD2A0000152B0000092B0000EB
:102B9000212B000008B5064B1B6843B10520FEF74A
:102BA0007DFA20B9BDE808400520FEF769BA08BDE6
:102BB000940B0020074B0246187938B91A6001229D
:102BC0001A714FF05023C3F8142570476FF0770047
:102BD000704700BF9C0B00204FF050230022C3F829
:102BE0000021D3F80021012208491A60096811B1B7
:102BF000C3F804237047D3F80021002AFBD0002239
:102C0000C3F80021D3F80031704700BF9C0B0020AF
:102C10004FF05023D3F80423D2070DD5D3F8002169
:102C200052B10022C3F80021D3F800210122C3F8D9
:102C30000823024B1B681847704700BF9C0B0020FD
:102C4000054B0246187918B91A6001221A717047AB
:102C50006FF07700704700BFA40B00204FF05023A7
:102C60000022C3F82021D3F8202101229A61094AC9
:102C7000126822B14FF48072C3F804237047D3F86E
:102C80002021002AFBD00022C3F82021D3F82031D4
:102C9000704700BFA40B00204FF05023D3F804234B
:102CA000D2050ED5D3F820215AB10022C3F8202135
:102CB000D3F820214FF48072C3F80823014B1B681E
:102CC00018477047A40B0020074B0246187938B903
:102CD0001A6001221A714FF05023C3F88025704703
:102CE0006FF07700704700BFAC0B00204FF050230F
:102CF0000022C3F82421D3F8242101221A62094AB0
:102D0000126822B14FF40072C3F804237047D3F85D
:102D10002421002AFBD00022C3F82421D3F8243137
:102D2000704700BFAC0B00204FF05023D3F80423B2
:102D300092050ED5D3F824215AB10022C3F82421DC
:102D4000D3F824214FF40072C3F80823014B1B6809
:102D500018477047AC0B0020074B0246187938B96A
:102D60001A6001221A714FF05023C3F818257047DA
:102D70006FF07700704700BFB40B00204FF0502376
:102D800010B5D3F818141E4C11F4803FD3F8182452
:102D90001AD002F00302022A04D0012A01D002F064
:102DA000D0FE01224FF05023C3F818250022C3F8AB
:102DB0000421D3F8042101229A6022688AB9D3F849
:102DC0000421002AFBD014E0D3F81424D207E8D55C
:102DD000D3F81C2402F00302013A012ADFD822684A
:102DE0001AB10222C3F8042310BDD3F80421002A2B
:102DF000FBD00022C3F80421D3F80431F4E700BF6C
:102E0000B40B0020F8B54FF0502301250026D3F86D
:102E10000443184F04F0820404B9F8BDB4FA84F0F6
:102E2000C0F11F00830003F580739BB203F15023B0
:102E3000196805FA00F224EA02040029ECD01E60A9
:102E40001B684FF050230128C3F808230ED1D3F894
:102E50001824D3F8182402F00302012A06D1022113
:102E6000C3F81815C3F804139A60D5E73B68C0B2DD
:102E70009847D1E7B40B0020036803F01F025B09F9
:102E8000026004D0012B034818BF0020704702489D
:102E9000704700BF0028845000258450034A43092E
:102EA000D35C00F01F001844C0B27047F6700000F9
:102EB000034611F0010010B5CCB20BD1A207C4F348
:102EC00040000DD5074A106A58601062003818BFDC
:102ED000012005E004490A6A1A600A62002AEDD05E
:102EE00010BD00BF0028845000258450F7B504466B
:102EF0000846FFF7D3FF06B204EB4606B38A0D4639
:102F0000DB072BD5204602F01FFF2946204602F0A2
:102F10008BFE58B1204602F09DFE0022276800B2C9
:102F200007EB8003C3F81025C3F810252946204677
:102F300002F0B9FE002101A8B1820195FFF79CFFC4
:102F4000019B00EB8300D0F80022064B134043F0B6
:102F50000203C0F80032084603B0F0BD6FF0150060
:102F6000FAE700BFF0F0FCFF70B590F88C40054622
:102F700090F88D6024BB21466022143003F0A8FA3B
:102F80002146114B286853F836608E420ED100243A
:102F9000C0F87C41D0F87C3140F30730FEF770F880
:102FA0000123204685F88C30AB6770BDCBB29B0007
:102FB00003F580727C2B04BF845083580131E4E711
:102FC0006FF07700F1E700BFC86A000090F88D004D
:102FD000024B03EB800002F008BD00BFEC000020B4
:102FE00010B5064B90F88D000C4603EB800002F004
:102FF000E2FC0028A4BF2070002010BDEC000020DF
:103000002DE9F04F814659F804BB90F88D40DBF86C
:1030100004136B4BC9B2804653F8342058468BB02A
:1030200041F0004102F069FE051E36DA0023CDE9C9
:103030000833634B08A803EBC4035B68194601938C
:10304000FFF736FF042303EBC40303935D4B0DF13D
:10305000200A02930023029A009312F8013B584978
:103060000292039A02EBD3028A5C03F0070322FA6E
:1030700003F3DA0719D4009B0AF1040A9BB14FF05D
:1030800000410022584602F038FE019908A8FFF7D7
:103090000FFF0028DAD125F000450124002D78D15A
:1030A0000BB0BDE8F08F0123D5E7009B464A1344DF
:1030B0000493DAF800100029DDD091FAA1F1B1FAF9
:1030C00081F1049B1C7841EA44142046FFF7E6FE98
:1030D00008EB4000878AC808BB08059301231AF84B
:1030E000002001F0070103FA01F122EA01020AF8C7
:1030F000002007A80794FFF7BFFE079A059B8032C0
:1031000050F82220C7F382065B073746C2F301421C
:1031100023D54846D6B221463A4602F0A5FD07A877
:103120000794FFF7A9FE079B803350F82330C3F3C1
:1031300001439E4207D10021204602F066FD314640
:10314000204602F062FD07A80794FFF795FE0122D2
:10315000079B02FA03F30362ABE7022A0DD10321B6
:10316000204602F052FD06F00503012BEBD13A4652
:103170002146484602F078FDE5E702212046059207
:1031800002F043FD032EF2D0059A032ADBD1022E72
:10319000ECE795FAA5F3B3FA83F304FA03F225EA10
:1031A000020503F5A2725BF8222008EB43034846B0
:1031B000B3F87C10C2F3014202F056FD6EE700BF87
:1031C000C86A0000067100000671000038B5EFF310
:1031D0001185202383F31288BFF36F8F064B9C6801
:1031E00002F0A7FF85F31188BFF36F8F2046BDE87B
:1031F0003840FDF7E9BE00BFBC0B002038B50A4BD4
:1032000053F82040013053F82050A54200D838BD73
:10321000606830B1037FDB0701D402F05FFF083440
:10322000F3E723689847FAE7D86A0000012270B5EF
:103230002A4B032086B01A70FFF7E0FFFEF750FA22
:10324000FDF7C6FA0420FFF7D9FF254C254D264689
:10325000AE4204F1300410D300F056FC204C224E54
:10326000AC4226D300F064FCFDF708F91F4A137B3B
:1032700023F00103137306B070BD54F80C3C0593A2
:1032800054F8103C049354F8143C039354F8183C3D
:10329000029354F81C3C019354F8203C009354E9E9
:1032A0000A2354E90C0100F025FA54F8303C5E651D
:1032B000CDE7D4E90A23B3F1FF3F08BFB2F1FF3FE6
:1032C00005D052EA0301206803D100F0EDFC303450
:1032D000C6E73146183000F085FEF8E7E00D002023
:1032E000D8680000D868000027630000B8030020F9
:1032F000B02370B5144E86B003FB0066134B012259
:1033000005930F23CDE903320023CDE901331423C4
:103310004FF4A0720E4D0F4903FB0055044602FB0B
:1033200000110D4B3046009500F0E4F9737B2C74CE
:1033300023F004037373094B013403EBC423EE60E1
:103340006B6006B070BD00BF08030020087100006C
:10335000BC0B0020E8150020F9610000E80D0020FA
:10336000BFB50020FFF74AFF294B03F5006282F347
:10337000088883F30A880024E023264D264F85F829
:103380002230EC772C766C76AC7685F820406B6A30
:1033900043F4E0236B6285F82340FDF78FFDFDF7D2
:1033A00001FF4FF0FF33AB62EB62FEF787F8FDF7EA
:1033B0001DFF1A4800F004FAFEF774F90120FFF728
:1033C0001DFF0220164DFFF719FF00F0E5FB154B1E
:1033D00015495D61154B4FF4806205930123284622
:1033E000CDE90343CDE901443B46009400F082F966
:1033F00006466A7B284622F004026A7302F056FFF2
:103400002046FFF775FF3A4631462846FDF7A8FEED
:10341000E80D002000ED00E02D32000068040020DF
:10342000B8030020BC0B0020281700200D710000FD
:10343000002038B5054C064DAC4200D338BD2046BF
:1034400002F07AFE0028F9DB1C34F5E7D8010020F1
:10345000D801002073B50C46EFF31181202585F3C8
:103460001288BFF36F8FC5685DB125602B68C3609C
:10347000836901338361002081F31188BFF36F8F6B
:1034800011E052EA030603D16FF00B002560F3E769
:10349000CDE900230246083000F07CFA18B9034B4E
:1034A0009B681B69236002B070BD00BFBC0B00208D
:1034B0002DE9F341044617461E46EFF311882023F9
:1034C00083F31288BFF36F8FC368334A7BB1806880
:1034D0009168884219D057EA060318D188F31188F9
:1034E000BFF36F8F6FF00F0002B0BDE8F0819168FD
:1034F00091F90E100133E36093682161A36088F3B2
:103500001188BFF36F8F0020EEE72169F2E791F990
:103510000E1090F90E306FF07E029942A8BF194646
:103520009142B8BF11468B422DDD02F070FE054678
:1035300022464146CDE90076184800F02BFA0028D3
:10354000E1D0EFF31186202383F31288BFF36F8F4E
:10355000A068D0B1236821699C420AD04BB193F98D
:103560000E309942A8BF19466FF07E039942B8BF4A
:10357000194602F04CFE40B13146084800F09EFA70
:103580006FF00A00B0E70025D2E7002DF4D186F3F2
:103590001188BFF36F8FF3E7BC0B0020E10D002013
:1035A000F8B583680546002B40D0234A92689342C1
:1035B0003FD1C368012B03D9013BC3600020F8BD94
:1035C000EFF31187202383F31288BFF36F8F016914
:1035D000806802F01CFE2C68A54207D10023C5E9D3
:1035E000023387F31188BFF36F8FE7E7002CF5D024
:1035F000D4E90032002613605A60637BC4E9006698
:1036000023F002036373A66004F1180002F0E3FEE6
:10361000AC6094F90E3020462B61C4F8AC6002F027
:1036200045FE3946054800F049FAC7E76FF0150036
:10363000C5E74FF0FF30C2E7BC0B0020E10D0020D2
:1036400070B5EFF31186202383F31288BFF36F8FD9
:103650000468A0421BD0D4B1D4E900320025136025
:103660005A60637BC4E9005523F002036373A560CD
:1036700004F1180002F0AFFE2046C4F8AC5002F08E
:1036800015FE3146BDE87040064800F017BAD0E993
:1036900002329A4218BF0133836086F31188BFF368
:1036A0006F8F70BDE10D002013B5EFF31181202461
:1036B00084F31288BFF36F8F846844B1013C846047
:1036C00081F31188BFF36F8F002002B010BD52EA62
:1036D000030406D181F31188BFF36F8F6FF00F00E1
:1036E000F3E7CDE900230246014800F053F9ECE787
:1036F000E10D00202DE9F04F984685B000F1580308
:10370000C0E91633129B002503730423D61D26F04F
:1037100007064373119B01EB060A0F46C0E90655E5
:10372000514685608373C5730446DDF838B0DDF813
:103730004C90FDF7B5F9109B073020F00700C4E965
:103740002576C4F89C0002930F9BAAEB0006CDE9F6
:1037500000B33246434639462046FDF7E5FC0F9B51
:10376000C4E9188BA366109B6565E366EFF31183CC
:10377000202282F31288BFF36F8F104F3A6A3C62A7
:10378000226783F31188BFF36F8FB9F1000F11D057
:103790001F22494604F1740002F0A2FE84F89350FF
:1037A000BB680BB1D3F8A0303046C4F8A03005B0E8
:1037B000BDE8F08F84F87490F2E700BFBC0B0020E6
:1037C00040F2011383810023C0E92533C0F8A03003
:1037D000014B9860704700BFBC0B00206FF00A01DE
:1037E000094A9368C3F8AC100849C3F8A8004B68AD
:1037F00043F080534B60002383F31188BFF36F8F36
:103800009368D3F8AC007047BC0B002000ED00E0DB
:1038100070B590F90D20437B002A36DBD90634D1F0
:103820001B4C63F07F032246437352F8183FE16953
:10383000934207D1C0E900210860E06111E099429C
:10384000F8D01B68002BF5D090F90E5093F90E605C
:10385000B542F4D0AE42F2DD5968C0E900310860EB
:103860005860A569954200D005B9E568A3685A7B00
:10387000D20604D1DA897F2A01D9AA6932B1AB42D2
:1038800002D0284600F00AFB656170BD6361FCE769
:10389000BC0B002038B590F90D200146002A437B6F
:1038A00004DA03F07F03437302F0C6FC0D4D2A4691
:1038B00052F8184FAB68944200D004B9EC688B42C0
:1038C00007D05A7BD20604D1DA897F2A01D9A269AE
:1038D0002AB1A34202D0204600F0E0FA23466B61F1
:1038E00038BD00BFBC0B0020B3F1FF3F08BFB2F1F1
:1038F000FF3F03D00249183000F074BB704700BF8F
:103900002763000070B590F90D200146002A437B23
:1039100004DA03F07F03437302F08EFC1C4C4B7BF4
:10392000224663F07F034B7352F8183FE0699342DD
:1039300007D1C1E900200160E16111E09842F8D0AF
:103940001B68002BF5D091F90E5093F90E60B5422B
:10395000F4D0AE42F2DD5868C1E900300160596030
:10396000A569A368954200D005B9E5688B4207D0E8
:103970005A7BD20604D1DA897F2A01D9AA692AB1F1
:10398000AB4202D0284600F089FA2B46636170BD35
:10399000BC0B0020F8B5DDE906670D4B0C469868B6
:1039A00011460C4A1060EFF31182202282F3128834
:1039B000BFF36F8F9D68284602F050FC28463246C0
:1039C0003B46FFF791FF2046BDE8F840FFF706BFF2
:1039D000BC0B0020E00B0020F8B50446EFF3118784
:1039E000202383F31288BFF36F8F437B49B203F028
:1039F0001F02002A0CBF0126002639D103F07F03E5
:103A00002D4D437302F018FC2A46437B817363F00B
:103A10007F03437352F8183F934227D1E869C4E902
:103A200000200460EC610FE09842F8D01B68002B86
:103A3000F5D093F90EC06145F6D08C45F4DD596898
:103A4000C4E900310C605C60AC69944200D004B9F8
:103A5000EC68AB689C4202D0204600F01FFA6C6113
:103A600087F31188BFF36F8F3046F8BDE869DEE752
:103A70009B071ED5856802F0DFFB81732B689D4292
:103A800009D16B68C4E900531C606C60E8E76A68A0
:103A90009342F6D01B68002BF3D093F90E2091428D
:103AA000F5D08A42F3DD5A68C4E9003214605C60E4
:103AB000D6E78173D4E700BFBC0B002049B9EFF310
:103AC000058030B9054B5A699B689A4201D0FFF7CF
:103AD00085BE81F31188BFF36F8F7047BC0B002048
:103AE000034648B9EFF3058232B9064A5169926834
:103AF000914201D0FFF772BE83F31188BFF36F8F3D
:103B0000704700BFBC0B0020EFF31181202383F32B
:103B10001288BFF36F8F054B9A68D37B013BD37339
:103B200081F31188BFF36F8F704700BFBC0B00207B
:103B300070B5EFF31186202383F31288BFF36F8FE4
:103B4000144DAB68DA7B0132DA732A4652F8184F0B
:103B5000944200D004B9EC685A7BD20604D1DA89C9
:103B60007F2A01D9A2692AB1A34202D0204600F0DF
:103B700095F923466B6186F31188BFF36F8FEFF3DE
:103B80001180202383F31288BFF36F8FBDE870404C
:103B9000FFF7A6BFBC0B0020024B03F11802C3E9DC
:103BA00006227047BC0B002070B5EFF3118620236E
:103BB00083F31288BFF36F8F1B4CA168E0690B6819
:103BC000814214BF1A46002249680B605960A368FD
:103BD000E1692AB9154AC3E900210B60E3610CE0F1
:103BE00093F90E0092F90E50A84218D0854216DDC6
:103BF0005168C3E900210B605360A5690B4B9D42DE
:103C000000D005B9E568A3689D4202D0284600F0BF
:103C100045F965613046BDE87040FFF7DFBD8A4277
:103C2000D8D01268D5E700BFBC0B0020D40B002011
:103C3000F8B550EA010306460C4603D1FFF7B4FF7E
:103C40000020F8BDEFF31187202383F31288BFF320
:103C50006F8F124D124BA8681860FFF71BFEA86803
:103C6000234632460F49183000F0BCF9AA680446D2
:103C7000537B384643F004035373FFF7AFFDAB6843
:103C8000D3E90A23B3F1004F08BF002AD8D102F0CC
:103C9000CAFB201A20EAE070D3E700BFBC0B00206B
:103CA000E00B00202763000038B50446EFF31185D0
:103CB000202383F31288BFF36F8F437B5B070FD5FD
:103CC000183002F088FB637B204623F00403637303
:103CD000FFF79EFD2946BDE838400448FFF7EEBED9
:103CE00085F31188BFF36F8F38BD00BFE10D002051
:103CF000014B9868704700BFBC0B00202DE9F843CA
:103D00000446077BEFF31185202383F31288BFF36A
:103D10006F8F437B190705D585F31188BFF36F8F2C
:103D2000BDE8F883D90943F0080260D14273A36863
:103D300013B1204602F088FA04F1180002F04BFBA0
:103D4000A66D04F15808B04511D04FF0000976B1C6
:103D5000304602F079FA06F1180002F03CFB3046DA
:103D6000C6F8AC90FFF754FDA66DB045EFD1DFF873
:103D7000C480D8F808309C4241D1EFF30589B9F1ED
:103D8000000918BF4FF00109D8F818602A4A964276
:103D900000D00EB9D8F80C60B34202D0304600F023
:103DA0007DF82046C8F8146001F0D2F8204600F0F3
:103DB000CDF8B9F1000F02D02048FFF701FDD8F887
:103DC00008309C4231D1EFF3058373BB227BD207CD
:103DD00018D42846FFF702FDFB07A1D5002383F383
:103DE0001188BFF36F8F0423184602DF98E703F0B2
:103DF0007F0343F00803437302F01EFA97E74FF086
:103E00000009C1E785F31188BFF36F8F83F3118831
:103E1000BFF36F8F0423184602DFEFF311802023D6
:103E200083F31288BFF36F8FD4E785F31188BFF354
:103E30006F8FD1E7BC0B0020D40B0020680400205A
:103E40000122044BC01A044BC0105843034B1A54B0
:103E5000704700BF18050020ABAAAAAAE10D0020F8
:103E6000C3897F2B12D80A4B1B6863B1094B90F9A9
:103E70000E201B689A4209DB437BDB0606D1064B0A
:103E8000C31A18BF012303F0010070470023FAE7AB
:103E9000F4000020E40B00200803002070B50E4B56
:103EA0000E4C1E7C054606EB460304EBC30420467D
:103EB00002F091FA00220A4B28469A55FFF7D0FFEC
:103EC00048B1084B2046BDE870401A680649013ADF
:103ED000D31700F087B870BDBC0B00201805002078
:103EE000E10D0020F4000020413E000038B5EFF362
:103EF0001185202383F31288BFF36F8F104B114A73
:103F00009C681068A04206D1FFF7C8FF85F31188AE
:103F1000BFF36F8F38BD00211B7C11600A4AD35C50
:103F2000002BF3D02046FFF79BFF0028EED0637BE9
:103F3000DB0602D12046FFF7E5FC2046E4E700BFA0
:103F4000BC0B0020E00B0020E10D0020EFF31181FD
:103F5000202383F31288BFF36F8F0A4A136A8342C8
:103F600007D11B6F136281F31188BFF36F8F704706
:103F70001346002BF7D01A6F8242F9D1026F1A67ED
:103F8000F1E700BFBC0B0020024B1868984208BF45
:103F900000207047F8000020034B1B680BB9FEF7A8
:103FA00093BC0020704700BFE80B002030B570B113
:103FB0000B4B5B6898420AD0036843B1D3E90421F4
:103FC000D0E90445121941EB0501C3E90421D0E908
:103FD000003213605A600023C0E9003330BD00BFD7
:103FE000F8000020B3F1FF3F08BFB2F1FF3F2DE919
:103FF000F84F0446994615461F467AD08160EFF384
:104000001188202383F31288BFF36F8FB9F1000F5B
:10401000DFF8E4A020DBFFF7BFFFDAE90027013576
:1040200049F100092D1849EBE07306464FF00109EC
:10403000C4E90453AD1843EB0707FFF7A5FF034698
:10404000DFF8B8E0DEF804A0EBB9C4E900EACAF88A
:104050000040CEF8044028E06FF00103DAE90012D6
:104060005B1A4FF0FF3161EB02025B1B62EB09024E
:10407000012B72F10001BCBF012300224FF00009A7
:10408000C0E90432D9E7D3E9041CD4E904208A4208
:1040900070EB0C0B24DA891A5A686CEB0000C3E948
:1040A0000410C4E9003214605C60FFF76DFF8442C5
:1040B0000ED1134B1B685BB9B9F1000F02D1FFF7AA
:1040C0006BFF0646304602F06FF90021FEF7CEFB8B
:1040D00088F31188BFF36F8F28463946BDE8F88F03
:1040E000521A60EB0C009A45C4E90420ADD01B685D
:1040F000AAE700252F46EFE730050020F800002052
:10410000E80B00202DE9F047EFF31185202383F31E
:104110001288BFF36F8FDFF8A0900026C9F8000067
:104120000027FFF731FFDFF89480D9F80030D8E995
:1041300000ECD91750B1D0E90442A34271EB020A56
:104140001BDAE41A62EB0102C0E90442002413EB1B
:104150000E034CEB01012046C8E90031C9F80040CC
:1041600002F022F92146FEF781FB85F31188BFF3A7
:104170006F8FBDE8F047FFF7B9BE14EB0E024CEBB2
:10418000E473C0E90467C8E90023FFF70FFF85F374
:104190001188BFF36F8F83689847EFF31185202351
:1041A00083F31288BFF36F8FD9F800301B1BC9F857
:1041B0000030FFF7E9FEB8E7E80B002030050020EB
:1041C00010B5EFF31184202383F31288BFF36F8FB0
:1041D000FFF7E2FE0346054AD2E90001181841EB59
:1041E000E37184F31188BFF36F8F10BD3005002099
:1041F000F8B50546EFF31187202383F31288BFF348
:104200006F8F036823B187F31188BFF36F8FF8BDF9
:10421000D0E90A46611C46F10002022972F100024F
:1042200036D3012C76F10002BCBF01241E46013CAE
:1042300046F1FF3602F0FBF8013041F100010019B0
:1042400046EB0101012871F1000130DB02F0EFF8CB
:104250006FF00203013041F10001001946EB01014A
:1042600083426FF000438B4126DB02F0E0F801301F
:1042700041F100016FF00102001946EB01034FF01C
:10428000FF31121A61EB030328461C49FFF7AAFE0F
:104290002B6B01332B632B6A93B93C462B4653F8A7
:1042A000185F9D4200D0D5B984F31188ADE76FF057
:1042B00001024FF0FF33E7E700224FF00043E3E74E
:1042C00087F31188BFF36F8F28462B6A9847EFF367
:1042D0001184202383F31288BFF36F8FDEE7284613
:1042E00001F0F3FF0023C5F8AC3084F31188BFF36D
:1042F0006F8F2846BDE8F84001F0D8BFF1410000BB
:104300002DE9F04105461C4690461F46EFF3118605
:10431000202383F31288BFF36F8FB4F1FF3F08BFF0
:10432000B2F1FF3F05D186F31188BFF36F8FBDE86F
:10433000F081002C09DB012A74F10003BCBF0122CB
:10434000002412F1FF3844F1FF37284602F043F809
:10435000DDE906010023C5E90A012B6342463B461D
:1043600028460249FFF73EFEDDE700BFF1410000AD
:1043700010B50A4C23681BB101232360002010BD37
:1043800000F0F4F80028F7D00138072803D8044BD0
:1043900053F8200010BD034810BD00BFEC0B0020F7
:1043A000F06A0000FE8FFFFFBFF34F8F0549064BF9
:1043B000CA6802F4E0621343CB60BFF34F8F00BFC3
:1043C000FDE700BF00ED00E00400FA0530B44FF057
:1043D000FE3200250B4B0C4C0C494968C3F80024F5
:1043E000C3F80424C3F80824C3F80C24C3F8102429
:1043F000C3F81424C3F81824C3F81C24C4F80055C7
:1044000030BC084700508450004084500001002018
:10441000024BD0E90012C3E90012704700010020EE
:1044200010B5044650B1636813F0685F05D0064AC2
:10443000934202D000236260236010BD034B044806
:104440005B689847EFE700BF2C5F5CA90001002084
:10445000106B0000C8B143680D4A934213D013F0AB
:10446000685F0ED0012350E8002F194640E8001C79
:104470009CF0000FF7D1012AF5D0BFF35F8F002029
:10448000704704487047044870476FF4E040704735
:104490002C5F5CA9E98FFFFFEA8FFFFF034680B125
:1044A000426809498A420AD012F0685F05D0BFF31A
:1044B0005F8F002210461A60704704487047044816
:1044C00070476FF4E04070472C5F5CA9E98FFFFFF5
:1044D000EA8FFFFF10B5044620B10023034A236092
:1044E000626010BD0248FFF771FFF6E73A00003A3C
:1044F000386B000070B5194CD0F804C00668C4F8D9
:1045000004C0D0F808C0C068C4F808C0E0602660E5
:104510000868134B134D18604868D5F81821586087
:10452000886812F0685F9860C8680969D860196186
:1045300012D000230C4A05F58A70C5F81431C5F86D
:10454000B831C5F81821C5F8BC21B047236805F576
:10455000DC70BDE87040184770BD00BF1C01002032
:1045600008010020040C00202C5F5CA908B500F0B5
:1045700011F830B900F010F838B9054AC2F80C0A41
:1045800008BD00F037F8032008BD042008BD00BFB7
:10459000005084500020704710B5114800F048F8D2
:1045A00000B110BD0F4800F043F80028F9D10E4CBF
:1045B000204600F03DF80028F3D10C4B0C481C605D
:1045C00000F036F801460028EBD100F02DF8044643
:1045D00008B1204610BD00F03FF82046FAE700BFC2
:1045E0005C01002058010020540100204C010020F3
:1045F0005001002008B5084800F024F8074800F0F2
:1046000021F8074800F01EF8064800F01BF8BDE846
:10461000084000F00BB800BF5C01002058010020EA
:10462000540100205001002000207047704700BF57
:1046300008B5034B02681B6810689847002008BD46
:104640001C01002008B5034B02685B68106898479E
:10465000002008BD1C01002070B5094C094D2069DF
:10466000AB68984718B1084B08485B689847002129
:10467000074AEB6811602069BDE87040184700BF29
:10468000080100201C010020000100205C6B0000DC
:10469000000C00202DE9F04F43688DB01546804690
:1046A000029383789A0740F10D8100240E78002E42
:1046B00000F00A81252E0BD04B1C03930134414698
:1046C0003046029B98470028C0F2F6800399EDE738
:1046D0004E788B1C252E0393F0D00027B946BB469D
:1046E000BBF11F0F38D8A6F12003102B0AD8DFE842
:1046F00003F02A0909300909092109090928092DA6
:1047000009091F00A6F13003092B33D92A2E37D10E
:104710001BF0400F55F8043B40F08280002BA7BFF0
:104720004BF0200B9946C3F100094BF0280B01E038
:104730004BF0010B039B13F8016B0393002ECFD1B9
:1047400030E04BF0020B4BF0040BF3E74BF0080B9F
:10475000F0E74BF0100BEDE7BBF17F0F19D8A6F196
:104760003003092BD2D81BF0400F03D00A2101FBE4
:104770000737DFE70A214BF0200B01FB0939D9E7A6
:104780002E2E06D11BF0400F40F09E804BF0400BC8
:10479000D0E76C2E31D02BD8682E36D06A2E3CD084
:1047A0004C2E3AD0002F46F02003B8BF2BF0400229
:1047B000A3F16501BCBF00271FFA82FB022901D9C2
:1047C000612B2FD107350727DFF8ACA225F00705AD
:1047D00008351BF0080F66D00AEB070B56465E45FE
:1047E00063D1A4EB0A0AA9EB070906EB0A026FE101
:1047F000742E9FD07A2E9DD0D4E71BF0800F18BF67
:104800004BF4007B4BF0800B94E71BF4807F18BFC8
:104810004BF4007B4BF4807B8CE74BF4207B89E7E7
:104820001F4687E7A6F16301122900F2F080DFE856
:1048300011F013004F00EE00EE00EE00EE004F000E
:10484000EE00EE00EE00EE00EE00FE00E900EE00ED
:10485000EE001B00EE00AF0055F8043B01270DF100
:10486000180A8DF81830B4E755F804AB834BBAF149
:10487000000F08BF9A461BF0400F504614BF394640
:104880004FF0FF3101F03CFE0746A2E741462020F1
:10489000029B984700280FDB013EB742F6D34C44F9
:1048A000B146A41B98E74E46F7E7414616F8010BC0
:1048B000029B9847002892DA98F8023043F00403EC
:1048C00088F802304FF0FF3420460DB0BDE8F08F7D
:1048D0001BF0800F34D01BF4007F2CD0073525F05F
:1048E0000705AA4669685AF8080B2BF0100500293D
:1048F000ADB237DA404245F4806561EB41010DF11C
:10490000180B0A235A4601F007FEA0EB0B03019394
:104910006B0662D5019B25F001019F4289B240F3ED
:10492000A180002E00F0998015F0100240F09C80CC
:10493000BB460D4623E0AA465AF8040BC117D4E73C
:10494000AA461BF4807F5AF8041B01D10846F5E7FC
:104950001BF4007F19BF48B241F3C01108B241F304
:10496000C031C2E750EA0103C9D11BF0400FC6D0E5
:10497000002FC4D12BF01102BB46019795B240F233
:10498000064115EA01021CBF0BF1010B00222CE0CD
:104990002BF010020A231FFA82FB1BF0800C49D077
:1049A0001BF4007115BF0735AA4625F007055AF814
:1049B000040B1EBFAA4669685AF8080B50EA0105A5
:1049C00045D12BF016051BF0400FADB242D0002FA1
:1049D00040D12BF01702019795B215F0100248D084
:1049E000019B002E42D103F1010B29075AD4EB079A
:1049F00006D5D9456FDDA9EB0B030199CB465F18AE
:104A00005B4649E04BF0100B10237826C5E7782B66
:104A100004D1C6F1780343F01003BEE741462520D8
:104A2000029B98470028FFF647AF023447E6082369
:104A30000026B2E7AA461BF480715AF8040BBDD0D9
:104A40001BF400711ABFC0B2614680B2B6E72BF00A
:104A5000060295B20DF1180B54E725F01105BB467F
:104A6000ADB28CE70D46B8E73B460D4603F1020BAD
:104A7000BBE7DDF804B082E7197100001271000095
:104A8000CDE9043241462020029B98470028FFF6DA
:104A900013AF049B059A01339945F1DCA4EB0B019C
:104AA0009B46CC180AB341463020029B9847002809
:104AB000FFF602AF8EB901342744391B019B99429E
:104AC00024DC1D4655BB019AA9EB0B09554622442F
:104AD0001446914433E0019F92E702344146304648
:104AE000029B98470028E7DAE6E640F206410D42CD
:104AF000E2D015F0020F04F10104414614BF2B204F
:104B0000202015F4806F18BF2D20E9E741463020A2
:104B1000029B013498470028CFDACDE606AB013D71
:104B20004146585D029B98470028CBDAC4E64146CF
:104B30002020029B013498470028FFF6BDAEA9EB68
:104B40000403002BF3DCC1E570470346F0B4197988
:104B50000068DB8801250669DA07346854BF43F42E
:104B6000D01383F4B0138D4023F48012DB078768E1
:104B70004CBF2C43AC4334603B68F0BC1847034641
:104B800001211B790068994083685B691847836835
:104B900000EBC101B3F5004F2CBF51F8220031F8F2
:104BA0001200704700EBC1018068B0F5004F2CBFC8
:104BB00041F8223021F812307047012208B5FFF782
:104BC000E6FFD04008BD836800EBC101B3F5004F9C
:104BD00008D34B681AB143F001034B60704723F0D0
:104BE0000103FAE74B881AB143F001034B80704789
:104BF00023F00103FAE753000122FFF7D3BF8368D4
:104C0000481CB3F5004F34BF042308230833A0EB3E
:104C1000D300B0FA80F0C0F11F0070472DE9F041D9
:104C20000D4686680446FFF7C8FFB6F5004F0146FB
:104C300001D3012832D02046FFF7E1FF04EB8001C9
:104C40000E6996B90122E36882401343E3600222B1
:104C50000D612B4629462046FFF7A4FF0322294673
:104C60002046BDE8F041FFF79DBF022231462046B5
:104C7000FFF78DFF0746034629462046FFF792FFC0
:104C80000322334629462046FFF78CFF39462B4640
:104C90002046FFF787FF02223146E1E7BDE8F081B9
:104CA000B2F5802F2CBF082304232DE9F041002604
:104CB000D21A8C18CD1D25F0070524F00704641BBB
:104CC000E408056021462846AC60EE60FFF797FFD8
:104CD000421D9200013002F107074FEAD707314623
:104CE000A2F1100205F11000B8BF324601F0F0FB4E
:104CF0003A4631462846FFF77EFF33463246314674
:104D00002846FFF74FFFA4EB07082846314601224B
:104D1000FFF759FF42463946FFF76DFF3B463246E3
:104D200039462846FFF73EFF21462846FFF763FF36
:104D30004346324621462846FFF734FF214628469F
:104D40000122FFF740FF3946BDE8F041FFF766BF9B
:104D5000002070470FB407B504A951F8040B019166
:104D6000FBF7F0FB03B05DF804EB04B07047038B76
:104D700013F0070305D10368002B0CBF00200320AC
:104D80007047022B05D1408BB0FA80F040098000BB
:104D90007047012B05D10368002B0CBF00200520B4
:104DA00070470020704710B50C4600B111B96FF084
:104DB000150010BD081D00F093F80028F9D1A36874
:104DC000032BF6D9F3E72DE9F0410D4607461946C6
:104DD000281D90461E4600F094F8044638B133462C
:104DE000424629463846A446BDE8F0416047BDE842
:104DF000F08110B4EFF31182202484F31288BFF302
:104E00006F8F416110BC0121FBF7CEBB38B50C465A
:104E1000054658B151B10B6843B14B6833B11C2200
:104E2000002101F055FB00202C6138BD6FF015000A
:104E3000FBE770B505460E46FFF7B5FF041E14DB11
:104E4000EFF31182202383F31288BFF36F8F4FF6A5
:104E5000FF716B8B2C8B8B4204F0070407D182F31C
:104E60001188BFF36F8F6FF00A04204670BD022CCB
:104E70000CD101336B8382F31188BFF36F8F002352
:104E8000224631462846FFF79EFFEEE7062C14D84F
:104E9000DFE804F004131313041A04000023336042
:104EA0006B683BB9C5E90066ACB902212846FBF73F
:104EB0007BFBDAE71E606E60F6E782F31188BFF3D2
:104EC0006F8F6FF00404D0E782F31188BFF36F8F08
:104ED0006FF08504C9E782F31188BFF36F8FC4E7D1
:104EE000034658B1426802F00302012A03D0032AA4
:104EF00004D1026812B10020986070476FF015006D
:104F000070474268034602F00302032A4FF0000292
:104F1000816014BF104600685A6070477047FEE712
:104F200001F0D6BA01F0ADBA01460068FBF784BDC6
:104F300008B5FBF7B1FDBDE80840FBF7D1BD002186
:104F40000120FBF779BDD0F8943083F30B887047CC
:104F50006FF08500704761B662B680F31188BFF3C9
:104F60006F8F704708B572B6002383F31188BFF3C3
:104F70006F8FFCF765FB50B1BFF34F8F30BF00BFA1
:104F800000BF00BF00BF00BF00BF00BF00BF62B6D0
:104F9000BFF36F8F08BD10B5044672B6002383F3CC
:104FA0001188BFF36F8FFCF74BFB50B1BFF34F8FEE
:104FB00020BF00BF00BF00BF00BF00BF00BF00BFD9
:104FC00000BF84F31188BFF36F8F62B610BD40E855
:104FD00000F313F4803FD8B208BF6FF0150070479C
:104FE00030B50C684B6885B00A894D890094013B47
:104FF00024F01F04234402F01F0242EA451223F06A
:105000001F0369468DF808200393FCF725F905B0C6
:1050100030BD08B5FCF7E0FA002008BD4FF0502382
:10502000012270B50C460546C3F814260020FCF793
:1050300089FB28462346BDE87040002118470C2212
:105040000369C9B201FB0233986F00F00700704793
:1050500070B5C9B20369EFF31185202484F3128877
:10506000BFF36F8F0C2606FB0134A46F14F0C0044D
:1050700008D0A24206D085F31188BFF36F8F4FF09E
:10508000FF3070BD012206FB01339A6785F311885A
:10509000BFF36F8F436803EBC1035B689847002041
:1050A000EFE78022FFF7D4BFF8B5069F0469C9B2C5
:1050B000EFF31186202585F31288BFF36F8F0C253F
:1050C00005FB0144A56F05F0070CBCF1010F0CD1E5
:1050D000A76786F31188BFF36F8FC4E91C23436869
:1050E00053F8313098470020F8BD05F0C005AF42B5
:1050F00086F31188BFF36F8F0CBF6FF077004FF00E
:10510000FF30F1E713B580240094FFF7CDFF02B024
:1051100010BD10B41C240069CBB203FB04000021B5
:1051200010BC1047032000F08DBC022000F08ABCA8
:10513000032000F096BC022000F093BC1046FEF75E
:105140007FBA00F017BDFDF719BE436800205B6809
:105150001B690B607047436802EA01005B6821EA43
:10516000020198600020D9607047436800205B68A6
:1051700099607047436800205B68D9607047436856
:105180005A68536821EA03000B4090600020D36006
:10519000704710B503695868F8B1884219D19C6806
:1051A0000868A142586000D19860002008602AB1C8
:1051B0005A680A609A68596002B99960002010E044
:1051C000814206D10868206098688142EDD19C60D8
:1051D000EBE7044600680028F2D1002AE8D16FF01E
:1051E000150010BDFDF70CBF30B543681360057A9C
:1051F000446804EBC504A34202D36FF0010030BD44
:105200005C798C4201D00833F0E70020F7E743686F
:105210001B68D3F88004C3F88004704703691A68D8
:1052200013680BB152681847704730B587B0044611
:105230000D461422002101A801F04AF9042320465A
:105240000DEB03018DF804300295FFF7E7FF07B07F
:1052500030BD70B586B0066904460D4614220021A3
:1052600001A801F035F902238DF804303368204697
:105270001B6C01A9029333689B6CCDE90335FFF7E2
:10528000CDFF06B070BD30B503691C6843681B686C
:10529000EFF31185202080F31288BFF36F8F206C0D
:1052A000A8B1E06CB0B90020C4E91312042AC3F815
:1052B0003415C3F8382582BFD3F8002242F020020B
:1052C000C3F8002285F31188BFF36F8F30BD6FF0F4
:1052D0000C00F7E76FF00F00F4E70369186820B1DE
:1052E00001601B6800205A6070476FF085007047AE
:1052F00010B5426800691368006860B9D3F81041BE
:1053000064B1926A12780A70C3F81001D3F81021C0
:1053100001221A6010BD6FF08500FBE74FF0FF30EF
:10532000F8E770B503690E461D6843681C6805F10F
:10533000080001F08AF8EFF31182202383F312882A
:10534000BFF36F8FEB6C53B1D4F8003223F020031E
:10535000C4F800320023C4F84C31D4F84C31002397
:1053600085F8613001230EB185F86230636082F305
:105370001188BFF36F8F002070BD03691B681B6C21
:1053800013B10121FFF7CDBF6FF00D00704710B5CD
:1053900003691968D1F8A420D1F8B040121B13D0CA
:1053A000082A28BF08224068C1F8AC201968C069E3
:1053B000C1F8A8001B68D3F8A010D3F8B030194486
:1053C00001F05FF8012010BD1046FCE702680346BB
:1053D000D2F8580140B95B68DB0706D4D2F8200147
:1053E000003818BF012070470120704713B501AA8B
:1053F0000446FFF7F9FE002805DB019B22681979B6
:105400001868FCF76DFD02B010BD10B40269446865
:10541000936923EA0101916111F0030108D1436806
:105420001B68C3F80015E068012110BCFFF7DEBF60
:1054300010BC704770B5036986B0456804461422F5
:10544000002101A81E6801F043F805238DF80430FF
:10545000002386F861306B685B070ED5EFF311858A
:10546000202383F31288BFF36F8F02212046FFF7BA
:10547000CCFF85F31188BFF36F8F204601A9FFF79A
:10548000CDFE06B070BD6FF08500704710B50269A3
:1054900093691943916113F0030107D14368D868F8
:1054A0001C68FFF7A3FF0823C4F8003510BD10B532
:1054B00043681C68C4F84415C4F848250022C4F8A1
:1054C0002021D4F82011C4F858215B68D4F8582161
:1054D0005B0702D50121FFF7D9FF0123A36010BDAF
:1054E0004FF4800210B5436804461B68C3F80423D8
:1054F0004068FFF76BFF0B6818B9012283F8B820EA
:1055000010BD002283F8B8204FF0FF320B68204610
:10551000C3F8B4200B68BDE81040D3E92A12FFF7A6
:10552000C6BF37B5426B536812691B681068D3F861
:1055300008217AB10022C3F80821D3F80831426566
:10554000D0E91623002400250830CDE90045FEF7F8
:10555000D7FE06E0426D0132042A4265F0D10122F5
:105560005A6003B030BD2DE9F04F436807691D68EC
:105570000446D5F80463D5F80831D7F8008089B01F
:10558000DBB1720719D50022C5F808214168D5F8AA
:1055900008310369D1F8009019684A651868D0E9A4
:1055A00016234FF0000A4FF0000B0830CDE900AB96
:1055B000FEF7A6FE0423C9F80833D5F8243163B3F7
:1055C000B3052AD50021C5F82411D5F82431636824
:1055D0001422D3F800A003A8DAF8809400F078FF32
:1055E000062319F0010F8DF80C3040F03D8119F0C1
:1055F000020F40F03B8119F0040F40F0398109F0AF
:10560000080320468DF8103003A9CAF88094FFF7EC
:1056100005FE00212046FFF784FED5F81031002B4F
:1056200059D0F00657D54FF0000BC5F810B1D5F89A
:105630001031C5F810B1D5F810312369D3F80090B6
:105640006368D3F800A009F1080000F0FEFE99F8A5
:105650006010D9F84830DAF83C25C91A1144594588
:1056600089F860B002DD2046FFF7F3FD2046D9F847
:105670004010FFF7DAFDD9F84C30C9F84030D9F8BE
:105680005030C9F844300023C9E91333C9F8483011
:1056900099F86130FBB1EFF31182202383F3128874
:1056A000BFF36F8FD9F84030002B00F0E380DAF8B9
:1056B0004C3133B90121CAF80010CAF84431DAF884
:1056C0004431DAF8003223F02003CAF8003282F3C2
:1056D0001188BFF36F8F31031FD5D5F84C31E3B17B
:1056E000D5F81011C9B9C5F84C11142203A8D5F882
:1056F0004C3100F0EDFE03238DF80C302369204679
:105700001A6803A9D2E9163213431FBF0422636843
:105710001B68C3F80423FFF781FDB2032AD5D5F82F
:1057200044313BB3D5F810A1BAF1000F22D1C5F82E
:1057300044A1D5F844312369D4F804B0D3F80090DB
:10574000D9F8401021B12046FFF76FFDC9F840A0FD
:1057500099F86230002B00F09180002389F86230C4
:105760000022636820461B68C3F80821D3F808317B
:10577000FFF760FEF00519D5D5F82031B3B16368A5
:105780001B68EFF31182202181F31288BFF36F8F22
:10579000D3F8201131B10021C3F82011D3F8201122
:1057A0000121D96082F31188BFF36F8F71023DD55B
:1057B000D5F85831002B39D063682569D3F80090AB
:1057C000EFF3118A202282F31288BFF36F8F2A68C9
:1057D0005B68D2F8B4100029ACBFD2F8B460D9F835
:1057E0004C655A0707D54FF4800301212046C9F8BC
:1057F0000833FFF70AFE8AF31188BFF36F8F2B6817
:10580000D3F8A02092B193F8B81000295AD0EFF342
:105810001186202383F31288BFF36F8F2946204619
:10582000FFF75EFE86F31188BFF36F8F1837D7E856
:10583000EF3F23F00402C7E8E12F0029F7D15B070F
:105840007DD52046D8F84410FFF703FD2046D8F850
:105850004010FFF7EAFC00232046C8E9103309B0E6
:10586000BDE8F04FFFF7E6BD0123CAE60223C8E614
:105870000423C6E60123CAF8043028E7DBF8043025
:105880005B077FF56DAF62681368126AC3F8342551
:105890000522C3F838250122DA62D3F81021002A44
:1058A000FBD00021C3F81011D3F81021D3F84C21FC
:1058B0002AB1C3F84C11D3F84C21D3F83C2589F810
:1058C00060204DE7D3F8A8108A4210D0D3F8AC106E
:1058D000D3F8B020B14232442FD12046C3F8B020D3
:1058E000FFF755FD002892D12B68D3F8B0602868E7
:1058F000683000F0AAFD1422002103A800F0E8FDA2
:105900002B682046D3F8A03003A9CDE904362B68D4
:10591000D3F8A4309E421CBF01238DF80C304FF405
:105920008003C9F8083300232A68C2F8A0302A6827
:10593000C2F8A430FFF772FC78E71646D7E709B043
:10594000BDE8F08F38B54268036915681A68D2F867
:10595000A01051B1002482F8B8401868683000F0F7
:1059600074FD01232046EB6038BD6FF00D00FBE7AE
:10597000406BFFF7E7BF002200F150039B009BB292
:1059800003F1502303F580331A601B68704708B594
:10599000FCF708FE08BDFEF7EBBC08B5FAF726FFDA
:1059A000FBF70CF8BDE80840FEF7E2BC0346002018
:1059B000184700F08FBB024610B5116891B1B1FADB
:1059C00081F3C3F11F000123834021EA0303D2E8DE
:1059D000EF4F8C4204D1C2E8EC3FBCF1000FF6D18E
:1059E000EBD110BD6FF00B00FBE710B50368CB40A7
:1059F000DB0710D401238B40026843EA0201D0E8A0
:105A0000EF4F944204D1C0E8EC1FBCF1000FF6D177
:105A1000F2D1002010BD6FF01500FBE770B50D4608
:105A20000021064608461446FDF752F848B9237887
:105A300043F00043C6F88030237843F00043C5F8B4
:105A4000803070BD03280BD8DFE800F002040608A0
:105A5000FDF794B9FDF7C0B8FDF748B9FDF7FEB8FA
:105A6000704703280BD8DFE800F00402060800F0B6
:105A70002EB800F07FB800F062B800F044B870476C
:105A800008B5FDF7C5F8FDF7BDF9FDF74DF9BDE81F
:105A90000840FDF701B938B54FF050240123C4F890
:105AA00008336360002342F21075C4F80031D4F863
:105AB0000031D4F80C24D4F80C34D20306D5DB071B
:105AC00004D50120FFF775FF013DF2D138BDFFF786
:105AD000E2BF38B54FF050244FF48073C4F8083358
